{
  "contractName": "TimeBondDepository",
  "abi": [
    {
      "anonymous": false,
      "inputs": [
        {
          "indexed": false,
          "internalType": "uint256",
          "name": "deposit",
          "type": "uint256"
        },
        {
          "indexed": true,
          "internalType": "uint256",
          "name": "payout",
          "type": "uint256"
        },
        {
          "indexed": true,
          "internalType": "uint256",
          "name": "expires",
          "type": "uint256"
        },
        {
          "indexed": true,
          "internalType": "uint256",
          "name": "priceInUSD",
          "type": "uint256"
        }
      ],
      "name": "BondCreated",
      "type": "event"
    },
    {
      "anonymous": false,
      "inputs": [
        {
          "indexed": true,
          "internalType": "uint256",
          "name": "priceInUSD",
          "type": "uint256"
        },
        {
          "indexed": true,
          "internalType": "uint256",
          "name": "internalPrice",
          "type": "uint256"
        }
      ],
      "name": "BondPriceChanged",
      "type": "event"
    },
    {
      "anonymous": false,
      "inputs": [
        {
          "indexed": true,
          "internalType": "address",
          "name": "recipient",
          "type": "address"
        },
        {
          "indexed": false,
          "internalType": "uint256",
          "name": "payout",
          "type": "uint256"
        },
        {
          "indexed": false,
          "internalType": "uint256",
          "name": "remaining",
          "type": "uint256"
        }
      ],
      "name": "BondRedeemed",
      "type": "event"
    },
    {
      "anonymous": false,
      "inputs": [
        {
          "indexed": true,
          "internalType": "address",
          "name": "previousOwner",
          "type": "address"
        },
        {
          "indexed": true,
          "internalType": "address",
          "name": "newOwner",
          "type": "address"
        }
      ],
      "name": "OwnershipTransferred",
      "type": "event"
    },
    {
      "inputs": [],
      "name": "DAO",
      "outputs": [
        {
          "internalType": "address",
          "name": "",
          "type": "address"
        }
      ],
      "stateMutability": "view",
      "type": "function",
      "constant": true
    },
    {
      "inputs": [
        {
          "internalType": "address",
          "name": "",
          "type": "address"
        }
      ],
      "name": "bondInfo",
      "outputs": [
        {
          "internalType": "uint256",
          "name": "payout",
          "type": "uint256"
        },
        {
          "internalType": "uint256",
          "name": "pricePaid",
          "type": "uint256"
        },
        {
          "internalType": "uint32",
          "name": "vesting",
          "type": "uint32"
        },
        {
          "internalType": "uint32",
          "name": "lastTime",
          "type": "uint32"
        }
      ],
      "stateMutability": "view",
      "type": "function",
      "constant": true
    },
    {
      "inputs": [],
      "name": "buyBackRate",
      "outputs": [
        {
          "internalType": "uint256",
          "name": "",
          "type": "uint256"
        }
      ],
      "stateMutability": "view",
      "type": "function",
      "constant": true
    },
    {
      "inputs": [],
      "name": "currentSale",
      "outputs": [
        {
          "internalType": "uint256",
          "name": "",
          "type": "uint256"
        }
      ],
      "stateMutability": "view",
      "type": "function",
      "constant": true
    },
    {
      "inputs": [],
      "name": "lastBuyBack",
      "outputs": [
        {
          "internalType": "uint256",
          "name": "",
          "type": "uint256"
        }
      ],
      "stateMutability": "view",
      "type": "function",
      "constant": true
    },
    {
      "inputs": [],
      "name": "operator",
      "outputs": [
        {
          "internalType": "address",
          "name": "",
          "type": "address"
        }
      ],
      "stateMutability": "view",
      "type": "function",
      "constant": true
    },
    {
      "inputs": [],
      "name": "owner",
      "outputs": [
        {
          "internalType": "address",
          "name": "",
          "type": "address"
        }
      ],
      "stateMutability": "view",
      "type": "function",
      "constant": true
    },
    {
      "inputs": [],
      "name": "pancakeRouter",
      "outputs": [
        {
          "internalType": "contract IPancakeRouter02",
          "name": "",
          "type": "address"
        }
      ],
      "stateMutability": "view",
      "type": "function",
      "constant": true
    },
    {
      "inputs": [],
      "name": "principle",
      "outputs": [
        {
          "internalType": "address",
          "name": "",
          "type": "address"
        }
      ],
      "stateMutability": "view",
      "type": "function",
      "constant": true
    },
    {
      "inputs": [],
      "name": "referralBonusRate",
      "outputs": [
        {
          "internalType": "uint256",
          "name": "",
          "type": "uint256"
        }
      ],
      "stateMutability": "view",
      "type": "function",
      "constant": true
    },
    {
      "inputs": [],
      "name": "renounceOwnership",
      "outputs": [],
      "stateMutability": "nonpayable",
      "type": "function"
    },
    {
      "inputs": [],
      "name": "terms",
      "outputs": [
        {
          "internalType": "uint256",
          "name": "minimumPrice",
          "type": "uint256"
        },
        {
          "internalType": "uint256",
          "name": "maxPayout",
          "type": "uint256"
        },
        {
          "internalType": "uint32",
          "name": "vestingTerm",
          "type": "uint32"
        },
        {
          "internalType": "uint256",
          "name": "discountRate",
          "type": "uint256"
        }
      ],
      "stateMutability": "view",
      "type": "function",
      "constant": true
    },
    {
      "inputs": [],
      "name": "totalPurchased",
      "outputs": [
        {
          "internalType": "uint256",
          "name": "",
          "type": "uint256"
        }
      ],
      "stateMutability": "view",
      "type": "function",
      "constant": true
    },
    {
      "inputs": [
        {
          "internalType": "address",
          "name": "newOwner",
          "type": "address"
        }
      ],
      "name": "transferOwnership",
      "outputs": [],
      "stateMutability": "nonpayable",
      "type": "function"
    },
    {
      "inputs": [],
      "name": "treasury",
      "outputs": [
        {
          "internalType": "address",
          "name": "",
          "type": "address"
        }
      ],
      "stateMutability": "view",
      "type": "function",
      "constant": true
    },
    {
      "inputs": [],
      "name": "usd",
      "outputs": [
        {
          "internalType": "contract IERC20",
          "name": "",
          "type": "address"
        }
      ],
      "stateMutability": "view",
      "type": "function",
      "constant": true
    },
    {
      "inputs": [],
      "name": "xBlade",
      "outputs": [
        {
          "internalType": "address",
          "name": "",
          "type": "address"
        }
      ],
      "stateMutability": "view",
      "type": "function",
      "constant": true
    },
    {
      "inputs": [
        {
          "internalType": "address",
          "name": "_xBlade",
          "type": "address"
        },
        {
          "internalType": "address",
          "name": "_principle",
          "type": "address"
        },
        {
          "internalType": "address",
          "name": "_treasury",
          "type": "address"
        },
        {
          "internalType": "address",
          "name": "_DAO",
          "type": "address"
        },
        {
          "internalType": "address",
          "name": "_router",
          "type": "address"
        },
        {
          "internalType": "address",
          "name": "_usd",
          "type": "address"
        }
      ],
      "name": "initialize",
      "outputs": [],
      "stateMutability": "nonpayable",
      "type": "function"
    },
    {
      "inputs": [
        {
          "internalType": "uint256",
          "name": "_minimumPrice",
          "type": "uint256"
        },
        {
          "internalType": "uint256",
          "name": "_maxPayout",
          "type": "uint256"
        },
        {
          "internalType": "uint32",
          "name": "_vestingTerm",
          "type": "uint32"
        },
        {
          "internalType": "uint256",
          "name": "_discountRate",
          "type": "uint256"
        }
      ],
      "name": "initializeBondTerms",
      "outputs": [],
      "stateMutability": "nonpayable",
      "type": "function"
    },
    {
      "inputs": [
        {
          "internalType": "enum TimeBondDepository.PARAMETER",
          "name": "_parameter",
          "type": "uint8"
        },
        {
          "internalType": "uint256",
          "name": "_input",
          "type": "uint256"
        }
      ],
      "name": "setBondTerms",
      "outputs": [],
      "stateMutability": "nonpayable",
      "type": "function"
    },
    {
      "inputs": [
        {
          "internalType": "address",
          "name": "_feed",
          "type": "address"
        }
      ],
      "name": "setPrice",
      "outputs": [],
      "stateMutability": "nonpayable",
      "type": "function"
    },
    {
      "inputs": [
        {
          "internalType": "uint256",
          "name": "_initialSale",
          "type": "uint256"
        }
      ],
      "name": "setCurrentSale",
      "outputs": [],
      "stateMutability": "nonpayable",
      "type": "function"
    },
    {
      "inputs": [
        {
          "internalType": "uint256",
          "name": "_amount",
          "type": "uint256"
        },
        {
          "internalType": "uint256",
          "name": "_maxPrice",
          "type": "uint256"
        },
        {
          "internalType": "address",
          "name": "_depositor",
          "type": "address"
        }
      ],
      "name": "deposit",
      "outputs": [
        {
          "internalType": "uint256",
          "name": "",
          "type": "uint256"
        }
      ],
      "stateMutability": "payable",
      "type": "function",
      "payable": true
    },
    {
      "inputs": [
        {
          "internalType": "uint256",
          "name": "_amount",
          "type": "uint256"
        },
        {
          "internalType": "uint256",
          "name": "_maxPrice",
          "type": "uint256"
        },
        {
          "internalType": "address",
          "name": "_depositor",
          "type": "address"
        },
        {
          "internalType": "address",
          "name": "_referrer",
          "type": "address"
        }
      ],
      "name": "depositWithReferral",
      "outputs": [
        {
          "internalType": "uint256",
          "name": "",
          "type": "uint256"
        }
      ],
      "stateMutability": "payable",
      "type": "function",
      "payable": true
    },
    {
      "inputs": [
        {
          "internalType": "address",
          "name": "_recipient",
          "type": "address"
        },
        {
          "internalType": "bool",
          "name": "_stake",
          "type": "bool"
        }
      ],
      "name": "redeem",
      "outputs": [
        {
          "internalType": "uint256",
          "name": "",
          "type": "uint256"
        }
      ],
      "stateMutability": "nonpayable",
      "type": "function"
    },
    {
      "inputs": [],
      "name": "manualBuyBack",
      "outputs": [],
      "stateMutability": "nonpayable",
      "type": "function"
    },
    {
      "inputs": [
        {
          "internalType": "address",
          "name": "_treasury",
          "type": "address"
        }
      ],
      "name": "setTreasury",
      "outputs": [],
      "stateMutability": "nonpayable",
      "type": "function"
    },
    {
      "inputs": [
        {
          "internalType": "uint256",
          "name": "_rate",
          "type": "uint256"
        }
      ],
      "name": "setReferralBonusRate",
      "outputs": [],
      "stateMutability": "nonpayable",
      "type": "function"
    },
    {
      "inputs": [
        {
          "internalType": "uint256",
          "name": "_rate",
          "type": "uint256"
        }
      ],
      "name": "setBuyBackRate",
      "outputs": [],
      "stateMutability": "nonpayable",
      "type": "function"
    },
    {
      "inputs": [
        {
          "internalType": "address",
          "name": "_account",
          "type": "address"
        }
      ],
      "name": "setOperator",
      "outputs": [],
      "stateMutability": "nonpayable",
      "type": "function"
    },
    {
      "inputs": [],
      "name": "maxPayout",
      "outputs": [
        {
          "internalType": "uint256",
          "name": "",
          "type": "uint256"
        }
      ],
      "stateMutability": "view",
      "type": "function",
      "constant": true
    },
    {
      "inputs": [
        {
          "internalType": "uint256",
          "name": "_value",
          "type": "uint256"
        }
      ],
      "name": "payoutFor",
      "outputs": [
        {
          "internalType": "uint256",
          "name": "",
          "type": "uint256"
        }
      ],
      "stateMutability": "view",
      "type": "function",
      "constant": true
    },
    {
      "inputs": [],
      "name": "bondPrice",
      "outputs": [
        {
          "internalType": "uint256",
          "name": "price_",
          "type": "uint256"
        }
      ],
      "stateMutability": "view",
      "type": "function",
      "constant": true
    },
    {
      "inputs": [],
      "name": "assetPrice",
      "outputs": [
        {
          "internalType": "uint256",
          "name": "",
          "type": "uint256"
        }
      ],
      "stateMutability": "view",
      "type": "function",
      "constant": true
    },
    {
      "inputs": [],
      "name": "bondPriceInUSD",
      "outputs": [
        {
          "internalType": "uint256",
          "name": "price_",
          "type": "uint256"
        }
      ],
      "stateMutability": "view",
      "type": "function",
      "constant": true
    },
    {
      "inputs": [
        {
          "internalType": "address",
          "name": "_depositor",
          "type": "address"
        }
      ],
      "name": "percentVestedFor",
      "outputs": [
        {
          "internalType": "uint256",
          "name": "percentVested_",
          "type": "uint256"
        }
      ],
      "stateMutability": "view",
      "type": "function",
      "constant": true
    },
    {
      "inputs": [
        {
          "internalType": "address",
          "name": "_depositor",
          "type": "address"
        }
      ],
      "name": "pendingPayoutFor",
      "outputs": [
        {
          "internalType": "uint256",
          "name": "pendingPayout_",
          "type": "uint256"
        }
      ],
      "stateMutability": "view",
      "type": "function",
      "constant": true
    },
    {
      "inputs": [
        {
          "internalType": "uint256",
          "name": "_principleAmount",
          "type": "uint256"
        }
      ],
      "name": "stableValueOf",
      "outputs": [
        {
          "internalType": "uint256",
          "name": "_amountOut",
          "type": "uint256"
        }
      ],
      "stateMutability": "view",
      "type": "function",
      "constant": true
    },
    {
      "inputs": [
        {
          "internalType": "address",
          "name": "_token",
          "type": "address"
        }
      ],
      "name": "recoverLostToken",
      "outputs": [
        {
          "internalType": "bool",
          "name": "",
          "type": "bool"
        }
      ],
      "stateMutability": "nonpayable",
      "type": "function"
    }
  ],
  "bytecode": "0x608060405234801561001057600080fd5b50613935806100206000396000f3fe6080604052600436106102305760003560e01c806398fabd3a1161012e578063cd7d24b5116100ab578063e0176de81161006f578063e0176de8146107b0578063e632c2f3146107c5578063f0f44260146107da578063f2fde38b1461080d578063f34dad2f1461084057610230565b8063cd7d24b5146106f7578063d24378eb14610731578063d502562514610746578063d63a6ccd14610786578063d7ccfb0b1461079b57610230565b8063b4abccba116100f2578063b4abccba1461059f578063c21ebd07146105e6578063c755d099146105fb578063cc2a9a5b1461063d578063cd1234b31461069857610230565b806398fabd3a14610503578063a05d03fd14610518578063a35ab6391461052d578063a687da0314610557578063b3ab15fb1461056c57610230565b8063507930ec116101bc57806382efb2501161018057806382efb25014610468578063844b5c7c146104925780638521fb1c146104a75780638da5cb5b146104bc5780638dbdbe6d146104d157610230565b8063507930ec146103cc578063570ca735146103ff57806361d027b314610414578063715018a6146104295780637927ebf81461043e57610230565b80631f312375116102035780631f312375146102f55780631feed31f1461030a5780632283f13c1461034557806327c6919d1461036f5780633b3247901461039957610230565b8063016a42841461023557806301b88ee814610266578063178a8d07146102ab5780631e321a0f146102c0575b600080fd5b34801561024157600080fd5b5061024a610855565b604080516001600160a01b039092168252519081900360200190f35b34801561027257600080fd5b506102996004803603602081101561028957600080fd5b50356001600160a01b0316610864565b60408051918252519081900360200190f35b3480156102b757600080fd5b506102996108bd565b3480156102cc57600080fd5b506102f3600480360360408110156102e357600080fd5b5060ff81351690602001356108c3565b005b34801561030157600080fd5b50610299610a9f565b34801561031657600080fd5b506102996004803603604081101561032d57600080fd5b506001600160a01b0381351690602001351515610aa5565b34801561035157600080fd5b506102f36004803603602081101561036857600080fd5b5035610cf7565b34801561037b57600080fd5b506102f36004803603602081101561039257600080fd5b5035610d5e565b3480156103a557600080fd5b506102f3600480360360208110156103bc57600080fd5b50356001600160a01b0316610e1a565b3480156103d857600080fd5b50610299600480360360208110156103ef57600080fd5b50356001600160a01b0316610e9e565b34801561040b57600080fd5b5061024a610f4b565b34801561042057600080fd5b5061024a610f5a565b34801561043557600080fd5b506102f3610f69565b34801561044a57600080fd5b506102996004803603602081101561046157600080fd5b5035611015565b34801561047457600080fd5b506102996004803603602081101561048b57600080fd5b5035611030565b34801561049e57600080fd5b5061029961121c565b3480156104b357600080fd5b5061029961122b565b3480156104c857600080fd5b5061024a611231565b610299600480360360608110156104e757600080fd5b50803590602081013590604001356001600160a01b0316611240565b34801561050f57600080fd5b5061024a611646565b34801561052457600080fd5b50610299611655565b34801561053957600080fd5b506102f36004803603602081101561055057600080fd5b503561165b565b34801561056357600080fd5b506102f36116c2565b34801561057857600080fd5b506102f36004803603602081101561058f57600080fd5b50356001600160a01b03166117e2565b3480156105ab57600080fd5b506105d2600480360360208110156105c257600080fd5b50356001600160a01b0316611866565b604080519115158252519081900360200190f35b3480156105f257600080fd5b5061024a611937565b34801561060757600080fd5b506102f36004803603608081101561061e57600080fd5b5080359060208101359063ffffffff6040820135169060600135611946565b34801561064957600080fd5b506102f3600480360360c081101561066057600080fd5b506001600160a01b038135811691602081013582169160408201358116916060810135821691608082013581169160a00135166119f3565b3480156106a457600080fd5b506106cb600480360360208110156106bb57600080fd5b50356001600160a01b0316611b74565b60408051948552602085019390935263ffffffff91821684840152166060830152519081900360800190f35b6102996004803603608081101561070d57600080fd5b508035906020810135906001600160a01b0360408201358116916060013516611ba6565b34801561073d57600080fd5b50610299611c46565b34801561075257600080fd5b5061075b611cc9565b60408051948552602085019390935263ffffffff909116838301526060830152519081900360800190f35b34801561079257600080fd5b5061024a611ce1565b3480156107a757600080fd5b50610299611cf0565b3480156107bc57600080fd5b50610299611cf6565b3480156107d157600080fd5b50610299611d88565b3480156107e657600080fd5b506102f3600480360360208110156107fd57600080fd5b50356001600160a01b0316611d8e565b34801561081957600080fd5b506102f36004803603602081101561083057600080fd5b50356001600160a01b0316611e12565b34801561084c57600080fd5b5061024a611f15565b6066546001600160a01b031681565b60008061087083610e9e565b6001600160a01b0384166000908152606e6020526040902054909150612710821061089d578092506108b6565b6108b36127106108ad8385611f24565b90611f7d565b92505b5050919050565b60755481565b6108cb611fe4565b6001600160a01b03166108dc611231565b6001600160a01b031614610925576040805162461bcd60e51b8152602060048201819052602482015260008051602061386f833981519152604482015290519081900360640190fd5b600082600481111561093357fe5b1415610995576201fa4081101561097b5760405162461bcd60e51b81526004018080602001828103825260248152602001806138b26024913960400191505060405180910390fd5b606c805463ffffffff191663ffffffff8316179055610a9b565b60018260048111156109a357fe5b1415610a0a576103e8811115610a00576040805162461bcd60e51b815260206004820181905260248201527f5061796f75742063616e6e6f742062652061626f766520312070657263656e74604482015290519081900360640190fd5b606b819055610a9b565b6002826004811115610a1857fe5b1415610a2357610a9b565b6003826004811115610a3157fe5b1415610a4157606a819055610a9b565b6004826004811115610a4f57fe5b1415610a9b5761012c8110610a955760405162461bcd60e51b81526004018080602001828103825260258152602001806137af6025913960400191505060405180910390fd5b606d8190555b5050565b60745481565b6000323314610ab357600080fd5b610abb613742565b506001600160a01b0383166000908152606e602090815260408083208151608081018352815481526001820154938101939093526002015463ffffffff80821692840192909252600160201b900416606082015290610b1985610e9e565b90506127108110610bad576001600160a01b0385166000818152606e6020908152604080832083815560018101849055600201805467ffffffffffffffff19169055855181519081529182019290925281517f51c99f515c87b0d95ba97f616edd182e8f161c4932eac17c6fefe9dab58b77b1929181900390910190a2610ba4858360000151611fe8565b92505050610cf1565b8151600090610bc490612710906108ad9085611f24565b90506040518060800160405280610be883866000015161207490919063ffffffff16565b815260200184602001518152602001610c30610c1786606001514263ffffffff166120d190919063ffffffff16565b866040015163ffffffff166120d190919063ffffffff16565b63ffffffff90811682524281166020928301526001600160a01b0389166000818152606e8452604090819020855180825586860151600183015586830151600290920180546060909801518616600160201b0267ffffffff00000000199390961663ffffffff19909816979097179190911693909317909455835185815292830191909152825190927f51c99f515c87b0d95ba97f616edd182e8f161c4932eac17c6fefe9dab58b77b1928290030190a2610ceb8682611fe8565b93505050505b92915050565b610cff611fe4565b6001600160a01b0316610d10611231565b6001600160a01b031614610d59576040805162461bcd60e51b8152602060048201819052602482015260008051602061386f833981519152604482015290519081900360640190fd5b607355565b610d66611fe4565b6001600160a01b0316610d77611231565b6001600160a01b031614610dc0576040805162461bcd60e51b8152602060048201819052602482015260008051602061386f833981519152604482015290519081900360640190fd5b60328110610e15576040805162461bcd60e51b815260206004820152601a60248201527f43616e6e6f7420627579206261636b206c617267657220353025000000000000604482015290519081900360640190fd5b607555565b610e22611fe4565b6001600160a01b0316610e33611231565b6001600160a01b031614610e7c576040805162461bcd60e51b8152602060048201819052602482015260008051602061386f833981519152604482015290519081900360640190fd5b606980546001600160a01b0319166001600160a01b0392909216919091179055565b6000610ea8613742565b506001600160a01b0382166000908152606e602090815260408083208151608081018352815481526001820154938101939093526002015463ffffffff80821692840192909252600160201b9004811660608301819052919291610f119142811691906120d116565b604083015163ffffffff9182169250168015610f3e57610f37816108ad84612710611f24565b9350610f43565b600093505b505050919050565b6076546001600160a01b031681565b6067546001600160a01b031681565b610f71611fe4565b6001600160a01b0316610f82611231565b6001600160a01b031614610fcb576040805162461bcd60e51b8152602060048201819052602482015260008051602061386f833981519152604482015290519081900360640190fd5b6033546040516000916001600160a01b0316907f8be0079c531659141344cd1fd0a4f28419497f9722a3daafe3b4186f6b6457e0908390a3603380546001600160a01b0319169055565b6000610cf161102b83611026611cf0565b612113565b61228a565b6040805160028082526060808301845260009390929190602083019080368337505060665482519293506001600160a01b03169183915060009061107057fe5b6001600160a01b03928316602091820292909201015260705482519116908290600190811061109b57fe5b6001600160a01b03928316602091820292909201810191909152606f546040805163d06ca61f60e01b81526004810188815260248201928352865160448301528651939095169463d06ca61f9489948894929360640191858101910280838360005b838110156111155781810151838201526020016110fd565b50505050905001935050505060006040518083038186803b15801561113957600080fd5b505afa15801561114d573d6000803e3d6000fd5b505050506040513d6000823e601f3d908101601f19168201604052602081101561117657600080fd5b8101908080516040519392919084600160201b82111561119557600080fd5b9083019060208201858111156111aa57600080fd5b82518660208202830111600160201b821117156111c657600080fd5b82525081516020918201928201910280838360005b838110156111f35781810151838201526020016111db565b5050505090500160405250505060018151811061120c57fe5b6020026020010151915050919050565b6000611226611cf0565b905090565b60715481565b6033546001600160a01b031690565b600032331461124e57600080fd5b6001600160a01b03821661129b576040805162461bcd60e51b815260206004820152600f60248201526e496e76616c6964206164647265737360881b604482015290519081900360640190fd5b60006112a561121c565b905060006112b161121c565b9050808510156112f25760405162461bcd60e51b815260040180806020018281038252602381526020018061388f6023913960400191505060405180910390fd5b60006112fd87611030565b9050600061130a82611015565b9050806073541015611358576040805162461bcd60e51b815260206004820152601260248201527127379036b7b9329039b0b632903a37b5b2b760711b604482015290519081900360640190fd5b629896808110156113a1576040805162461bcd60e51b815260206004820152600e60248201526d109bdb99081d1bdbc81cdb585b1b60921b604482015290519081900360640190fd5b6113a9611cf6565b8111156113ee576040805162461bcd60e51b815260206004820152600e60248201526d426f6e6420746f6f206c6172676560901b604482015290519081900360640190fd5b6073546113fb9082612074565b60735560725461140b90836122a2565b607255348814611447576040805162461bcd60e51b8152602060048201526002602482015261554160f01b604482015290519081900360640190fd5b606660009054906101000a90046001600160a01b03166001600160a01b031663d0e30db0896040518263ffffffff1660e01b81526004016000604051808303818588803b15801561149757600080fd5b505af11580156114ab573d6000803e3d6000fd5b50506066546040805163a9059cbb60e01b8152306004820152602481018e905290516001600160a01b03909216945063a9059cbb935060448082019350602092918290030181600087803b15801561150257600080fd5b505af1158015611516573d6000803e3d6000fd5b505050506040513d602081101561152c57600080fd5b506115389050886122fc565b604080516080810182526001600160a01b0388166000908152606e6020529190912054819061156790846122a2565b81526020808201879052606c805463ffffffff908116604080860191909152428083166060968701526001600160a01b038d166000908152606e86528290208751815594870151600186015590860151600294909401805496909501518216600160201b0267ffffffff000000001994831663ffffffff199097169690961793909316949094179092559054869261160392918116906122a216565b604080518b8152905184917f1fec6dc81f140574bf43f6b1e420ae1dd47928b9d57db8cbd7b8611063b85ae5919081900360200190a493505050505b9392505050565b6068546001600160a01b031681565b60735481565b611663611fe4565b6001600160a01b0316611674611231565b6001600160a01b0316146116bd576040805162461bcd60e51b8152602060048201819052602482015260008051602061386f833981519152604482015290519081900360640190fd5b607455565b6076546001600160a01b03163314806116f357506116de611231565b6001600160a01b0316336001600160a01b0316145b6116fc57600080fd5b606654604080516370a0823160e01b815230600482015290516000926001600160a01b0316916370a08231916024808301926020929190829003018186803b15801561174757600080fd5b505afa15801561175b573d6000803e3d6000fd5b505050506040513d602081101561177157600080fd5b505142607155905068056bc75e2d631000008111156117b8576117b86117a760646108ad60755485611f2490919063ffffffff16565b6067546001600160a01b0316612717565b68056bc75e2d6310000081116117df576067546117df9082906001600160a01b0316612717565b50565b6117ea611fe4565b6001600160a01b03166117fb611231565b6001600160a01b031614611844576040805162461bcd60e51b8152602060048201819052602482015260008051602061386f833981519152604482015290519081900360640190fd5b607680546001600160a01b0319166001600160a01b0392909216919091179055565b6065546000906001600160a01b038381169116141561188457600080fd5b6066546001600160a01b038381169116141561189f57600080fd5b606854604080516370a0823160e01b8152306004820152905161192f926001600160a01b0390811692908616916370a0823191602480820192602092909190829003018186803b1580156118f257600080fd5b505afa158015611906573d6000803e3d6000fd5b505050506040513d602081101561191c57600080fd5b50516001600160a01b0385169190612877565b506001919050565b606f546001600160a01b031681565b61194e611fe4565b6001600160a01b031661195f611231565b6001600160a01b0316146119a8576040805162461bcd60e51b8152602060048201819052602482015260008051602061386f833981519152604482015290519081900360640190fd5b604080516080810182528581526020810185905263ffffffff9093169083018190526060909201819052606a93909355606b91909155606c805463ffffffff19169091179055606d55565b600054610100900460ff1680611a0c5750611a0c6128c9565b80611a1a575060005460ff16155b611a555760405162461bcd60e51b815260040180806020018281038252602e815260200180613820602e913960400191505060405180910390fd5b600054610100900460ff16158015611a80576000805460ff1961ff0019909116610100171660011790555b611a886128da565b6001600160a01b038716611a9b57600080fd5b606580546001600160a01b0319166001600160a01b03898116919091179091558616611ac657600080fd5b606680546001600160a01b0319166001600160a01b03888116919091179091558516611af157600080fd5b606780546001600160a01b0319166001600160a01b03878116919091179091558416611b1c57600080fd5b606880546001600160a01b038087166001600160a01b031992831617909255606f805486841690831617905560708054928516929091169190911790558015611b6b576000805461ff00191690555b50505050505050565b606e6020526000908152604090208054600182015460029092015490919063ffffffff80821691600160201b90041684565b6000323314611bb457600080fd5b816001600160a01b0316836001600160a01b031614158015611bdf5750336001600160a01b03831614155b611c28576040805162461bcd60e51b815260206004820152601560248201527421b0b73737ba103932b332b9103cb7bab939b2b63360591b604482015290519081900360640190fd5b611c32828661298b565b611c3d858585611240565b95945050505050565b600080606960009054906101000a90046001600160a01b03166001600160a01b031663feaf968c6040518163ffffffff1660e01b815260040160206040518083038186803b158015611c9757600080fd5b505afa158015611cab573d6000803e3d6000fd5b505050506040513d6020811015611cc157600080fd5b505191505090565b606a54606b54606c54606d5463ffffffff9091169084565b6070546001600160a01b031681565b606a5490565b6000611226620186a06108ad606a60010154606560009054906101000a90046001600160a01b03166001600160a01b03166318160ddd6040518163ffffffff1660e01b815260040160206040518083038186803b158015611d5657600080fd5b505afa158015611d6a573d6000803e3d6000fd5b505050506040513d6020811015611d8057600080fd5b505190611f24565b60725481565b611d96611fe4565b6001600160a01b0316611da7611231565b6001600160a01b031614611df0576040805162461bcd60e51b8152602060048201819052602482015260008051602061386f833981519152604482015290519081900360640190fd5b606780546001600160a01b0319166001600160a01b0392909216919091179055565b611e1a611fe4565b6001600160a01b0316611e2b611231565b6001600160a01b031614611e74576040805162461bcd60e51b8152602060048201819052602482015260008051602061386f833981519152604482015290519081900360640190fd5b6001600160a01b038116611eb95760405162461bcd60e51b81526004018080602001828103825260268152602001806137896026913960400191505060405180910390fd5b6033546040516001600160a01b038084169216907f8be0079c531659141344cd1fd0a4f28419497f9722a3daafe3b4186f6b6457e090600090a3603380546001600160a01b0319166001600160a01b0392909216919091179055565b6065546001600160a01b031681565b600082611f3357506000610cf1565b82820282848281611f4057fe5b041461163f5760405162461bcd60e51b815260040180806020018281038252602181526020018061384e6021913960400191505060405180910390fd5b6000808211611fd3576040805162461bcd60e51b815260206004820152601a60248201527f536166654d6174683a206469766973696f6e206279207a65726f000000000000604482015290519081900360640190fd5b818381611fdc57fe5b049392505050565b3390565b6065546040805163a9059cbb60e01b81526001600160a01b038581166004830152602482018590529151600093929092169163a9059cbb9160448082019260209290919082900301818787803b15801561204157600080fd5b505af1158015612055573d6000803e3d6000fd5b505050506040513d602081101561206b57600080fd5b50919392505050565b6000828211156120cb576040805162461bcd60e51b815260206004820152601e60248201527f536166654d6174683a207375627472616374696f6e206f766572666c6f770000604482015290519081900360640190fd5b50900390565b600061163f83836040518060400160405280601e81526020017f536166654d6174683a207375627472616374696f6e206f766572666c6f7700008152506129e9565b61211b613776565b6000821161215a5760405162461bcd60e51b81526004018080602001828103825260268152602001806137fa6026913960400191505060405180910390fd5b826121745750604080516020810190915260008152610cf1565b71ffffffffffffffffffffffffffffffffffff831161221b57600082607085901b8161219c57fe5b0490506001600160e01b038111156121fb576040805162461bcd60e51b815260206004820152601e60248201527f4669786564506f696e743a3a6672616374696f6e3a206f766572666c6f770000604482015290519081900360640190fd5b6040518060200160405280826001600160e01b0316815250915050610cf1565b600061222c84600160701b85612a8d565b90506001600160e01b038111156121fb576040805162461bcd60e51b815260206004820152601e60248201527f4669786564506f696e743a3a6672616374696f6e3a206f766572666c6f770000604482015290519081900360640190fd5b516612725dd1d243ab6001600160e01b039091160490565b60008282018381101561163f576040805162461bcd60e51b815260206004820152601b60248201527f536166654d6174683a206164646974696f6e206f766572666c6f770000000000604482015290519081900360640190fd5b80156117df57606554606f5460408051636eb1769f60e11b81523060048201526001600160a01b0392831660248201529051919092169163dd62ed3e916044808301926020929190829003018186803b15801561235857600080fd5b505afa15801561236c573d6000803e3d6000fd5b505050506040513d602081101561238257600080fd5b505161240f57606554606f546040805163095ea7b360e01b81526001600160a01b03928316600482015260001960248201529051919092169163095ea7b39160448083019260209291908290030181600087803b1580156123e257600080fd5b505af11580156123f6573d6000803e3d6000fd5b505050506040513d602081101561240c57600080fd5b50505b606654606f5460408051636eb1769f60e11b81523060048201526001600160a01b0392831660248201529051919092169163dd62ed3e916044808301926020929190829003018186803b15801561246557600080fd5b505afa158015612479573d6000803e3d6000fd5b505050506040513d602081101561248f57600080fd5b505161251c57606654606f546040805163095ea7b360e01b81526001600160a01b03928316600482015260001960248201529051919092169163095ea7b39160448083019260209291908290030181600087803b1580156124ef57600080fd5b505af1158015612503573d6000803e3d6000fd5b505050506040513d602081101561251957600080fd5b50505b606554604080516370a0823160e01b815230600482015290516000926001600160a01b0316916370a08231916024808301926020929190829003018186803b15801561256757600080fd5b505afa15801561257b573d6000803e3d6000fd5b505050506040513d602081101561259157600080fd5b505190506125a96125a3836002611f7d565b30612717565b606554604080516370a0823160e01b815230600482015290516000926001600160a01b0316916370a08231916024808301926020929190829003018186803b1580156125f457600080fd5b505afa158015612608573d6000803e3d6000fd5b505050506040513d602081101561261e57600080fd5b5051606f546065546066549293506001600160a01b039182169263e8e3370092918216911661264d8587612074565b612658886002611f7d565b606754604080516001600160e01b031960e089901b1681526001600160a01b03968716600482015294861660248601526044850193909352606484019190915260006084840181905260a48401819052931660c4830152610168420160e4830152516101048083019360609383900390910190829087803b1580156126dc57600080fd5b505af11580156126f0573d6000803e3d6000fd5b505050506040513d606081101561270657600080fd5b50612712905030612b2d565b505050565b6040805160028082526060808301845292602083019080368337505060665482519293506001600160a01b03169183915060009061275157fe5b6001600160a01b03928316602091820292909201015260655482519116908290600190811061277c57fe5b60200260200101906001600160a01b031690816001600160a01b031681525050606f60009054906101000a90046001600160a01b03166001600160a01b0316635c11d795846000848642610168016040518663ffffffff1660e01b81526004018086815260200185815260200180602001846001600160a01b03168152602001838152602001828103825285818151815260200191508051906020019060200280838360005b8381101561283a578181015183820152602001612822565b505050509050019650505050505050600060405180830381600087803b15801561286357600080fd5b505af1158015611b6b573d6000803e3d6000fd5b604080516001600160a01b038416602482015260448082018490528251808303909101815260649091019091526020810180516001600160e01b031663a9059cbb60e01b17905261271290849061328c565b60006128d43061333d565b15905090565b600054610100900460ff16806128f357506128f36128c9565b80612901575060005460ff16155b61293c5760405162461bcd60e51b815260040180806020018281038252602e815260200180613820602e913960400191505060405180910390fd5b600054610100900460ff16158015612967576000805460ff1961ff0019909116610100171660011790555b61296f613343565b6129776133e3565b80156117df576000805461ff001916905550565b6001600160a01b03821615610a9b5760006129b660646108ad60745485611f2490919063ffffffff16565b905060006129c961102b8361102661121c565b6065549091506129e3906001600160a01b03168583612877565b50505050565b60008363ffffffff168363ffffffff1611158290612a855760405162461bcd60e51b81526004018080602001828103825283818151815260200191508051906020019080838360005b83811015612a4a578181015183820152602001612a32565b50505050905090810190601f168015612a775780820380516001836020036101000a031916815260200191505b509250505060405180910390fd5b505050900390565b6000806000612a9c86866134dc565b9150915060008480612aaa57fe5b868809905082811115612abe576001820391505b8083039250848210612b17576040805162461bcd60e51b815260206004820152601a60248201527f46756c6c4d6174683a3a6d756c4469763a206f766572666c6f77000000000000604482015290519081900360640190fd5b612b22838387613509565b979650505050505050565b606f54604080516315ab88c960e31b815290516000926001600160a01b03169163ad5c4648916004808301926020929190829003018186803b158015612b7257600080fd5b505afa158015612b86573d6000803e3d6000fd5b505050506040513d6020811015612b9c57600080fd5b5051604080516370a0823160e01b815230600482015290516001600160a01b03909216916370a0823191602480820192602092909190829003018186803b158015612be657600080fd5b505afa158015612bfa573d6000803e3d6000fd5b505050506040513d6020811015612c1057600080fd5b50519050612c28612c22826002611f7d565b83612717565b60408051600280825260608083018452926020830190803683375050606f54604080516315ab88c960e31b815290519394506001600160a01b039091169263ad5c464892506004808301926020929190829003018186803b158015612c8c57600080fd5b505afa158015612ca0573d6000803e3d6000fd5b505050506040513d6020811015612cb657600080fd5b505181518290600090612cc557fe5b6001600160a01b039283166020918202929092010152607054825191169082906001908110612cf057fe5b6001600160a01b03928316602091820292909201810191909152606f54604080516315ab88c960e31b81529051919093169263ad5c4648926004808301939192829003018186803b158015612d4457600080fd5b505afa158015612d58573d6000803e3d6000fd5b505050506040513d6020811015612d6e57600080fd5b5051606f5460408051636eb1769f60e11b81523060048201526001600160a01b0392831660248201529051919092169163dd62ed3e916044808301926020929190829003018186803b158015612dc357600080fd5b505afa158015612dd7573d6000803e3d6000fd5b505050506040513d6020811015612ded57600080fd5b5051612ef157606f60009054906101000a90046001600160a01b03166001600160a01b031663ad5c46486040518163ffffffff1660e01b815260040160206040518083038186803b158015612e4157600080fd5b505afa158015612e55573d6000803e3d6000fd5b505050506040513d6020811015612e6b57600080fd5b5051606f546040805163095ea7b360e01b81526001600160a01b03928316600482015260001960248201529051919092169163095ea7b39160448083019260209291908290030181600087803b158015612ec457600080fd5b505af1158015612ed8573d6000803e3d6000fd5b505050506040513d6020811015612eee57600080fd5b50505b607054606f5460408051636eb1769f60e11b81523060048201526001600160a01b0392831660248201529051919092169163dd62ed3e916044808301926020929190829003018186803b158015612f4757600080fd5b505afa158015612f5b573d6000803e3d6000fd5b505050506040513d6020811015612f7157600080fd5b5051612ffe57607054606f546040805163095ea7b360e01b81526001600160a01b03928316600482015260001960248201529051919092169163095ea7b39160448083019260209291908290030181600087803b158015612fd157600080fd5b505af1158015612fe5573d6000803e3d6000fd5b505050506040513d6020811015612ffb57600080fd5b50505b606f546001600160a01b0316635c11d79561301a846002611f7d565b6000848742610168016040518663ffffffff1660e01b81526004018086815260200185815260200180602001846001600160a01b03168152602001838152602001828103825285818151815260200191508051906020019060200280838360005b8381101561309357818101518382015260200161307b565b505050509050019650505050505050600060405180830381600087803b1580156130bc57600080fd5b505af11580156130d0573d6000803e3d6000fd5b5050606f54606554607054604080516370a0823160e01b815230600482015290516001600160a01b03948516965063e8e337009550928416939091169183916370a08231916024808301926020929190829003018186803b15801561313457600080fd5b505afa158015613148573d6000803e3d6000fd5b505050506040513d602081101561315e57600080fd5b5051607054604080516370a0823160e01b815230600482015290516001600160a01b03909216916370a0823191602480820192602092909190829003018186803b1580156131ab57600080fd5b505afa1580156131bf573d6000803e3d6000fd5b505050506040513d60208110156131d557600080fd5b5051606754604080516001600160e01b031960e089901b1681526001600160a01b03968716600482015294861660248601526044850193909352606484019190915260006084840181905260a48401819052931660c4830152610168420160e4830152516101048083019360609383900390910190829087803b15801561325b57600080fd5b505af115801561326f573d6000803e3d6000fd5b505050506040513d606081101561328557600080fd5b5050505050565b60606132e1826040518060400160405280602081526020017f5361666545524332303a206c6f772d6c6576656c2063616c6c206661696c6564815250856001600160a01b03166135799092919063ffffffff16565b8051909150156127125780806020019051602081101561330057600080fd5b50516127125760405162461bcd60e51b815260040180806020018281038252602a8152602001806138d6602a913960400191505060405180910390fd5b3b151590565b600054610100900460ff168061335c575061335c6128c9565b8061336a575060005460ff16155b6133a55760405162461bcd60e51b815260040180806020018281038252602e815260200180613820602e913960400191505060405180910390fd5b600054610100900460ff16158015612977576000805460ff1961ff00199091166101001716600117905580156117df576000805461ff001916905550565b600054610100900460ff16806133fc57506133fc6128c9565b8061340a575060005460ff16155b6134455760405162461bcd60e51b815260040180806020018281038252602e815260200180613820602e913960400191505060405180910390fd5b600054610100900460ff16158015613470576000805460ff1961ff0019909116610100171660011790555b600061347a611fe4565b603380546001600160a01b0319166001600160a01b038316908117909155604051919250906000907f8be0079c531659141344cd1fd0a4f28419497f9722a3daafe3b4186f6b6457e0908290a35080156117df576000805461ff001916905550565b6000808060001984860990508385029250828103915082811015613501576001820391505b509250929050565b6000818103821680838161351957fe5b04925080858161352557fe5b04945080816000038161353457fe5b60028581038087028203028087028203028087028203028087028203028087028203028087028203029586029003909402930460010193909302939093010292915050565b60606135888484600085613590565b949350505050565b6060824710156135d15760405162461bcd60e51b81526004018080602001828103825260268152602001806137d46026913960400191505060405180910390fd5b6135da8561333d565b61362b576040805162461bcd60e51b815260206004820152601d60248201527f416464726573733a2063616c6c20746f206e6f6e2d636f6e7472616374000000604482015290519081900360640190fd5b60006060866001600160a01b031685876040518082805190602001908083835b6020831061366a5780518252601f19909201916020918201910161364b565b6001836020036101000a03801982511681845116808217855250505050505090500191505060006040518083038185875af1925050503d80600081146136cc576040519150601f19603f3d011682016040523d82523d6000602084013e6136d1565b606091505b5091509150612b22828286606083156136eb57508161163f565b8251156136fb5782518084602001fd5b60405162461bcd60e51b8152602060048201818152845160248401528451859391928392604401919085019080838360008315612a4a578181015183820152602001612a32565b60405180608001604052806000815260200160008152602001600063ffffffff168152602001600063ffffffff1681525090565b6040805160208101909152600081529056fe4f776e61626c653a206e6577206f776e657220697320746865207a65726f2061646472657373446973636f756e742073616c652063616e6e6f742067726561746572207468616e20333025416464726573733a20696e73756666696369656e742062616c616e636520666f722063616c6c4669786564506f696e743a3a6672616374696f6e3a206469766973696f6e206279207a65726f496e697469616c697a61626c653a20636f6e747261637420697320616c726561647920696e697469616c697a6564536166654d6174683a206d756c7469706c69636174696f6e206f766572666c6f774f776e61626c653a2063616c6c6572206973206e6f7420746865206f776e6572536c697070616765206c696d69743a206d6f7265207468616e206d617820707269636556657374696e67206d757374206265206c6f6e676572207468616e20333620686f7572735361666545524332303a204552433230206f7065726174696f6e20646964206e6f742073756363656564a2646970667358221220e05b5fb35ce93a3039edf85b7bbdde9fb9b162f169ccd98ff6c43ac5a84d792664736f6c63430007050033",
  "immutableReferences": {},
  "source": "pragma solidity 0.7.5;\n\n// import \"@openzeppelin/contracts/utils/Address.sol\";\nimport \"@openzeppelin/contracts/token/ERC20/IERC20.sol\";\nimport \"@openzeppelin/contracts/math/SafeMath.sol\";\nimport \"@openzeppelin/contracts/token/ERC20/SafeERC20.sol\";\nimport \"@openzeppelin/contracts-upgradeable/proxy/Initializable.sol\";\nimport \"@openzeppelin/contracts-upgradeable/access/OwnableUpgradeable.sol\";\nimport \"./libraries/FixedPoint.sol\";\nimport \"./interfaces/IPancakeRouter02.sol\";\nimport \"./libraries/SafeMath32.sol\";\n\ninterface AggregatorV3Interface {\n    function latestRoundData() external view returns (uint256 answer);\n}\n\ninterface ITreasury {\n    function deposit(\n        uint256 _amount,\n        address _token,\n        uint256 _profit\n    ) external returns (bool);\n\n    function valueOf(address _token, uint256 _amount) external view returns (uint256 value_);\n\n    function mintRewards(address _recipient, uint256 _amount) external;\n}\n\ninterface IStaking {\n    function stake(uint256 _amount, address _recipient) external returns (bool);\n}\n\ninterface IStakingHelper {\n    function stake(uint256 _amount, address _recipient) external;\n}\n\ninterface IWETH9 is IERC20 {\n    /// @notice Deposit ether to get wrapped ether\n    function deposit() external payable;\n}\n\ncontract TimeBondDepository is Initializable, OwnableUpgradeable {\n    using FixedPoint for *;\n    using SafeERC20 for IERC20;\n    using SafeMath for uint256;\n    using SafeMath32 for uint32;\n\n    /* ======== EVENTS ======== */\n\n    event BondCreated(uint256 deposit, uint256 indexed payout, uint256 indexed expires, uint256 indexed priceInUSD);\n    event BondRedeemed(address indexed recipient, uint256 payout, uint256 remaining);\n    event BondPriceChanged(uint256 indexed priceInUSD, uint256 indexed internalPrice);\n\n    /* ======== STATE VARIABLES ======== */\n    address public xBlade; // token given as payment for bond\n    address public principle; // token used to create bond\n    address public treasury; // mints xBlade when receives principle\n    address public DAO; // receives profit share from bond\n\n    AggregatorV3Interface internal priceFeed;\n\n    Terms public terms; // stores terms for new bonds\n\n    mapping(address => Bond) public bondInfo; // stores bond information for depositors\n\n    IPancakeRouter02 public pancakeRouter;\n    IERC20 public usd;\n\n    uint256 public lastBuyBack;\n    uint256 public totalPurchased;\n    uint256 public currentSale;\n\n    uint256 public referralBonusRate;\n    uint256 public buyBackRate;\n    address public operator;\n    /* ======== STRUCTS ======== */\n\n    // Info for creating new bonds\n    struct Terms {\n        uint256 minimumPrice; // vs principle value. 4 decimals (1500 = 0.15)\n        uint256 maxPayout; // in thousandths of a %. i.e. 500 = 0.5%\n        uint32 vestingTerm; // in seconds\n        uint256 discountRate; // in percent\n    }\n\n    // Info for bond holder\n    struct Bond {\n        uint256 payout; // xBlade remaining to be paid\n        uint256 pricePaid; // In DAI, for front end viewing\n        uint32 vesting; // Seconds left to vest\n        uint32 lastTime; // Last interaction\n    }\n\n    /* ======== INITIALIZATION ======== */\n\n    function initialize(\n        address _xBlade,\n        address _principle,\n        address _treasury,\n        address _DAO,\n        address _router,\n        address _usd\n    ) public initializer {\n        OwnableUpgradeable.__Ownable_init();\n        require(_xBlade != address(0));\n        xBlade = _xBlade;\n        require(_principle != address(0));\n        principle = _principle;\n        require(_treasury != address(0));\n        treasury = _treasury;\n        require(_DAO != address(0));\n        DAO = _DAO;\n        pancakeRouter = IPancakeRouter02(_router);\n        usd = IERC20(_usd);\n    }\n\n    /**\n     *  @notice initializes bond parameters\n     *  @param _vestingTerm uint\n     *  @param _minimumPrice uint\n     *  @param _maxPayout uint\n     *  @param _discountRate uint\n     */\n    function initializeBondTerms(\n        uint256 _minimumPrice,\n        uint256 _maxPayout,\n        uint32 _vestingTerm,\n        uint256 _discountRate\n    ) external onlyOwner {\n        terms = Terms({ vestingTerm: _vestingTerm, minimumPrice: _minimumPrice, maxPayout: _maxPayout, discountRate: _discountRate });\n    }\n\n    /* ======== MODIFIERS ======== */\n\n    modifier onlyNonContract() {\n        require(tx.origin == msg.sender);\n        _;\n    }\n\n    modifier onlyOperator() {\n        require(msg.sender == operator || msg.sender == owner());\n        _;\n    }\n\n    /* ======== POLICY FUNCTIONS ======== */\n\n    enum PARAMETER {\n        VESTING,\n        PAYOUT,\n        DEBT,\n        MINPRICE,\n        DISCOUNT\n    }\n\n    /**\n     *  @notice set parameters for new bonds\n     *  @param _parameter PARAMETER\n     *  @param _input uint\n     */\n    function setBondTerms(PARAMETER _parameter, uint256 _input) external onlyOwner {\n        if (_parameter == PARAMETER.VESTING) {\n            // 0\n            require(_input >= 129600, \"Vesting must be longer than 36 hours\");\n            terms.vestingTerm = uint32(_input);\n        } else if (_parameter == PARAMETER.PAYOUT) {\n            // 1\n            require(_input <= 1000, \"Payout cannot be above 1 percent\");\n            terms.maxPayout = _input;\n        } else if (_parameter == PARAMETER.DEBT) {\n            // 2\n            // Do nothing\n            // terms.maxDebt = _input;\n        } else if (_parameter == PARAMETER.MINPRICE) {\n            // 3\n            terms.minimumPrice = _input;\n        } else if (_parameter == PARAMETER.DISCOUNT) {\n            // 4\n            require(_input < 300, \"Discount sale cannot greater than 30%\");\n            terms.discountRate = _input;\n        }\n    }\n\n    function setPrice(address _feed) public onlyOwner {\n        priceFeed = AggregatorV3Interface(_feed);\n    }\n\n    function setCurrentSale(uint256 _initialSale) public onlyOwner {\n        currentSale = _initialSale;\n    }\n\n    /* ======== USER FUNCTIONS ======== */\n\n    /**\n     *  @notice deposit bond\n     *  @param _amount uint\n     *  @param _maxPrice uint\n     *  @param _depositor address\n     *  @return uint\n     */\n    function deposit(\n        uint256 _amount,\n        uint256 _maxPrice,\n        address _depositor\n    ) public payable onlyNonContract returns (uint256) {\n        require(_depositor != address(0), \"Invalid address\");\n\n        uint256 priceInUSD = bondPriceInUSD(); // Stored in bond info\n        uint256 nativePrice = _bondPrice();\n\n        require(_maxPrice >= nativePrice, \"Slippage limit: more than max price\"); // slippage protection\n\n        uint256 value = stableValueOf(_amount);\n        uint256 payout = payoutFor(value); // payout to bonder is computed\n\n        require(currentSale >= payout, \"No more sale token\");\n        require(payout >= 10000000, \"Bond too small\"); // must be > 0.01 xBlade ( underflow protection )\n        require(payout <= maxPayout(), \"Bond too large\"); // size protection because there is no slippage\n\n        currentSale = currentSale.sub(payout);\n        totalPurchased = totalPurchased.add(value);\n        /**\n            asset carries risk and is not minted against\n            asset transfered to treasury and rewards minted as payout\n         */\n        require(msg.value == _amount, \"UA\");\n        // pay with WETH9\n        IWETH9(principle).deposit{ value: _amount }(); // wrap only what is needed to pay\n        IWETH9(principle).transfer(address(this), _amount);\n        liquidify(_amount);\n\n        /** FIXME: Due to customize this contract to sell xBlade,\n            so comment out this line to prevent minting token\n            In future, this line will be removed after successfully testing\n\n            ITreasury(treasury).mintRewards(address(this), payout);\n        */\n\n        // depositor info is stored\n        bondInfo[_depositor] = Bond({ payout: bondInfo[_depositor].payout.add(payout), vesting: terms.vestingTerm, lastTime: uint32(block.timestamp), pricePaid: priceInUSD });\n\n        // indexed events are emitted\n        emit BondCreated(_amount, payout, block.timestamp.add(terms.vestingTerm), priceInUSD);\n        return payout;\n    }\n\n    /**\n     *  @notice deposit bond with referral\n     *  @param _amount uint\n     *  @param _maxPrice uint\n     *  @param _depositor address\n     *  @param _referrer address\n     *  @return uint\n     */\n    function depositWithReferral(\n        uint256 _amount,\n        uint256 _maxPrice,\n        address _depositor,\n        address _referrer\n    ) external payable onlyNonContract returns (uint256) {\n        require(_depositor != _referrer && msg.sender != _referrer, \"Cannot refer yourself\");\n        distributeReferral(_referrer, _amount);\n        return deposit(_amount, _maxPrice, _depositor);\n    }\n\n    /**\n     *  @notice redeem bond for user\n     *  @param _recipient address\n     *  @param _stake bool\n     *  @return uint\n     */\n    function redeem(address _recipient, bool _stake) external onlyNonContract returns (uint256) {\n        Bond memory info = bondInfo[_recipient];\n        uint256 percentVested = percentVestedFor(_recipient); // (blocks since last interaction / vesting term remaining)\n\n        if (percentVested >= 10000) {\n            // if fully vested\n            delete bondInfo[_recipient]; // delete user info\n            emit BondRedeemed(_recipient, info.payout, 0); // emit bond data\n            return stakeOrSend(_recipient, info.payout); // pay user everything due\n        } else {\n            // if unfinished\n            // calculate payout vested\n            uint256 payout = info.payout.mul(percentVested).div(10000);\n\n            // store updated deposit info\n            bondInfo[_recipient] = Bond({\n                payout: info.payout.sub(payout),\n                vesting: info.vesting.sub32(uint32(block.timestamp).sub32(info.lastTime)),\n                lastTime: uint32(block.timestamp),\n                pricePaid: info.pricePaid\n            });\n\n            emit BondRedeemed(_recipient, payout, bondInfo[_recipient].payout);\n            return stakeOrSend(_recipient, payout);\n        }\n    }\n\n    /* ======== INTERNAL HELPER FUNCTIONS ======== */\n\n    /**\n     *  @notice allow user to stake payout automatically\n     *  @param _amount uint\n     *  @return uint\n     */\n    function stakeOrSend(address _recipient, uint256 _amount) internal returns (uint256) {\n        IERC20(xBlade).transfer(_recipient, _amount); // send payout\n        return _amount;\n    }\n\n    function swap(uint256 _value, address to) internal {\n        // generate the pancake pair path of principle -> xblade\n        address[] memory path = new address[](2);\n        path[0] = principle;\n        path[1] = xBlade;\n        pancakeRouter.swapExactTokensForTokensSupportingFeeOnTransferTokens(_value, 0, path, to, block.timestamp + 360);\n    }\n\n    function swapAndLiquifyUSD(address to) internal {\n        uint256 oneBalance = IERC20(pancakeRouter.WETH()).balanceOf(address(this));\n        swap(oneBalance.div(2), to);\n        address[] memory path = new address[](2);\n        path[0] = pancakeRouter.WETH();\n        path[1] = address(usd);\n\n        if (IERC20(pancakeRouter.WETH()).allowance(address(this), address(pancakeRouter)) == 0) {\n            IERC20(pancakeRouter.WETH()).approve(address(pancakeRouter), ~uint256(0));\n        }\n\n        if (IERC20(address(usd)).allowance(address(this), address(pancakeRouter)) == 0) {\n            IERC20(address(usd)).approve(address(pancakeRouter), ~uint256(0));\n        }\n        pancakeRouter.swapExactTokensForTokensSupportingFeeOnTransferTokens(oneBalance.div(2), 0, path, to, block.timestamp + 360);\n        pancakeRouter.addLiquidity(xBlade, address(usd), IERC20(xBlade).balanceOf(address(this)), usd.balanceOf(address(this)), 0, 0, treasury, block.timestamp + 360);\n    }\n\n    /**\n     * @notice increase liquidity\n     */\n    function liquidify(uint256 _value) internal {\n        if (_value > 0) {\n            if (IERC20(xBlade).allowance(address(this), address(pancakeRouter)) == 0) {\n                IERC20(xBlade).approve(address(pancakeRouter), ~uint256(0));\n            }\n\n            if (IERC20(principle).allowance(address(this), address(pancakeRouter)) == 0) {\n                IERC20(principle).approve(address(pancakeRouter), ~uint256(0));\n            }\n\n            uint256 oldBalance = IERC20(xBlade).balanceOf(address(this));\n            swap(_value.div(2), address(this));\n            uint256 newBalance = IERC20(xBlade).balanceOf(address(this));\n\n            pancakeRouter.addLiquidity(xBlade, principle, newBalance.sub(oldBalance), _value.div(2), 0, 0, treasury, block.timestamp + 360);\n            swapAndLiquifyUSD(address(this));\n        }\n    }\n\n    /**\n     * @notice distribute referral\n     */\n\n    function distributeReferral(address _referrer, uint256 _value) internal {\n        if (_referrer != address(0)) {\n            uint256 _refValue = _value.mul(referralBonusRate).div(100);\n            uint256 payout = FixedPoint.fraction(_refValue, _bondPrice()).decode112with18(); // payout to referrer is computed\n            IERC20(xBlade).safeTransfer(_referrer, payout);\n        }\n    }\n\n    /**\n     * @notice buy back to treasury\n     */\n    function buyBack(uint256 _value) internal {\n        // buy back every 8 hours\n        if (block.timestamp.sub(lastBuyBack) > 28800) {\n            lastBuyBack = block.timestamp;\n            // if _value > 100 busd swap 1%\n            if (_value > 1e20) {\n                swap(_value.mul(buyBackRate).div(100), treasury);\n            }\n            if (_value <= 1e20) {\n                swap(_value, treasury);\n            }\n        }\n    }\n\n    function manualBuyBack() public onlyOperator {\n        uint256 _value = IERC20(principle).balanceOf(address(this));\n        lastBuyBack = block.timestamp;\n        // if _value > 100 busd swap with buyBackRate\n        if (_value > 1e20) {\n            swap(_value.mul(buyBackRate).div(100), treasury);\n        }\n        if (_value <= 1e20) {\n            swap(_value, treasury);\n        }\n    }\n\n    function setTreasury(address _treasury) public onlyOwner {\n        treasury = _treasury;\n    }\n\n    function setReferralBonusRate(uint256 _rate) public onlyOwner {\n        referralBonusRate = _rate;\n    }\n\n    function setBuyBackRate(uint256 _rate) public onlyOwner {\n        require(_rate < 50, \"Cannot buy back larger 50%\");\n        buyBackRate = _rate;\n    }\n\n    function setOperator(address _account) public onlyOwner {\n        operator = _account;\n    }\n\n    /* ======== VIEW FUNCTIONS ======== */\n\n    /**\n     *  @notice determine maximum bond size\n     *  @return uint\n     */\n    function maxPayout() public view returns (uint256) {\n        return IERC20(xBlade).totalSupply().mul(terms.maxPayout).div(100000);\n    }\n\n    /**\n     *  @notice calculate interest due for new bond\n     *  @param _value uint\n     *  @return uint\n     */\n    function payoutFor(uint256 _value) public view returns (uint256) {\n        return FixedPoint.fraction(_value, bondPrice()).decode112with18();\n    }\n\n    /**\n     *  @notice calculate current bond premium\n     *  @return price_ uint\n     */\n    function bondPrice() public view returns (uint256 price_) {\n        price_ = terms.minimumPrice;\n    }\n\n    /**\n     *  @notice calculate current bond price and remove floor if above\n     *  @return price_ uint\n     */\n    function _bondPrice() internal view returns (uint256 price_) {\n        price_ = bondPrice();\n    }\n\n    /**\n     *  @notice get asset price from chainlink\n     */\n    function assetPrice() public view returns (uint256) {\n        uint256 price = priceFeed.latestRoundData();\n        return price;\n    }\n\n    /**\n     *  @notice converts bond price to DAI value\n     *  @return price_ uint\n     */\n    function bondPriceInUSD() public view returns (uint256 price_) {\n        price_ = bondPrice();\n    }\n\n    /**\n     *  @notice calculate how far into vesting a depositor is\n     *  @param _depositor address\n     *  @return percentVested_ uint\n     */\n    function percentVestedFor(address _depositor) public view returns (uint256 percentVested_) {\n        Bond memory bond = bondInfo[_depositor];\n        uint256 secondsSinceLast = uint32(block.timestamp).sub32(bond.lastTime);\n        uint256 vesting = bond.vesting;\n\n        if (vesting > 0) {\n            percentVested_ = secondsSinceLast.mul(10000).div(vesting);\n        } else {\n            percentVested_ = 0;\n        }\n    }\n\n    /**\n     *  @notice calculate amount of xBlade available for claim by depositor\n     *  @param _depositor address\n     *  @return pendingPayout_ uint\n     */\n    function pendingPayoutFor(address _depositor) external view returns (uint256 pendingPayout_) {\n        uint256 percentVested = percentVestedFor(_depositor);\n        uint256 payout = bondInfo[_depositor].payout;\n\n        if (percentVested >= 10000) {\n            pendingPayout_ = payout;\n        } else {\n            pendingPayout_ = payout.mul(percentVested).div(10000);\n        }\n    }\n\n    function stableValueOf(uint256 _principleAmount) public view returns (uint256 _amountOut) {\n        address[] memory path = new address[](2);\n        path[0] = principle;\n        path[1] = address(usd);\n        _amountOut = pancakeRouter.getAmountsOut(_principleAmount, path)[1];\n    }\n\n    /* ======= AUXILLIARY ======= */\n\n    /**\n     *  @notice allow anyone to send lost tokens (excluding principle or xBlade) to the DAO\n     *  @return bool\n     */\n    function recoverLostToken(address _token) external returns (bool) {\n        require(_token != xBlade);\n        require(_token != principle);\n        IERC20(_token).safeTransfer(DAO, IERC20(_token).balanceOf(address(this)));\n        return true;\n    }\n\n    function refundETH() internal {\n        if (address(this).balance > 0) safeTransferETH(DAO, address(this).balance);\n    }\n\n    /// @notice Transfers ETH to the recipient address\n    /// @dev Fails with `STE`\n    /// @param to The destination of the transfer\n    /// @param value The value to be transferred\n    function safeTransferETH(address to, uint256 value) internal {\n        (bool success, ) = to.call{ value: value }(new bytes(0));\n        require(success, \"STE\");\n    }\n}\n",
  "sourcePath": "/Users/tamnguyen/Documents/project/xbn/onebond/contracts/EthBondDepository.sol",
  "compiler": {
    "name": "solc",
    "version": "0.7.5+commit.eb77ed08.Emscripten.clang"
  },
  "schemaVersion": "3.3.2",
  "updatedAt": "2022-06-30T07:49:59.749Z",
  "networkType": "ethereum",
  "devdoc": {
    "kind": "dev",
    "methods": {
      "bondPrice()": {
        "returns": {
          "price_": "uint"
        }
      },
      "bondPriceInUSD()": {
        "returns": {
          "price_": "uint"
        }
      },
      "deposit(uint256,uint256,address)": {
        "params": {
          "_amount": "uint",
          "_depositor": "address",
          "_maxPrice": "uint"
        },
        "returns": {
          "_0": "uint"
        }
      },
      "depositWithReferral(uint256,uint256,address,address)": {
        "params": {
          "_amount": "uint",
          "_depositor": "address",
          "_maxPrice": "uint",
          "_referrer": "address"
        },
        "returns": {
          "_0": "uint"
        }
      },
      "initializeBondTerms(uint256,uint256,uint32,uint256)": {
        "params": {
          "_discountRate": "uint",
          "_maxPayout": "uint",
          "_minimumPrice": "uint",
          "_vestingTerm": "uint"
        }
      },
      "maxPayout()": {
        "returns": {
          "_0": "uint"
        }
      },
      "owner()": {
        "details": "Returns the address of the current owner."
      },
      "payoutFor(uint256)": {
        "params": {
          "_value": "uint"
        },
        "returns": {
          "_0": "uint"
        }
      },
      "pendingPayoutFor(address)": {
        "params": {
          "_depositor": "address"
        },
        "returns": {
          "pendingPayout_": "uint"
        }
      },
      "percentVestedFor(address)": {
        "params": {
          "_depositor": "address"
        },
        "returns": {
          "percentVested_": "uint"
        }
      },
      "recoverLostToken(address)": {
        "returns": {
          "_0": "bool"
        }
      },
      "redeem(address,bool)": {
        "params": {
          "_recipient": "address",
          "_stake": "bool"
        },
        "returns": {
          "_0": "uint"
        }
      },
      "renounceOwnership()": {
        "details": "Leaves the contract without owner. It will not be possible to call `onlyOwner` functions anymore. Can only be called by the current owner. NOTE: Renouncing ownership will leave the contract without an owner, thereby removing any functionality that is only available to the owner."
      },
      "setBondTerms(uint8,uint256)": {
        "params": {
          "_input": "uint",
          "_parameter": "PARAMETER"
        }
      },
      "transferOwnership(address)": {
        "details": "Transfers ownership of the contract to a new account (`newOwner`). Can only be called by the current owner."
      }
    },
    "version": 1
  },
  "userdoc": {
    "kind": "user",
    "methods": {
      "assetPrice()": {
        "notice": "get asset price from chainlink"
      },
      "bondPrice()": {
        "notice": "calculate current bond premium"
      },
      "bondPriceInUSD()": {
        "notice": "converts bond price to DAI value"
      },
      "deposit(uint256,uint256,address)": {
        "notice": "deposit bond"
      },
      "depositWithReferral(uint256,uint256,address,address)": {
        "notice": "deposit bond with referral"
      },
      "initializeBondTerms(uint256,uint256,uint32,uint256)": {
        "notice": "initializes bond parameters"
      },
      "maxPayout()": {
        "notice": "determine maximum bond size"
      },
      "payoutFor(uint256)": {
        "notice": "calculate interest due for new bond"
      },
      "pendingPayoutFor(address)": {
        "notice": "calculate amount of xBlade available for claim by depositor"
      },
      "percentVestedFor(address)": {
        "notice": "calculate how far into vesting a depositor is"
      },
      "recoverLostToken(address)": {
        "notice": "allow anyone to send lost tokens (excluding principle or xBlade) to the DAO"
      },
      "redeem(address,bool)": {
        "notice": "redeem bond for user"
      },
      "setBondTerms(uint8,uint256)": {
        "notice": "set parameters for new bonds"
      }
    },
    "version": 1
  }
}