{
  "contractName": "TimeBondDepository",
  "abi": [
    {
      "anonymous": false,
      "inputs": [
        {
          "indexed": false,
          "internalType": "uint256",
          "name": "deposit",
          "type": "uint256"
        },
        {
          "indexed": true,
          "internalType": "uint256",
          "name": "payout",
          "type": "uint256"
        },
        {
          "indexed": true,
          "internalType": "uint256",
          "name": "expires",
          "type": "uint256"
        },
        {
          "indexed": true,
          "internalType": "uint256",
          "name": "priceInUSD",
          "type": "uint256"
        }
      ],
      "name": "BondCreated",
      "type": "event"
    },
    {
      "anonymous": false,
      "inputs": [
        {
          "indexed": true,
          "internalType": "uint256",
          "name": "priceInUSD",
          "type": "uint256"
        },
        {
          "indexed": true,
          "internalType": "uint256",
          "name": "internalPrice",
          "type": "uint256"
        }
      ],
      "name": "BondPriceChanged",
      "type": "event"
    },
    {
      "anonymous": false,
      "inputs": [
        {
          "indexed": true,
          "internalType": "address",
          "name": "recipient",
          "type": "address"
        },
        {
          "indexed": false,
          "internalType": "uint256",
          "name": "payout",
          "type": "uint256"
        },
        {
          "indexed": false,
          "internalType": "uint256",
          "name": "remaining",
          "type": "uint256"
        }
      ],
      "name": "BondRedeemed",
      "type": "event"
    },
    {
      "anonymous": false,
      "inputs": [
        {
          "indexed": true,
          "internalType": "address",
          "name": "previousOwner",
          "type": "address"
        },
        {
          "indexed": true,
          "internalType": "address",
          "name": "newOwner",
          "type": "address"
        }
      ],
      "name": "OwnershipTransferred",
      "type": "event"
    },
    {
      "inputs": [],
      "name": "DAO",
      "outputs": [
        {
          "internalType": "address",
          "name": "",
          "type": "address"
        }
      ],
      "stateMutability": "view",
      "type": "function",
      "constant": true
    },
    {
      "inputs": [
        {
          "internalType": "address",
          "name": "",
          "type": "address"
        }
      ],
      "name": "bondInfo",
      "outputs": [
        {
          "internalType": "uint256",
          "name": "payout",
          "type": "uint256"
        },
        {
          "internalType": "uint256",
          "name": "pricePaid",
          "type": "uint256"
        },
        {
          "internalType": "uint32",
          "name": "vesting",
          "type": "uint32"
        },
        {
          "internalType": "uint32",
          "name": "lastTime",
          "type": "uint32"
        }
      ],
      "stateMutability": "view",
      "type": "function",
      "constant": true
    },
    {
      "inputs": [],
      "name": "buyBackRate",
      "outputs": [
        {
          "internalType": "uint256",
          "name": "",
          "type": "uint256"
        }
      ],
      "stateMutability": "view",
      "type": "function",
      "constant": true
    },
    {
      "inputs": [],
      "name": "currentSale",
      "outputs": [
        {
          "internalType": "uint256",
          "name": "",
          "type": "uint256"
        }
      ],
      "stateMutability": "view",
      "type": "function",
      "constant": true
    },
    {
      "inputs": [],
      "name": "lastBuyBack",
      "outputs": [
        {
          "internalType": "uint256",
          "name": "",
          "type": "uint256"
        }
      ],
      "stateMutability": "view",
      "type": "function",
      "constant": true
    },
    {
      "inputs": [],
      "name": "operator",
      "outputs": [
        {
          "internalType": "address",
          "name": "",
          "type": "address"
        }
      ],
      "stateMutability": "view",
      "type": "function",
      "constant": true
    },
    {
      "inputs": [],
      "name": "owner",
      "outputs": [
        {
          "internalType": "address",
          "name": "",
          "type": "address"
        }
      ],
      "stateMutability": "view",
      "type": "function",
      "constant": true
    },
    {
      "inputs": [],
      "name": "pancakeRouter",
      "outputs": [
        {
          "internalType": "contract IPancakeRouter02",
          "name": "",
          "type": "address"
        }
      ],
      "stateMutability": "view",
      "type": "function",
      "constant": true
    },
    {
      "inputs": [],
      "name": "principle",
      "outputs": [
        {
          "internalType": "address",
          "name": "",
          "type": "address"
        }
      ],
      "stateMutability": "view",
      "type": "function",
      "constant": true
    },
    {
      "inputs": [],
      "name": "referralBonusRate",
      "outputs": [
        {
          "internalType": "uint256",
          "name": "",
          "type": "uint256"
        }
      ],
      "stateMutability": "view",
      "type": "function",
      "constant": true
    },
    {
      "inputs": [],
      "name": "renounceOwnership",
      "outputs": [],
      "stateMutability": "nonpayable",
      "type": "function"
    },
    {
      "inputs": [],
      "name": "terms",
      "outputs": [
        {
          "internalType": "uint256",
          "name": "minimumPrice",
          "type": "uint256"
        },
        {
          "internalType": "uint256",
          "name": "maxPayout",
          "type": "uint256"
        },
        {
          "internalType": "uint32",
          "name": "vestingTerm",
          "type": "uint32"
        },
        {
          "internalType": "uint256",
          "name": "discountRate",
          "type": "uint256"
        }
      ],
      "stateMutability": "view",
      "type": "function",
      "constant": true
    },
    {
      "inputs": [],
      "name": "totalPurchased",
      "outputs": [
        {
          "internalType": "uint256",
          "name": "",
          "type": "uint256"
        }
      ],
      "stateMutability": "view",
      "type": "function",
      "constant": true
    },
    {
      "inputs": [
        {
          "internalType": "address",
          "name": "newOwner",
          "type": "address"
        }
      ],
      "name": "transferOwnership",
      "outputs": [],
      "stateMutability": "nonpayable",
      "type": "function"
    },
    {
      "inputs": [],
      "name": "treasury",
      "outputs": [
        {
          "internalType": "address",
          "name": "",
          "type": "address"
        }
      ],
      "stateMutability": "view",
      "type": "function",
      "constant": true
    },
    {
      "inputs": [],
      "name": "usd",
      "outputs": [
        {
          "internalType": "contract IERC20",
          "name": "",
          "type": "address"
        }
      ],
      "stateMutability": "view",
      "type": "function",
      "constant": true
    },
    {
      "inputs": [],
      "name": "xBlade",
      "outputs": [
        {
          "internalType": "address",
          "name": "",
          "type": "address"
        }
      ],
      "stateMutability": "view",
      "type": "function",
      "constant": true
    },
    {
      "inputs": [
        {
          "internalType": "address",
          "name": "_xBlade",
          "type": "address"
        },
        {
          "internalType": "address",
          "name": "_principle",
          "type": "address"
        },
        {
          "internalType": "address",
          "name": "_treasury",
          "type": "address"
        },
        {
          "internalType": "address",
          "name": "_DAO",
          "type": "address"
        },
        {
          "internalType": "address",
          "name": "_router",
          "type": "address"
        },
        {
          "internalType": "address",
          "name": "_usd",
          "type": "address"
        }
      ],
      "name": "initialize",
      "outputs": [],
      "stateMutability": "nonpayable",
      "type": "function"
    },
    {
      "inputs": [
        {
          "internalType": "uint256",
          "name": "_minimumPrice",
          "type": "uint256"
        },
        {
          "internalType": "uint256",
          "name": "_maxPayout",
          "type": "uint256"
        },
        {
          "internalType": "uint32",
          "name": "_vestingTerm",
          "type": "uint32"
        },
        {
          "internalType": "uint256",
          "name": "_discountRate",
          "type": "uint256"
        }
      ],
      "name": "initializeBondTerms",
      "outputs": [],
      "stateMutability": "nonpayable",
      "type": "function"
    },
    {
      "inputs": [
        {
          "internalType": "enum TimeBondDepository.PARAMETER",
          "name": "_parameter",
          "type": "uint8"
        },
        {
          "internalType": "uint256",
          "name": "_input",
          "type": "uint256"
        }
      ],
      "name": "setBondTerms",
      "outputs": [],
      "stateMutability": "nonpayable",
      "type": "function"
    },
    {
      "inputs": [
        {
          "internalType": "address",
          "name": "_feed",
          "type": "address"
        }
      ],
      "name": "setPrice",
      "outputs": [],
      "stateMutability": "nonpayable",
      "type": "function"
    },
    {
      "inputs": [
        {
          "internalType": "uint256",
          "name": "_initialSale",
          "type": "uint256"
        }
      ],
      "name": "setCurrentSale",
      "outputs": [],
      "stateMutability": "nonpayable",
      "type": "function"
    },
    {
      "inputs": [
        {
          "internalType": "uint256",
          "name": "_amount",
          "type": "uint256"
        },
        {
          "internalType": "uint256",
          "name": "_maxPrice",
          "type": "uint256"
        },
        {
          "internalType": "address",
          "name": "_depositor",
          "type": "address"
        }
      ],
      "name": "deposit",
      "outputs": [
        {
          "internalType": "uint256",
          "name": "",
          "type": "uint256"
        }
      ],
      "stateMutability": "payable",
      "type": "function",
      "payable": true
    },
    {
      "inputs": [
        {
          "internalType": "uint256",
          "name": "_amount",
          "type": "uint256"
        },
        {
          "internalType": "uint256",
          "name": "_maxPrice",
          "type": "uint256"
        },
        {
          "internalType": "address",
          "name": "_depositor",
          "type": "address"
        },
        {
          "internalType": "address",
          "name": "_referrer",
          "type": "address"
        }
      ],
      "name": "depositWithReferral",
      "outputs": [
        {
          "internalType": "uint256",
          "name": "",
          "type": "uint256"
        }
      ],
      "stateMutability": "payable",
      "type": "function",
      "payable": true
    },
    {
      "inputs": [
        {
          "internalType": "address",
          "name": "_recipient",
          "type": "address"
        },
        {
          "internalType": "bool",
          "name": "_stake",
          "type": "bool"
        }
      ],
      "name": "redeem",
      "outputs": [
        {
          "internalType": "uint256",
          "name": "",
          "type": "uint256"
        }
      ],
      "stateMutability": "nonpayable",
      "type": "function"
    },
    {
      "inputs": [],
      "name": "manualBuyBack",
      "outputs": [],
      "stateMutability": "nonpayable",
      "type": "function"
    },
    {
      "inputs": [
        {
          "internalType": "address",
          "name": "_treasury",
          "type": "address"
        }
      ],
      "name": "setTreasury",
      "outputs": [],
      "stateMutability": "nonpayable",
      "type": "function"
    },
    {
      "inputs": [
        {
          "internalType": "uint256",
          "name": "_rate",
          "type": "uint256"
        }
      ],
      "name": "setReferralBonusRate",
      "outputs": [],
      "stateMutability": "nonpayable",
      "type": "function"
    },
    {
      "inputs": [
        {
          "internalType": "uint256",
          "name": "_rate",
          "type": "uint256"
        }
      ],
      "name": "setBuyBackRate",
      "outputs": [],
      "stateMutability": "nonpayable",
      "type": "function"
    },
    {
      "inputs": [
        {
          "internalType": "address",
          "name": "_account",
          "type": "address"
        }
      ],
      "name": "setOperator",
      "outputs": [],
      "stateMutability": "nonpayable",
      "type": "function"
    },
    {
      "inputs": [],
      "name": "maxPayout",
      "outputs": [
        {
          "internalType": "uint256",
          "name": "",
          "type": "uint256"
        }
      ],
      "stateMutability": "view",
      "type": "function",
      "constant": true
    },
    {
      "inputs": [
        {
          "internalType": "uint256",
          "name": "_value",
          "type": "uint256"
        }
      ],
      "name": "payoutFor",
      "outputs": [
        {
          "internalType": "uint256",
          "name": "",
          "type": "uint256"
        }
      ],
      "stateMutability": "view",
      "type": "function",
      "constant": true
    },
    {
      "inputs": [],
      "name": "bondPrice",
      "outputs": [
        {
          "internalType": "uint256",
          "name": "price_",
          "type": "uint256"
        }
      ],
      "stateMutability": "view",
      "type": "function",
      "constant": true
    },
    {
      "inputs": [],
      "name": "assetPrice",
      "outputs": [
        {
          "internalType": "uint256",
          "name": "",
          "type": "uint256"
        }
      ],
      "stateMutability": "view",
      "type": "function",
      "constant": true
    },
    {
      "inputs": [],
      "name": "bondPriceInUSD",
      "outputs": [
        {
          "internalType": "uint256",
          "name": "price_",
          "type": "uint256"
        }
      ],
      "stateMutability": "view",
      "type": "function",
      "constant": true
    },
    {
      "inputs": [
        {
          "internalType": "address",
          "name": "_depositor",
          "type": "address"
        }
      ],
      "name": "percentVestedFor",
      "outputs": [
        {
          "internalType": "uint256",
          "name": "percentVested_",
          "type": "uint256"
        }
      ],
      "stateMutability": "view",
      "type": "function",
      "constant": true
    },
    {
      "inputs": [
        {
          "internalType": "address",
          "name": "_depositor",
          "type": "address"
        }
      ],
      "name": "pendingPayoutFor",
      "outputs": [
        {
          "internalType": "uint256",
          "name": "pendingPayout_",
          "type": "uint256"
        }
      ],
      "stateMutability": "view",
      "type": "function",
      "constant": true
    },
    {
      "inputs": [
        {
          "internalType": "address",
          "name": "_token",
          "type": "address"
        }
      ],
      "name": "recoverLostToken",
      "outputs": [
        {
          "internalType": "bool",
          "name": "",
          "type": "bool"
        }
      ],
      "stateMutability": "nonpayable",
      "type": "function"
    }
  ],
  "bytecode": "0x608060405234801561001057600080fd5b5061340d806100206000396000f3fe6080604052600436106102255760003560e01c8063a05d03fd11610123578063cd7d24b5116100ab578063e0176de81161006f578063e0176de81461077b578063e632c2f314610790578063f0f44260146107a5578063f2fde38b146107d8578063f34dad2f1461080b57610225565b8063cd7d24b5146106c2578063d24378eb146106fc578063d502562514610711578063d63a6ccd14610751578063d7ccfb0b1461076657610225565b8063b4abccba116100f2578063b4abccba1461056a578063c21ebd07146105b1578063c755d099146105c6578063cc2a9a5b14610608578063cd1234b31461066357610225565b8063a05d03fd146104e3578063a35ab639146104f8578063a687da0314610522578063b3ab15fb1461053757610225565b8063507930ec116101b1578063844b5c7c11610175578063844b5c7c1461045d5780638521fb1c146104725780638da5cb5b146104875780638dbdbe6d1461049c57806398fabd3a146104ce57610225565b8063507930ec146103c1578063570ca735146103f457806361d027b314610409578063715018a61461041e5780637927ebf81461043357610225565b80631f312375116101f85780631f312375146102ea5780631feed31f146102ff5780632283f13c1461033a57806327c6919d146103645780633b3247901461038e57610225565b8063016a42841461022a57806301b88ee81461025b578063178a8d07146102a05780631e321a0f146102b5575b600080fd5b34801561023657600080fd5b5061023f610820565b604080516001600160a01b039092168252519081900360200190f35b34801561026757600080fd5b5061028e6004803603602081101561027e57600080fd5b50356001600160a01b031661082f565b60408051918252519081900360200190f35b3480156102ac57600080fd5b5061028e610888565b3480156102c157600080fd5b506102e8600480360360408110156102d857600080fd5b5060ff813516906020013561088e565b005b3480156102f657600080fd5b5061028e610a6a565b34801561030b57600080fd5b5061028e6004803603604081101561032257600080fd5b506001600160a01b0381351690602001351515610a70565b34801561034657600080fd5b506102e86004803603602081101561035d57600080fd5b5035610cc4565b34801561037057600080fd5b506102e86004803603602081101561038757600080fd5b5035610d2b565b34801561039a57600080fd5b506102e8600480360360208110156103b157600080fd5b50356001600160a01b0316610de7565b3480156103cd57600080fd5b5061028e600480360360208110156103e457600080fd5b50356001600160a01b0316610e6b565b34801561040057600080fd5b5061023f610f19565b34801561041557600080fd5b5061023f610f28565b34801561042a57600080fd5b506102e8610f37565b34801561043f57600080fd5b5061028e6004803603602081101561045657600080fd5b5035610fe3565b34801561046957600080fd5b5061028e610ffe565b34801561047e57600080fd5b5061028e61100d565b34801561049357600080fd5b5061023f611013565b61028e600480360360608110156104b257600080fd5b50803590602081013590604001356001600160a01b0316611022565b3480156104da57600080fd5b5061023f61141d565b3480156104ef57600080fd5b5061028e61142c565b34801561050457600080fd5b506102e86004803603602081101561051b57600080fd5b5035611432565b34801561052e57600080fd5b506102e8611499565b34801561054357600080fd5b506102e86004803603602081101561055a57600080fd5b50356001600160a01b03166115b9565b34801561057657600080fd5b5061059d6004803603602081101561058d57600080fd5b50356001600160a01b031661163d565b604080519115158252519081900360200190f35b3480156105bd57600080fd5b5061023f61170e565b3480156105d257600080fd5b506102e8600480360360808110156105e957600080fd5b5080359060208101359063ffffffff604082013516906060013561171d565b34801561061457600080fd5b506102e8600480360360c081101561062b57600080fd5b506001600160a01b038135811691602081013582169160408201358116916060810135821691608082013581169160a00135166117ca565b34801561066f57600080fd5b506106966004803603602081101561068657600080fd5b50356001600160a01b031661194b565b60408051948552602085019390935263ffffffff91821684840152166060830152519081900360800190f35b61028e600480360360808110156106d857600080fd5b508035906020810135906001600160a01b036040820135811691606001351661197e565b34801561070857600080fd5b5061028e611a1e565b34801561071d57600080fd5b50610726611aa1565b60408051948552602085019390935263ffffffff909116838301526060830152519081900360800190f35b34801561075d57600080fd5b5061023f611ab9565b34801561077257600080fd5b5061028e611ac8565b34801561078757600080fd5b5061028e611ace565b34801561079c57600080fd5b5061028e611b60565b3480156107b157600080fd5b506102e8600480360360208110156107c857600080fd5b50356001600160a01b0316611b66565b3480156107e457600080fd5b506102e8600480360360208110156107fb57600080fd5b50356001600160a01b0316611bea565b34801561081757600080fd5b5061023f611ced565b6066546001600160a01b031681565b60008061083b83610e6b565b6001600160a01b0384166000908152606e6020526040902054909150612710821061086857809250610881565b61087e6127106108788385611cfc565b90611d55565b92505b5050919050565b60755481565b610896611dbc565b6001600160a01b03166108a7611013565b6001600160a01b0316146108f0576040805162461bcd60e51b81526020600482018190526024820152600080516020613347833981519152604482015290519081900360640190fd5b60008260048111156108fe57fe5b1415610960576201fa408110156109465760405162461bcd60e51b815260040180806020018281038252602481526020018061338a6024913960400191505060405180910390fd5b606c805463ffffffff191663ffffffff8316179055610a66565b600182600481111561096e57fe5b14156109d5576103e88111156109cb576040805162461bcd60e51b815260206004820181905260248201527f5061796f75742063616e6e6f742062652061626f766520312070657263656e74604482015290519081900360640190fd5b606b819055610a66565b60028260048111156109e357fe5b14156109ee57610a66565b60038260048111156109fc57fe5b1415610a0c57606a819055610a66565b6004826004811115610a1a57fe5b1415610a665761012c8110610a605760405162461bcd60e51b81526004018080602001828103825260258152602001806132876025913960400191505060405180910390fd5b606d8190555b5050565b60745481565b6000323314610a7e57600080fd5b610a8661321a565b506001600160a01b0383166000908152606e602090815260408083208151608081018352815481526001820154938101939093526002015463ffffffff80821692840192909252640100000000900416606082015290610ae585610e6b565b90506127108110610b79576001600160a01b0385166000818152606e6020908152604080832083815560018101849055600201805467ffffffffffffffff19169055855181519081529182019290925281517f51c99f515c87b0d95ba97f616edd182e8f161c4932eac17c6fefe9dab58b77b1929181900390910190a2610b70858360000151611dc0565b92505050610cbe565b8151600090610b9090612710906108789085611cfc565b90506040518060800160405280610bb4838660000151611e4c90919063ffffffff16565b815260200184602001518152602001610bfc610be386606001514263ffffffff16611ea990919063ffffffff16565b866040015163ffffffff16611ea990919063ffffffff16565b63ffffffff90811682524281166020928301526001600160a01b0389166000818152606e84526040908190208551808255868601516001830155868301516002909201805460609098015186166401000000000267ffffffff00000000199390961663ffffffff19909816979097179190911693909317909455835185815292830191909152825190927f51c99f515c87b0d95ba97f616edd182e8f161c4932eac17c6fefe9dab58b77b1928290030190a2610cb88682611dc0565b93505050505b92915050565b610ccc611dbc565b6001600160a01b0316610cdd611013565b6001600160a01b031614610d26576040805162461bcd60e51b81526020600482018190526024820152600080516020613347833981519152604482015290519081900360640190fd5b607355565b610d33611dbc565b6001600160a01b0316610d44611013565b6001600160a01b031614610d8d576040805162461bcd60e51b81526020600482018190526024820152600080516020613347833981519152604482015290519081900360640190fd5b60328110610de2576040805162461bcd60e51b815260206004820152601a60248201527f43616e6e6f7420627579206261636b206c617267657220353025000000000000604482015290519081900360640190fd5b607555565b610def611dbc565b6001600160a01b0316610e00611013565b6001600160a01b031614610e49576040805162461bcd60e51b81526020600482018190526024820152600080516020613347833981519152604482015290519081900360640190fd5b606980546001600160a01b0319166001600160a01b0392909216919091179055565b6000610e7561321a565b506001600160a01b0382166000908152606e602090815260408083208151608081018352815481526001820154938101939093526002015463ffffffff808216928401929092526401000000009004811660608301819052919291610edf914281169190611ea916565b604083015163ffffffff9182169250168015610f0c57610f058161087884612710611cfc565b9350610f11565b600093505b505050919050565b6076546001600160a01b031681565b6067546001600160a01b031681565b610f3f611dbc565b6001600160a01b0316610f50611013565b6001600160a01b031614610f99576040805162461bcd60e51b81526020600482018190526024820152600080516020613347833981519152604482015290519081900360640190fd5b6033546040516000916001600160a01b0316907f8be0079c531659141344cd1fd0a4f28419497f9722a3daafe3b4186f6b6457e0908390a3603380546001600160a01b0319169055565b6000610cbe610ff983610ff4611ac8565b611eeb565b612062565b6000611008611ac8565b905090565b60715481565b6033546001600160a01b031690565b600032331461103057600080fd5b6001600160a01b03821661107d576040805162461bcd60e51b815260206004820152600f60248201526e496e76616c6964206164647265737360881b604482015290519081900360640190fd5b6000611087610ffe565b90506000611093610ffe565b9050808510156110d45760405162461bcd60e51b81526004018080602001828103825260238152602001806133676023913960400191505060405180910390fd5b8560006110e082610fe3565b905080607354101561112e576040805162461bcd60e51b815260206004820152601260248201527127379036b7b9329039b0b632903a37b5b2b760711b604482015290519081900360640190fd5b62989680811015611177576040805162461bcd60e51b815260206004820152600e60248201526d109bdb99081d1bdbc81cdb585b1b60921b604482015290519081900360640190fd5b61117f611ace565b8111156111c4576040805162461bcd60e51b815260206004820152600e60248201526d426f6e6420746f6f206c6172676560901b604482015290519081900360640190fd5b6073546111d19082611e4c565b6073556072546111e1908361207a565b60725534881461121d576040805162461bcd60e51b8152602060048201526002602482015261554160f01b604482015290519081900360640190fd5b606660009054906101000a90046001600160a01b03166001600160a01b031663d0e30db0896040518263ffffffff1660e01b81526004016000604051808303818588803b15801561126d57600080fd5b505af1158015611281573d6000803e3d6000fd5b50506066546040805163a9059cbb60e01b8152306004820152602481018e905290516001600160a01b03909216945063a9059cbb935060448082019350602092918290030181600087803b1580156112d857600080fd5b505af11580156112ec573d6000803e3d6000fd5b505050506040513d602081101561130257600080fd5b5061130e9050886120d4565b604080516080810182526001600160a01b0388166000908152606e6020529190912054819061133d908461207a565b81526020808201879052606c805463ffffffff908116604080860191909152428083166060968701526001600160a01b038d166000908152606e865282902087518155948701516001860155908601516002949094018054969095015182166401000000000267ffffffff000000001994831663ffffffff19909716969096179390931694909417909255905486926113da929181169061207a16565b604080518b8152905184917f1fec6dc81f140574bf43f6b1e420ae1dd47928b9d57db8cbd7b8611063b85ae5919081900360200190a493505050505b9392505050565b6068546001600160a01b031681565b60735481565b61143a611dbc565b6001600160a01b031661144b611013565b6001600160a01b031614611494576040805162461bcd60e51b81526020600482018190526024820152600080516020613347833981519152604482015290519081900360640190fd5b607455565b6076546001600160a01b03163314806114ca57506114b5611013565b6001600160a01b0316336001600160a01b0316145b6114d357600080fd5b606654604080516370a0823160e01b815230600482015290516000926001600160a01b0316916370a08231916024808301926020929190829003018186803b15801561151e57600080fd5b505afa158015611532573d6000803e3d6000fd5b505050506040513d602081101561154857600080fd5b505142607155905068056bc75e2d6310000081111561158f5761158f61157e606461087860755485611cfc90919063ffffffff16565b6067546001600160a01b03166124ef565b68056bc75e2d6310000081116115b6576067546115b69082906001600160a01b03166124ef565b50565b6115c1611dbc565b6001600160a01b03166115d2611013565b6001600160a01b03161461161b576040805162461bcd60e51b81526020600482018190526024820152600080516020613347833981519152604482015290519081900360640190fd5b607680546001600160a01b0319166001600160a01b0392909216919091179055565b6065546000906001600160a01b038381169116141561165b57600080fd5b6066546001600160a01b038381169116141561167657600080fd5b606854604080516370a0823160e01b81523060048201529051611706926001600160a01b0390811692908616916370a0823191602480820192602092909190829003018186803b1580156116c957600080fd5b505afa1580156116dd573d6000803e3d6000fd5b505050506040513d60208110156116f357600080fd5b50516001600160a01b038516919061264f565b506001919050565b606f546001600160a01b031681565b611725611dbc565b6001600160a01b0316611736611013565b6001600160a01b03161461177f576040805162461bcd60e51b81526020600482018190526024820152600080516020613347833981519152604482015290519081900360640190fd5b604080516080810182528581526020810185905263ffffffff9093169083018190526060909201819052606a93909355606b91909155606c805463ffffffff19169091179055606d55565b600054610100900460ff16806117e357506117e36126a1565b806117f1575060005460ff16155b61182c5760405162461bcd60e51b815260040180806020018281038252602e8152602001806132f8602e913960400191505060405180910390fd5b600054610100900460ff16158015611857576000805460ff1961ff0019909116610100171660011790555b61185f6126b2565b6001600160a01b03871661187257600080fd5b606580546001600160a01b0319166001600160a01b0389811691909117909155861661189d57600080fd5b606680546001600160a01b0319166001600160a01b038881169190911790915585166118c857600080fd5b606780546001600160a01b0319166001600160a01b038781169190911790915584166118f357600080fd5b606880546001600160a01b038087166001600160a01b031992831617909255606f805486841690831617905560708054928516929091169190911790558015611942576000805461ff00191690555b50505050505050565b606e6020526000908152604090208054600182015460029092015490919063ffffffff8082169164010000000090041684565b600032331461198c57600080fd5b816001600160a01b0316836001600160a01b0316141580156119b75750336001600160a01b03831614155b611a00576040805162461bcd60e51b815260206004820152601560248201527421b0b73737ba103932b332b9103cb7bab939b2b63360591b604482015290519081900360640190fd5b611a0a8286612763565b611a15858585611022565b95945050505050565b600080606960009054906101000a90046001600160a01b03166001600160a01b031663feaf968c6040518163ffffffff1660e01b815260040160206040518083038186803b158015611a6f57600080fd5b505afa158015611a83573d6000803e3d6000fd5b505050506040513d6020811015611a9957600080fd5b505191505090565b606a54606b54606c54606d5463ffffffff9091169084565b6070546001600160a01b031681565b606a5490565b6000611008620186a0610878606a60010154606560009054906101000a90046001600160a01b03166001600160a01b03166318160ddd6040518163ffffffff1660e01b815260040160206040518083038186803b158015611b2e57600080fd5b505afa158015611b42573d6000803e3d6000fd5b505050506040513d6020811015611b5857600080fd5b505190611cfc565b60725481565b611b6e611dbc565b6001600160a01b0316611b7f611013565b6001600160a01b031614611bc8576040805162461bcd60e51b81526020600482018190526024820152600080516020613347833981519152604482015290519081900360640190fd5b606780546001600160a01b0319166001600160a01b0392909216919091179055565b611bf2611dbc565b6001600160a01b0316611c03611013565b6001600160a01b031614611c4c576040805162461bcd60e51b81526020600482018190526024820152600080516020613347833981519152604482015290519081900360640190fd5b6001600160a01b038116611c915760405162461bcd60e51b81526004018080602001828103825260268152602001806132616026913960400191505060405180910390fd5b6033546040516001600160a01b038084169216907f8be0079c531659141344cd1fd0a4f28419497f9722a3daafe3b4186f6b6457e090600090a3603380546001600160a01b0319166001600160a01b0392909216919091179055565b6065546001600160a01b031681565b600082611d0b57506000610cbe565b82820282848281611d1857fe5b04146114165760405162461bcd60e51b81526004018080602001828103825260218152602001806133266021913960400191505060405180910390fd5b6000808211611dab576040805162461bcd60e51b815260206004820152601a60248201527f536166654d6174683a206469766973696f6e206279207a65726f000000000000604482015290519081900360640190fd5b818381611db457fe5b049392505050565b3390565b6065546040805163a9059cbb60e01b81526001600160a01b038581166004830152602482018590529151600093929092169163a9059cbb9160448082019260209290919082900301818787803b158015611e1957600080fd5b505af1158015611e2d573d6000803e3d6000fd5b505050506040513d6020811015611e4357600080fd5b50919392505050565b600082821115611ea3576040805162461bcd60e51b815260206004820152601e60248201527f536166654d6174683a207375627472616374696f6e206f766572666c6f770000604482015290519081900360640190fd5b50900390565b600061141683836040518060400160405280601e81526020017f536166654d6174683a207375627472616374696f6e206f766572666c6f7700008152506127c1565b611ef361324e565b60008211611f325760405162461bcd60e51b81526004018080602001828103825260268152602001806132d26026913960400191505060405180910390fd5b82611f4c5750604080516020810190915260008152610cbe565b71ffffffffffffffffffffffffffffffffffff8311611ff357600082607085901b81611f7457fe5b0490506001600160e01b03811115611fd3576040805162461bcd60e51b815260206004820152601e60248201527f4669786564506f696e743a3a6672616374696f6e3a206f766572666c6f770000604482015290519081900360640190fd5b6040518060200160405280826001600160e01b0316815250915050610cbe565b600061200484600160701b85612865565b90506001600160e01b03811115611fd3576040805162461bcd60e51b815260206004820152601e60248201527f4669786564506f696e743a3a6672616374696f6e3a206f766572666c6f770000604482015290519081900360640190fd5b516612725dd1d243ab6001600160e01b039091160490565b600082820183811015611416576040805162461bcd60e51b815260206004820152601b60248201527f536166654d6174683a206164646974696f6e206f766572666c6f770000000000604482015290519081900360640190fd5b80156115b657606554606f5460408051636eb1769f60e11b81523060048201526001600160a01b0392831660248201529051919092169163dd62ed3e916044808301926020929190829003018186803b15801561213057600080fd5b505afa158015612144573d6000803e3d6000fd5b505050506040513d602081101561215a57600080fd5b50516121e757606554606f546040805163095ea7b360e01b81526001600160a01b03928316600482015260001960248201529051919092169163095ea7b39160448083019260209291908290030181600087803b1580156121ba57600080fd5b505af11580156121ce573d6000803e3d6000fd5b505050506040513d60208110156121e457600080fd5b50505b606654606f5460408051636eb1769f60e11b81523060048201526001600160a01b0392831660248201529051919092169163dd62ed3e916044808301926020929190829003018186803b15801561223d57600080fd5b505afa158015612251573d6000803e3d6000fd5b505050506040513d602081101561226757600080fd5b50516122f457606654606f546040805163095ea7b360e01b81526001600160a01b03928316600482015260001960248201529051919092169163095ea7b39160448083019260209291908290030181600087803b1580156122c757600080fd5b505af11580156122db573d6000803e3d6000fd5b505050506040513d60208110156122f157600080fd5b50505b606554604080516370a0823160e01b815230600482015290516000926001600160a01b0316916370a08231916024808301926020929190829003018186803b15801561233f57600080fd5b505afa158015612353573d6000803e3d6000fd5b505050506040513d602081101561236957600080fd5b5051905061238161237b836002611d55565b306124ef565b606554604080516370a0823160e01b815230600482015290516000926001600160a01b0316916370a08231916024808301926020929190829003018186803b1580156123cc57600080fd5b505afa1580156123e0573d6000803e3d6000fd5b505050506040513d60208110156123f657600080fd5b5051606f546065546066549293506001600160a01b039182169263e8e337009291821691166124258587611e4c565b612430886002611d55565b606754604080516001600160e01b031960e089901b1681526001600160a01b03968716600482015294861660248601526044850193909352606484019190915260006084840181905260a48401819052931660c4830152610168420160e4830152516101048083019360609383900390910190829087803b1580156124b457600080fd5b505af11580156124c8573d6000803e3d6000fd5b505050506040513d60608110156124de57600080fd5b506124ea905030612905565b505050565b6040805160028082526060808301845292602083019080368337505060665482519293506001600160a01b03169183915060009061252957fe5b6001600160a01b03928316602091820292909201015260655482519116908290600190811061255457fe5b60200260200101906001600160a01b031690816001600160a01b031681525050606f60009054906101000a90046001600160a01b03166001600160a01b0316635c11d795846000848642610168016040518663ffffffff1660e01b81526004018086815260200185815260200180602001846001600160a01b03168152602001838152602001828103825285818151815260200191508051906020019060200280838360005b838110156126125781810151838201526020016125fa565b505050509050019650505050505050600060405180830381600087803b15801561263b57600080fd5b505af1158015611942573d6000803e3d6000fd5b604080516001600160a01b038416602482015260448082018490528251808303909101815260649091019091526020810180516001600160e01b031663a9059cbb60e01b1790526124ea908490612d64565b60006126ac30612e15565b15905090565b600054610100900460ff16806126cb57506126cb6126a1565b806126d9575060005460ff16155b6127145760405162461bcd60e51b815260040180806020018281038252602e8152602001806132f8602e913960400191505060405180910390fd5b600054610100900460ff1615801561273f576000805460ff1961ff0019909116610100171660011790555b612747612e1b565b61274f612ebb565b80156115b6576000805461ff001916905550565b6001600160a01b03821615610a6657600061278e606461087860745485611cfc90919063ffffffff16565b905060006127a1610ff983610ff4610ffe565b6065549091506127bb906001600160a01b0316858361264f565b50505050565b60008363ffffffff168363ffffffff161115829061285d5760405162461bcd60e51b81526004018080602001828103825283818151815260200191508051906020019080838360005b8381101561282257818101518382015260200161280a565b50505050905090810190601f16801561284f5780820380516001836020036101000a031916815260200191505b509250505060405180910390fd5b505050900390565b60008060006128748686612fb4565b915091506000848061288257fe5b868809905082811115612896576001820391505b80830392508482106128ef576040805162461bcd60e51b815260206004820152601a60248201527f46756c6c4d6174683a3a6d756c4469763a206f766572666c6f77000000000000604482015290519081900360640190fd5b6128fa838387612fe1565b979650505050505050565b606f54604080516315ab88c960e31b815290516000926001600160a01b03169163ad5c4648916004808301926020929190829003018186803b15801561294a57600080fd5b505afa15801561295e573d6000803e3d6000fd5b505050506040513d602081101561297457600080fd5b5051604080516370a0823160e01b815230600482015290516001600160a01b03909216916370a0823191602480820192602092909190829003018186803b1580156129be57600080fd5b505afa1580156129d2573d6000803e3d6000fd5b505050506040513d60208110156129e857600080fd5b50519050612a006129fa826002611d55565b836124ef565b60408051600280825260608083018452926020830190803683375050606f54604080516315ab88c960e31b815290519394506001600160a01b039091169263ad5c464892506004808301926020929190829003018186803b158015612a6457600080fd5b505afa158015612a78573d6000803e3d6000fd5b505050506040513d6020811015612a8e57600080fd5b505181518290600090612a9d57fe5b6001600160a01b039283166020918202929092010152607054825191169082906001908110612ac857fe5b6001600160a01b039283166020918202929092010152606f5416635c11d795612af2846002611d55565b6000848742610168016040518663ffffffff1660e01b81526004018086815260200185815260200180602001846001600160a01b03168152602001838152602001828103825285818151815260200191508051906020019060200280838360005b83811015612b6b578181015183820152602001612b53565b505050509050019650505050505050600060405180830381600087803b158015612b9457600080fd5b505af1158015612ba8573d6000803e3d6000fd5b5050606f54606554607054604080516370a0823160e01b815230600482015290516001600160a01b03948516965063e8e337009550928416939091169183916370a08231916024808301926020929190829003018186803b158015612c0c57600080fd5b505afa158015612c20573d6000803e3d6000fd5b505050506040513d6020811015612c3657600080fd5b5051607054604080516370a0823160e01b815230600482015290516001600160a01b03909216916370a0823191602480820192602092909190829003018186803b158015612c8357600080fd5b505afa158015612c97573d6000803e3d6000fd5b505050506040513d6020811015612cad57600080fd5b5051606754604080516001600160e01b031960e089901b1681526001600160a01b03968716600482015294861660248601526044850193909352606484019190915260006084840181905260a48401819052931660c4830152610168420160e4830152516101048083019360609383900390910190829087803b158015612d3357600080fd5b505af1158015612d47573d6000803e3d6000fd5b505050506040513d6060811015612d5d57600080fd5b5050505050565b6060612db9826040518060400160405280602081526020017f5361666545524332303a206c6f772d6c6576656c2063616c6c206661696c6564815250856001600160a01b03166130519092919063ffffffff16565b8051909150156124ea57808060200190516020811015612dd857600080fd5b50516124ea5760405162461bcd60e51b815260040180806020018281038252602a8152602001806133ae602a913960400191505060405180910390fd5b3b151590565b600054610100900460ff1680612e345750612e346126a1565b80612e42575060005460ff16155b612e7d5760405162461bcd60e51b815260040180806020018281038252602e8152602001806132f8602e913960400191505060405180910390fd5b600054610100900460ff1615801561274f576000805460ff1961ff00199091166101001716600117905580156115b6576000805461ff001916905550565b600054610100900460ff1680612ed45750612ed46126a1565b80612ee2575060005460ff16155b612f1d5760405162461bcd60e51b815260040180806020018281038252602e8152602001806132f8602e913960400191505060405180910390fd5b600054610100900460ff16158015612f48576000805460ff1961ff0019909116610100171660011790555b6000612f52611dbc565b603380546001600160a01b0319166001600160a01b038316908117909155604051919250906000907f8be0079c531659141344cd1fd0a4f28419497f9722a3daafe3b4186f6b6457e0908290a35080156115b6576000805461ff001916905550565b6000808060001984860990508385029250828103915082811015612fd9576001820391505b509250929050565b60008181038216808381612ff157fe5b049250808581612ffd57fe5b04945080816000038161300c57fe5b60028581038087028203028087028203028087028203028087028203028087028203028087028203029586029003909402930460010193909302939093010292915050565b60606130608484600085613068565b949350505050565b6060824710156130a95760405162461bcd60e51b81526004018080602001828103825260268152602001806132ac6026913960400191505060405180910390fd5b6130b285612e15565b613103576040805162461bcd60e51b815260206004820152601d60248201527f416464726573733a2063616c6c20746f206e6f6e2d636f6e7472616374000000604482015290519081900360640190fd5b60006060866001600160a01b031685876040518082805190602001908083835b602083106131425780518252601f199092019160209182019101613123565b6001836020036101000a03801982511681845116808217855250505050505090500191505060006040518083038185875af1925050503d80600081146131a4576040519150601f19603f3d011682016040523d82523d6000602084013e6131a9565b606091505b50915091506128fa828286606083156131c3575081611416565b8251156131d35782518084602001fd5b60405162461bcd60e51b815260206004820181815284516024840152845185939192839260440191908501908083836000831561282257818101518382015260200161280a565b60405180608001604052806000815260200160008152602001600063ffffffff168152602001600063ffffffff1681525090565b6040805160208101909152600081529056fe4f776e61626c653a206e6577206f776e657220697320746865207a65726f2061646472657373446973636f756e742073616c652063616e6e6f742067726561746572207468616e20333025416464726573733a20696e73756666696369656e742062616c616e636520666f722063616c6c4669786564506f696e743a3a6672616374696f6e3a206469766973696f6e206279207a65726f496e697469616c697a61626c653a20636f6e747261637420697320616c726561647920696e697469616c697a6564536166654d6174683a206d756c7469706c69636174696f6e206f766572666c6f774f776e61626c653a2063616c6c6572206973206e6f7420746865206f776e6572536c697070616765206c696d69743a206d6f7265207468616e206d617820707269636556657374696e67206d757374206265206c6f6e676572207468616e20333620686f7572735361666545524332303a204552433230206f7065726174696f6e20646964206e6f742073756363656564a2646970667358221220e3f6efe33c88342124fcb0e4ae4e1153c9e90cc93081937e805cb343f7886a1c64736f6c63430007050033",
  "immutableReferences": {},
  "source": "pragma solidity 0.7.5;\n\n// import \"@openzeppelin/contracts/utils/Address.sol\";\nimport \"@openzeppelin/contracts/token/ERC20/IERC20.sol\";\nimport \"@openzeppelin/contracts/math/SafeMath.sol\";\nimport \"@openzeppelin/contracts/token/ERC20/SafeERC20.sol\";\nimport \"@openzeppelin/contracts-upgradeable/proxy/Initializable.sol\";\nimport \"@openzeppelin/contracts-upgradeable/access/OwnableUpgradeable.sol\";\nimport \"./libraries/FixedPoint.sol\";\nimport \"./interfaces/IPancakeRouter02.sol\";\nimport \"./libraries/SafeMath32.sol\";\n\ninterface AggregatorV3Interface {\n    function latestRoundData() external view returns (uint256 answer);\n}\n\ninterface ITreasury {\n    function deposit(\n        uint256 _amount,\n        address _token,\n        uint256 _profit\n    ) external returns (bool);\n\n    function valueOf(address _token, uint256 _amount) external view returns (uint256 value_);\n\n    function mintRewards(address _recipient, uint256 _amount) external;\n}\n\ninterface IStaking {\n    function stake(uint256 _amount, address _recipient) external returns (bool);\n}\n\ninterface IStakingHelper {\n    function stake(uint256 _amount, address _recipient) external;\n}\n\ninterface IWETH9 is IERC20 {\n    /// @notice Deposit ether to get wrapped ether\n    function deposit() external payable;\n}\n\ncontract TimeBondDepository is Initializable, OwnableUpgradeable {\n    using FixedPoint for *;\n    using SafeERC20 for IERC20;\n    using SafeMath for uint256;\n    using SafeMath32 for uint32;\n\n    /* ======== EVENTS ======== */\n\n    event BondCreated(uint256 deposit, uint256 indexed payout, uint256 indexed expires, uint256 indexed priceInUSD);\n    event BondRedeemed(address indexed recipient, uint256 payout, uint256 remaining);\n    event BondPriceChanged(uint256 indexed priceInUSD, uint256 indexed internalPrice);\n\n    /* ======== STATE VARIABLES ======== */\n    address public xBlade; // token given as payment for bond\n    address public principle; // token used to create bond\n    address public treasury; // mints xBlade when receives principle\n    address public DAO; // receives profit share from bond\n\n    AggregatorV3Interface internal priceFeed;\n\n    Terms public terms; // stores terms for new bonds\n\n    mapping(address => Bond) public bondInfo; // stores bond information for depositors\n\n    IPancakeRouter02 public pancakeRouter;\n    IERC20 public usd;\n\n    uint256 public lastBuyBack;\n    uint256 public totalPurchased;\n    uint256 public currentSale;\n\n    uint256 public referralBonusRate;\n    uint256 public buyBackRate;\n    address public operator;\n    /* ======== STRUCTS ======== */\n\n    // Info for creating new bonds\n    struct Terms {\n        uint256 minimumPrice; // vs principle value. 4 decimals (1500 = 0.15)\n        uint256 maxPayout; // in thousandths of a %. i.e. 500 = 0.5%\n        uint32 vestingTerm; // in seconds\n        uint256 discountRate; // in percent\n    }\n\n    // Info for bond holder\n    struct Bond {\n        uint256 payout; // xBlade remaining to be paid\n        uint256 pricePaid; // In DAI, for front end viewing\n        uint32 vesting; // Seconds left to vest\n        uint32 lastTime; // Last interaction\n    }\n\n    /* ======== INITIALIZATION ======== */\n\n    function initialize(\n        address _xBlade,\n        address _principle,\n        address _treasury,\n        address _DAO,\n        address _router,\n        address _usd\n    ) public initializer {\n        OwnableUpgradeable.__Ownable_init();\n        require(_xBlade != address(0));\n        xBlade = _xBlade;\n        require(_principle != address(0));\n        principle = _principle;\n        require(_treasury != address(0));\n        treasury = _treasury;\n        require(_DAO != address(0));\n        DAO = _DAO;\n        pancakeRouter = IPancakeRouter02(_router);\n        usd = IERC20(_usd);\n    }\n\n    /**\n     *  @notice initializes bond parameters\n     *  @param _vestingTerm uint\n     *  @param _minimumPrice uint\n     *  @param _maxPayout uint\n     *  @param _discountRate uint\n     */\n    function initializeBondTerms(\n        uint256 _minimumPrice,\n        uint256 _maxPayout,\n        uint32 _vestingTerm,\n        uint256 _discountRate\n    ) external onlyOwner {\n        terms = Terms({ vestingTerm: _vestingTerm, minimumPrice: _minimumPrice, maxPayout: _maxPayout, discountRate: _discountRate });\n    }\n\n    /* ======== MODIFIERS ======== */\n\n    modifier onlyNonContract() {\n        require(tx.origin == msg.sender);\n        _;\n    }\n\n    modifier onlyOperator() {\n        require(msg.sender == operator || msg.sender == owner());\n        _;\n    }\n\n    /* ======== POLICY FUNCTIONS ======== */\n\n    enum PARAMETER {\n        VESTING,\n        PAYOUT,\n        DEBT,\n        MINPRICE,\n        DISCOUNT\n    }\n\n    /**\n     *  @notice set parameters for new bonds\n     *  @param _parameter PARAMETER\n     *  @param _input uint\n     */\n    function setBondTerms(PARAMETER _parameter, uint256 _input) external onlyOwner {\n        if (_parameter == PARAMETER.VESTING) {\n            // 0\n            require(_input >= 129600, \"Vesting must be longer than 36 hours\");\n            terms.vestingTerm = uint32(_input);\n        } else if (_parameter == PARAMETER.PAYOUT) {\n            // 1\n            require(_input <= 1000, \"Payout cannot be above 1 percent\");\n            terms.maxPayout = _input;\n        } else if (_parameter == PARAMETER.DEBT) {\n            // 2\n            // Do nothing\n            // terms.maxDebt = _input;\n        } else if (_parameter == PARAMETER.MINPRICE) {\n            // 3\n            terms.minimumPrice = _input;\n        } else if (_parameter == PARAMETER.DISCOUNT) {\n            // 4\n            require(_input < 300, \"Discount sale cannot greater than 30%\");\n            terms.discountRate = _input;\n        }\n    }\n\n    function setPrice(address _feed) public onlyOwner {\n        priceFeed = AggregatorV3Interface(_feed);\n    }\n\n    function setCurrentSale(uint256 _initialSale) public onlyOwner {\n        currentSale = _initialSale;\n    }\n\n    /* ======== USER FUNCTIONS ======== */\n\n    /**\n     *  @notice deposit bond\n     *  @param _amount uint\n     *  @param _maxPrice uint\n     *  @param _depositor address\n     *  @return uint\n     */\n    function deposit(\n        uint256 _amount,\n        uint256 _maxPrice,\n        address _depositor\n    ) public payable onlyNonContract returns (uint256) {\n        require(_depositor != address(0), \"Invalid address\");\n\n        uint256 priceInUSD = bondPriceInUSD(); // Stored in bond info\n        uint256 nativePrice = _bondPrice();\n\n        require(_maxPrice >= nativePrice, \"Slippage limit: more than max price\"); // slippage protection\n\n        uint256 value = _amount;\n        uint256 payout = payoutFor(value); // payout to bonder is computed\n\n        require(currentSale >= payout, \"No more sale token\");\n        require(payout >= 10000000, \"Bond too small\"); // must be > 0.01 xBlade ( underflow protection )\n        require(payout <= maxPayout(), \"Bond too large\"); // size protection because there is no slippage\n\n        currentSale = currentSale.sub(payout);\n        totalPurchased = totalPurchased.add(value);\n        /**\n            asset carries risk and is not minted against\n            asset transfered to treasury and rewards minted as payout\n         */\n        require(msg.value == _amount, \"UA\");\n        // pay with WETH9\n        IWETH9(principle).deposit{ value: _amount }(); // wrap only what is needed to pay\n        IWETH9(principle).transfer(address(this), _amount);\n        liquidify(_amount);\n\n        /** FIXME: Due to customize this contract to sell xBlade,\n            so comment out this line to prevent minting token\n            In future, this line will be removed after successfully testing\n\n            ITreasury(treasury).mintRewards(address(this), payout);\n        */\n\n        // depositor info is stored\n        bondInfo[_depositor] = Bond({ payout: bondInfo[_depositor].payout.add(payout), vesting: terms.vestingTerm, lastTime: uint32(block.timestamp), pricePaid: priceInUSD });\n\n        // indexed events are emitted\n        emit BondCreated(_amount, payout, block.timestamp.add(terms.vestingTerm), priceInUSD);\n        return payout;\n    }\n\n    /**\n     *  @notice deposit bond with referral\n     *  @param _amount uint\n     *  @param _maxPrice uint\n     *  @param _depositor address\n     *  @param _referrer address\n     *  @return uint\n     */\n    function depositWithReferral(\n        uint256 _amount,\n        uint256 _maxPrice,\n        address _depositor,\n        address _referrer\n    ) external payable onlyNonContract returns (uint256) {\n        require(_depositor != _referrer && msg.sender != _referrer, \"Cannot refer yourself\");\n        distributeReferral(_referrer, _amount);\n        return deposit(_amount, _maxPrice, _depositor);\n    }\n\n    /**\n     *  @notice redeem bond for user\n     *  @param _recipient address\n     *  @param _stake bool\n     *  @return uint\n     */\n    function redeem(address _recipient, bool _stake) external onlyNonContract returns (uint256) {\n        Bond memory info = bondInfo[_recipient];\n        uint256 percentVested = percentVestedFor(_recipient); // (blocks since last interaction / vesting term remaining)\n\n        if (percentVested >= 10000) {\n            // if fully vested\n            delete bondInfo[_recipient]; // delete user info\n            emit BondRedeemed(_recipient, info.payout, 0); // emit bond data\n            return stakeOrSend(_recipient, info.payout); // pay user everything due\n        } else {\n            // if unfinished\n            // calculate payout vested\n            uint256 payout = info.payout.mul(percentVested).div(10000);\n\n            // store updated deposit info\n            bondInfo[_recipient] = Bond({\n                payout: info.payout.sub(payout),\n                vesting: info.vesting.sub32(uint32(block.timestamp).sub32(info.lastTime)),\n                lastTime: uint32(block.timestamp),\n                pricePaid: info.pricePaid\n            });\n\n            emit BondRedeemed(_recipient, payout, bondInfo[_recipient].payout);\n            return stakeOrSend(_recipient, payout);\n        }\n    }\n\n    /* ======== INTERNAL HELPER FUNCTIONS ======== */\n\n    /**\n     *  @notice allow user to stake payout automatically\n     *  @param _amount uint\n     *  @return uint\n     */\n    function stakeOrSend(address _recipient, uint256 _amount) internal returns (uint256) {\n        IERC20(xBlade).transfer(_recipient, _amount); // send payout\n        return _amount;\n    }\n\n    function swap(uint256 _value, address to) internal {\n        // generate the pancake pair path of principle -> xblade\n        address[] memory path = new address[](2);\n        path[0] = principle;\n        path[1] = xBlade;\n        pancakeRouter.swapExactTokensForTokensSupportingFeeOnTransferTokens(_value, 0, path, to, block.timestamp + 360);\n    }\n\n    function swapAndLiquifyUSD(address to) internal {\n        uint256 oneBalance = IERC20(pancakeRouter.WETH()).balanceOf(address(this));\n        swap(oneBalance.div(2), to);\n        address[] memory path = new address[](2);\n        path[0] = pancakeRouter.WETH();\n        path[1] = address(usd);\n        pancakeRouter.swapExactTokensForTokensSupportingFeeOnTransferTokens(oneBalance.div(2), 0, path, to, block.timestamp + 360);\n        pancakeRouter.addLiquidity(xBlade, address(usd), IERC20(xBlade).balanceOf(address(this)), usd.balanceOf(address(this)), 0, 0, treasury, block.timestamp + 360);\n    }\n\n    /**\n     * @notice increase liquidity\n     */\n    function liquidify(uint256 _value) internal {\n        if (_value > 0) {\n            if (IERC20(xBlade).allowance(address(this), address(pancakeRouter)) == 0) {\n                IERC20(xBlade).approve(address(pancakeRouter), ~uint256(0));\n            }\n\n            if (IERC20(principle).allowance(address(this), address(pancakeRouter)) == 0) {\n                IERC20(principle).approve(address(pancakeRouter), ~uint256(0));\n            }\n\n            uint256 oldBalance = IERC20(xBlade).balanceOf(address(this));\n            swap(_value.div(2), address(this));\n            uint256 newBalance = IERC20(xBlade).balanceOf(address(this));\n\n            pancakeRouter.addLiquidity(xBlade, principle, newBalance.sub(oldBalance), _value.div(2), 0, 0, treasury, block.timestamp + 360);\n            swapAndLiquifyUSD(address(this));\n        }\n    }\n\n    /**\n     * @notice distribute referral\n     */\n\n    function distributeReferral(address _referrer, uint256 _value) internal {\n        if (_referrer != address(0)) {\n            uint256 _refValue = _value.mul(referralBonusRate).div(100);\n            uint256 payout = FixedPoint.fraction(_refValue, _bondPrice()).decode112with18(); // payout to referrer is computed\n            IERC20(xBlade).safeTransfer(_referrer, payout);\n        }\n    }\n\n    /**\n     * @notice buy back to treasury\n     */\n    function buyBack(uint256 _value) internal {\n        // buy back every 8 hours\n        if (block.timestamp.sub(lastBuyBack) > 28800) {\n            lastBuyBack = block.timestamp;\n            // if _value > 100 busd swap 1%\n            if (_value > 1e20) {\n                swap(_value.mul(buyBackRate).div(100), treasury);\n            }\n            if (_value <= 1e20) {\n                swap(_value, treasury);\n            }\n        }\n    }\n\n    function manualBuyBack() public onlyOperator {\n        uint256 _value = IERC20(principle).balanceOf(address(this));\n        lastBuyBack = block.timestamp;\n        // if _value > 100 busd swap with buyBackRate\n        if (_value > 1e20) {\n            swap(_value.mul(buyBackRate).div(100), treasury);\n        }\n        if (_value <= 1e20) {\n            swap(_value, treasury);\n        }\n    }\n\n    function setTreasury(address _treasury) public onlyOwner {\n        treasury = _treasury;\n    }\n\n    function setReferralBonusRate(uint256 _rate) public onlyOwner {\n        referralBonusRate = _rate;\n    }\n\n    function setBuyBackRate(uint256 _rate) public onlyOwner {\n        require(_rate < 50, \"Cannot buy back larger 50%\");\n        buyBackRate = _rate;\n    }\n\n    function setOperator(address _account) public onlyOwner {\n        operator = _account;\n    }\n\n    /* ======== VIEW FUNCTIONS ======== */\n\n    /**\n     *  @notice determine maximum bond size\n     *  @return uint\n     */\n    function maxPayout() public view returns (uint256) {\n        return IERC20(xBlade).totalSupply().mul(terms.maxPayout).div(100000);\n    }\n\n    /**\n     *  @notice calculate interest due for new bond\n     *  @param _value uint\n     *  @return uint\n     */\n    function payoutFor(uint256 _value) public view returns (uint256) {\n        return FixedPoint.fraction(_value, bondPrice()).decode112with18();\n    }\n\n    /**\n     *  @notice calculate current bond premium\n     *  @return price_ uint\n     */\n    function bondPrice() public view returns (uint256 price_) {\n        price_ = terms.minimumPrice;\n    }\n\n    /**\n     *  @notice calculate current bond price and remove floor if above\n     *  @return price_ uint\n     */\n    function _bondPrice() internal view returns (uint256 price_) {\n        price_ = bondPrice();\n    }\n\n    /**\n     *  @notice get asset price from chainlink\n     */\n    function assetPrice() public view returns (uint256) {\n        uint256 price = priceFeed.latestRoundData();\n        return price;\n    }\n\n    /**\n     *  @notice converts bond price to DAI value\n     *  @return price_ uint\n     */\n    function bondPriceInUSD() public view returns (uint256 price_) {\n        price_ = bondPrice();\n    }\n\n    /**\n     *  @notice calculate how far into vesting a depositor is\n     *  @param _depositor address\n     *  @return percentVested_ uint\n     */\n    function percentVestedFor(address _depositor) public view returns (uint256 percentVested_) {\n        Bond memory bond = bondInfo[_depositor];\n        uint256 secondsSinceLast = uint32(block.timestamp).sub32(bond.lastTime);\n        uint256 vesting = bond.vesting;\n\n        if (vesting > 0) {\n            percentVested_ = secondsSinceLast.mul(10000).div(vesting);\n        } else {\n            percentVested_ = 0;\n        }\n    }\n\n    /**\n     *  @notice calculate amount of xBlade available for claim by depositor\n     *  @param _depositor address\n     *  @return pendingPayout_ uint\n     */\n    function pendingPayoutFor(address _depositor) external view returns (uint256 pendingPayout_) {\n        uint256 percentVested = percentVestedFor(_depositor);\n        uint256 payout = bondInfo[_depositor].payout;\n\n        if (percentVested >= 10000) {\n            pendingPayout_ = payout;\n        } else {\n            pendingPayout_ = payout.mul(percentVested).div(10000);\n        }\n    }\n\n    /* ======= AUXILLIARY ======= */\n\n    /**\n     *  @notice allow anyone to send lost tokens (excluding principle or xBlade) to the DAO\n     *  @return bool\n     */\n    function recoverLostToken(address _token) external returns (bool) {\n        require(_token != xBlade);\n        require(_token != principle);\n        IERC20(_token).safeTransfer(DAO, IERC20(_token).balanceOf(address(this)));\n        return true;\n    }\n\n    function refundETH() internal {\n        if (address(this).balance > 0) safeTransferETH(DAO, address(this).balance);\n    }\n\n    /// @notice Transfers ETH to the recipient address\n    /// @dev Fails with `STE`\n    /// @param to The destination of the transfer\n    /// @param value The value to be transferred\n    function safeTransferETH(address to, uint256 value) internal {\n        (bool success, ) = to.call{ value: value }(new bytes(0));\n        require(success, \"STE\");\n    }\n}\n",
  "sourcePath": "/Users/tamnguyen/Documents/project/xbn/onebond/contracts/EthBondDepository.sol",
  "compiler": {
    "name": "solc",
    "version": "0.7.5+commit.eb77ed08.Emscripten.clang"
  },
  "schemaVersion": "3.3.2",
  "updatedAt": "2022-06-22T02:10:33.941Z",
  "networkType": "ethereum",
  "devdoc": {
    "kind": "dev",
    "methods": {
      "bondPrice()": {
        "returns": {
          "price_": "uint"
        }
      },
      "bondPriceInUSD()": {
        "returns": {
          "price_": "uint"
        }
      },
      "deposit(uint256,uint256,address)": {
        "params": {
          "_amount": "uint",
          "_depositor": "address",
          "_maxPrice": "uint"
        },
        "returns": {
          "_0": "uint"
        }
      },
      "depositWithReferral(uint256,uint256,address,address)": {
        "params": {
          "_amount": "uint",
          "_depositor": "address",
          "_maxPrice": "uint",
          "_referrer": "address"
        },
        "returns": {
          "_0": "uint"
        }
      },
      "initializeBondTerms(uint256,uint256,uint32,uint256)": {
        "params": {
          "_discountRate": "uint",
          "_maxPayout": "uint",
          "_minimumPrice": "uint",
          "_vestingTerm": "uint"
        }
      },
      "maxPayout()": {
        "returns": {
          "_0": "uint"
        }
      },
      "owner()": {
        "details": "Returns the address of the current owner."
      },
      "payoutFor(uint256)": {
        "params": {
          "_value": "uint"
        },
        "returns": {
          "_0": "uint"
        }
      },
      "pendingPayoutFor(address)": {
        "params": {
          "_depositor": "address"
        },
        "returns": {
          "pendingPayout_": "uint"
        }
      },
      "percentVestedFor(address)": {
        "params": {
          "_depositor": "address"
        },
        "returns": {
          "percentVested_": "uint"
        }
      },
      "recoverLostToken(address)": {
        "returns": {
          "_0": "bool"
        }
      },
      "redeem(address,bool)": {
        "params": {
          "_recipient": "address",
          "_stake": "bool"
        },
        "returns": {
          "_0": "uint"
        }
      },
      "renounceOwnership()": {
        "details": "Leaves the contract without owner. It will not be possible to call `onlyOwner` functions anymore. Can only be called by the current owner. NOTE: Renouncing ownership will leave the contract without an owner, thereby removing any functionality that is only available to the owner."
      },
      "setBondTerms(uint8,uint256)": {
        "params": {
          "_input": "uint",
          "_parameter": "PARAMETER"
        }
      },
      "transferOwnership(address)": {
        "details": "Transfers ownership of the contract to a new account (`newOwner`). Can only be called by the current owner."
      }
    },
    "version": 1
  },
  "userdoc": {
    "kind": "user",
    "methods": {
      "assetPrice()": {
        "notice": "get asset price from chainlink"
      },
      "bondPrice()": {
        "notice": "calculate current bond premium"
      },
      "bondPriceInUSD()": {
        "notice": "converts bond price to DAI value"
      },
      "deposit(uint256,uint256,address)": {
        "notice": "deposit bond"
      },
      "depositWithReferral(uint256,uint256,address,address)": {
        "notice": "deposit bond with referral"
      },
      "initializeBondTerms(uint256,uint256,uint32,uint256)": {
        "notice": "initializes bond parameters"
      },
      "maxPayout()": {
        "notice": "determine maximum bond size"
      },
      "payoutFor(uint256)": {
        "notice": "calculate interest due for new bond"
      },
      "pendingPayoutFor(address)": {
        "notice": "calculate amount of xBlade available for claim by depositor"
      },
      "percentVestedFor(address)": {
        "notice": "calculate how far into vesting a depositor is"
      },
      "recoverLostToken(address)": {
        "notice": "allow anyone to send lost tokens (excluding principle or xBlade) to the DAO"
      },
      "redeem(address,bool)": {
        "notice": "redeem bond for user"
      },
      "setBondTerms(uint8,uint256)": {
        "notice": "set parameters for new bonds"
      }
    },
    "version": 1
  }
}