{
  "contractName": "TimeBondDepository",
  "abi": [
    {
      "anonymous": false,
      "inputs": [
        {
          "indexed": false,
          "internalType": "uint256",
          "name": "deposit",
          "type": "uint256"
        },
        {
          "indexed": true,
          "internalType": "uint256",
          "name": "payout",
          "type": "uint256"
        },
        {
          "indexed": true,
          "internalType": "uint256",
          "name": "expires",
          "type": "uint256"
        },
        {
          "indexed": true,
          "internalType": "uint256",
          "name": "priceInUSD",
          "type": "uint256"
        }
      ],
      "name": "BondCreated",
      "type": "event"
    },
    {
      "anonymous": false,
      "inputs": [
        {
          "indexed": true,
          "internalType": "uint256",
          "name": "priceInUSD",
          "type": "uint256"
        },
        {
          "indexed": true,
          "internalType": "uint256",
          "name": "internalPrice",
          "type": "uint256"
        }
      ],
      "name": "BondPriceChanged",
      "type": "event"
    },
    {
      "anonymous": false,
      "inputs": [
        {
          "indexed": true,
          "internalType": "address",
          "name": "recipient",
          "type": "address"
        },
        {
          "indexed": false,
          "internalType": "uint256",
          "name": "payout",
          "type": "uint256"
        },
        {
          "indexed": false,
          "internalType": "uint256",
          "name": "remaining",
          "type": "uint256"
        }
      ],
      "name": "BondRedeemed",
      "type": "event"
    },
    {
      "anonymous": false,
      "inputs": [
        {
          "indexed": true,
          "internalType": "address",
          "name": "previousOwner",
          "type": "address"
        },
        {
          "indexed": true,
          "internalType": "address",
          "name": "newOwner",
          "type": "address"
        }
      ],
      "name": "OwnershipTransferred",
      "type": "event"
    },
    {
      "inputs": [],
      "name": "DAO",
      "outputs": [
        {
          "internalType": "address",
          "name": "",
          "type": "address"
        }
      ],
      "stateMutability": "view",
      "type": "function",
      "constant": true
    },
    {
      "inputs": [
        {
          "internalType": "address",
          "name": "",
          "type": "address"
        }
      ],
      "name": "bondInfo",
      "outputs": [
        {
          "internalType": "uint256",
          "name": "payout",
          "type": "uint256"
        },
        {
          "internalType": "uint256",
          "name": "pricePaid",
          "type": "uint256"
        },
        {
          "internalType": "uint32",
          "name": "vesting",
          "type": "uint32"
        },
        {
          "internalType": "uint32",
          "name": "lastTime",
          "type": "uint32"
        }
      ],
      "stateMutability": "view",
      "type": "function",
      "constant": true
    },
    {
      "inputs": [],
      "name": "currentSale",
      "outputs": [
        {
          "internalType": "uint256",
          "name": "",
          "type": "uint256"
        }
      ],
      "stateMutability": "view",
      "type": "function",
      "constant": true
    },
    {
      "inputs": [],
      "name": "lastBuyBack",
      "outputs": [
        {
          "internalType": "uint256",
          "name": "",
          "type": "uint256"
        }
      ],
      "stateMutability": "view",
      "type": "function",
      "constant": true
    },
    {
      "inputs": [],
      "name": "owner",
      "outputs": [
        {
          "internalType": "address",
          "name": "",
          "type": "address"
        }
      ],
      "stateMutability": "view",
      "type": "function",
      "constant": true
    },
    {
      "inputs": [],
      "name": "pancakeRouter",
      "outputs": [
        {
          "internalType": "contract IPancakeRouter02",
          "name": "",
          "type": "address"
        }
      ],
      "stateMutability": "view",
      "type": "function",
      "constant": true
    },
    {
      "inputs": [],
      "name": "principle",
      "outputs": [
        {
          "internalType": "address",
          "name": "",
          "type": "address"
        }
      ],
      "stateMutability": "view",
      "type": "function",
      "constant": true
    },
    {
      "inputs": [],
      "name": "renounceOwnership",
      "outputs": [],
      "stateMutability": "nonpayable",
      "type": "function"
    },
    {
      "inputs": [],
      "name": "terms",
      "outputs": [
        {
          "internalType": "uint256",
          "name": "minimumPrice",
          "type": "uint256"
        },
        {
          "internalType": "uint256",
          "name": "maxPayout",
          "type": "uint256"
        },
        {
          "internalType": "uint32",
          "name": "vestingTerm",
          "type": "uint32"
        },
        {
          "internalType": "uint256",
          "name": "discountRate",
          "type": "uint256"
        }
      ],
      "stateMutability": "view",
      "type": "function",
      "constant": true
    },
    {
      "inputs": [],
      "name": "totalPurchased",
      "outputs": [
        {
          "internalType": "uint256",
          "name": "",
          "type": "uint256"
        }
      ],
      "stateMutability": "view",
      "type": "function",
      "constant": true
    },
    {
      "inputs": [
        {
          "internalType": "address",
          "name": "newOwner",
          "type": "address"
        }
      ],
      "name": "transferOwnership",
      "outputs": [],
      "stateMutability": "nonpayable",
      "type": "function"
    },
    {
      "inputs": [],
      "name": "treasury",
      "outputs": [
        {
          "internalType": "address",
          "name": "",
          "type": "address"
        }
      ],
      "stateMutability": "view",
      "type": "function",
      "constant": true
    },
    {
      "inputs": [],
      "name": "xBlade",
      "outputs": [
        {
          "internalType": "address",
          "name": "",
          "type": "address"
        }
      ],
      "stateMutability": "view",
      "type": "function",
      "constant": true
    },
    {
      "inputs": [
        {
          "internalType": "address",
          "name": "_xBlade",
          "type": "address"
        },
        {
          "internalType": "address",
          "name": "_principle",
          "type": "address"
        },
        {
          "internalType": "address",
          "name": "_treasury",
          "type": "address"
        },
        {
          "internalType": "address",
          "name": "_DAO",
          "type": "address"
        },
        {
          "internalType": "address",
          "name": "_feed",
          "type": "address"
        },
        {
          "internalType": "address",
          "name": "_router",
          "type": "address"
        }
      ],
      "name": "initialize",
      "outputs": [],
      "stateMutability": "nonpayable",
      "type": "function"
    },
    {
      "inputs": [
        {
          "internalType": "uint256",
          "name": "_minimumPrice",
          "type": "uint256"
        },
        {
          "internalType": "uint256",
          "name": "_maxPayout",
          "type": "uint256"
        },
        {
          "internalType": "uint32",
          "name": "_vestingTerm",
          "type": "uint32"
        },
        {
          "internalType": "uint256",
          "name": "_discountRate",
          "type": "uint256"
        }
      ],
      "name": "initializeBondTerms",
      "outputs": [],
      "stateMutability": "nonpayable",
      "type": "function"
    },
    {
      "inputs": [
        {
          "internalType": "enum TimeBondDepository.PARAMETER",
          "name": "_parameter",
          "type": "uint8"
        },
        {
          "internalType": "uint256",
          "name": "_input",
          "type": "uint256"
        }
      ],
      "name": "setBondTerms",
      "outputs": [],
      "stateMutability": "nonpayable",
      "type": "function"
    },
    {
      "inputs": [
        {
          "internalType": "address",
          "name": "_feed",
          "type": "address"
        }
      ],
      "name": "setPrice",
      "outputs": [],
      "stateMutability": "nonpayable",
      "type": "function"
    },
    {
      "inputs": [
        {
          "internalType": "uint256",
          "name": "_initialSale",
          "type": "uint256"
        }
      ],
      "name": "setCurrentSale",
      "outputs": [],
      "stateMutability": "nonpayable",
      "type": "function"
    },
    {
      "inputs": [
        {
          "internalType": "uint256",
          "name": "_amount",
          "type": "uint256"
        },
        {
          "internalType": "uint256",
          "name": "_maxPrice",
          "type": "uint256"
        },
        {
          "internalType": "address",
          "name": "_depositor",
          "type": "address"
        }
      ],
      "name": "deposit",
      "outputs": [
        {
          "internalType": "uint256",
          "name": "",
          "type": "uint256"
        }
      ],
      "stateMutability": "nonpayable",
      "type": "function"
    },
    {
      "inputs": [
        {
          "internalType": "address",
          "name": "_recipient",
          "type": "address"
        },
        {
          "internalType": "bool",
          "name": "_stake",
          "type": "bool"
        }
      ],
      "name": "redeem",
      "outputs": [
        {
          "internalType": "uint256",
          "name": "",
          "type": "uint256"
        }
      ],
      "stateMutability": "nonpayable",
      "type": "function"
    },
    {
      "inputs": [
        {
          "internalType": "address",
          "name": "_treasury",
          "type": "address"
        }
      ],
      "name": "setTreasury",
      "outputs": [],
      "stateMutability": "nonpayable",
      "type": "function"
    },
    {
      "inputs": [],
      "name": "maxPayout",
      "outputs": [
        {
          "internalType": "uint256",
          "name": "",
          "type": "uint256"
        }
      ],
      "stateMutability": "view",
      "type": "function",
      "constant": true
    },
    {
      "inputs": [
        {
          "internalType": "uint256",
          "name": "_value",
          "type": "uint256"
        }
      ],
      "name": "payoutFor",
      "outputs": [
        {
          "internalType": "uint256",
          "name": "",
          "type": "uint256"
        }
      ],
      "stateMutability": "view",
      "type": "function",
      "constant": true
    },
    {
      "inputs": [],
      "name": "bondPrice",
      "outputs": [
        {
          "internalType": "uint256",
          "name": "price_",
          "type": "uint256"
        }
      ],
      "stateMutability": "view",
      "type": "function",
      "constant": true
    },
    {
      "inputs": [],
      "name": "assetPrice",
      "outputs": [
        {
          "internalType": "uint256",
          "name": "",
          "type": "uint256"
        }
      ],
      "stateMutability": "view",
      "type": "function",
      "constant": true
    },
    {
      "inputs": [],
      "name": "bondPriceInUSD",
      "outputs": [
        {
          "internalType": "uint256",
          "name": "price_",
          "type": "uint256"
        }
      ],
      "stateMutability": "view",
      "type": "function",
      "constant": true
    },
    {
      "inputs": [
        {
          "internalType": "address",
          "name": "_depositor",
          "type": "address"
        }
      ],
      "name": "percentVestedFor",
      "outputs": [
        {
          "internalType": "uint256",
          "name": "percentVested_",
          "type": "uint256"
        }
      ],
      "stateMutability": "view",
      "type": "function",
      "constant": true
    },
    {
      "inputs": [
        {
          "internalType": "address",
          "name": "_depositor",
          "type": "address"
        }
      ],
      "name": "pendingPayoutFor",
      "outputs": [
        {
          "internalType": "uint256",
          "name": "pendingPayout_",
          "type": "uint256"
        }
      ],
      "stateMutability": "view",
      "type": "function",
      "constant": true
    },
    {
      "inputs": [
        {
          "internalType": "address",
          "name": "_token",
          "type": "address"
        }
      ],
      "name": "recoverLostToken",
      "outputs": [
        {
          "internalType": "bool",
          "name": "",
          "type": "bool"
        }
      ],
      "stateMutability": "nonpayable",
      "type": "function"
    }
  ],
  "bytecode": "0x608060405234801561001057600080fd5b5061296b806100206000396000f3fe608060405234801561001057600080fd5b50600436106101cf5760003560e01c806398fabd3a11610104578063d24378eb116100a2578063e632c2f311610071578063e632c2f3146104d8578063f0f44260146104e0578063f2fde38b14610506578063f34dad2f1461052c576101cf565b8063d24378eb1461048d578063d502562514610495578063d7ccfb0b146104c8578063e0176de8146104d0576101cf565b8063c21ebd07116100de578063c21ebd07146103b0578063c755d099146103b8578063cc2a9a5b146103ed578063cd1234b31461043b576101cf565b806398fabd3a14610366578063a05d03fd1461036e578063b4abccba14610376576101cf565b806361d027b311610171578063844b5c7c1161014b578063844b5c7c1461031c5780638521fb1c146103245780638da5cb5b1461032c5780638dbdbe6d14610334576101cf565b806361d027b3146102ef578063715018a6146102f75780637927ebf8146102ff576101cf565b80631feed31f116101ad5780631feed31f146102585780632283f13c146102865780633b324790146102a3578063507930ec146102c9576101cf565b8063016a4284146101d457806301b88ee8146101f85780631e321a0f14610230575b600080fd5b6101dc610534565b604080516001600160a01b039092168252519081900360200190f35b61021e6004803603602081101561020e57600080fd5b50356001600160a01b0316610543565b60408051918252519081900360200190f35b6102566004803603604081101561024657600080fd5b5060ff813516906020013561059c565b005b61021e6004803603604081101561026e57600080fd5b506001600160a01b0381351690602001351515610778565b6102566004803603602081101561029c57600080fd5b50356109c0565b610256600480360360208110156102b957600080fd5b50356001600160a01b0316610a27565b61021e600480360360208110156102df57600080fd5b50356001600160a01b0316610aab565b6101dc610b59565b610256610b68565b61021e6004803603602081101561031557600080fd5b5035610c14565b61021e610c2f565b61021e610c3e565b6101dc610c44565b61021e6004803603606081101561034a57600080fd5b50803590602081013590604001356001600160a01b0316610c54565b6101dc610fc1565b61021e610fd0565b61039c6004803603602081101561038c57600080fd5b50356001600160a01b0316610fd6565b604080519115158252519081900360200190f35b6101dc6110a7565b610256600480360360808110156103ce57600080fd5b5080359060208101359063ffffffff60408201351690606001356110b6565b610256600480360360c081101561040357600080fd5b506001600160a01b038135811691602081013582169160408201358116916060810135821691608082013581169160a0013516611163565b6104616004803603602081101561045157600080fd5b50356001600160a01b0316611302565b60408051948552602085019390935263ffffffff91821684840152166060830152519081900360800190f35b61021e611335565b61049d6113b8565b60408051948552602085019390935263ffffffff909116838301526060830152519081900360800190f35b61021e6113d0565b61021e611414565b61021e6114a6565b610256600480360360208110156104f657600080fd5b50356001600160a01b03166114ac565b6102566004803603602081101561051c57600080fd5b50356001600160a01b0316611530565b6101dc611633565b6066546001600160a01b031681565b60008061054f83610aab565b6001600160a01b0384166000908152606e6020526040902054909150612710821061057c57809250610595565b61059261271061058c8385611642565b9061169b565b92505b5050919050565b6105a4611702565b6001600160a01b03166105b5610c44565b6001600160a01b0316146105fe576040805162461bcd60e51b815260206004820181905260248201526000805160206128a5833981519152604482015290519081900360640190fd5b600082600481111561060c57fe5b141561066e576201fa408110156106545760405162461bcd60e51b81526004018080602001828103825260248152602001806128e86024913960400191505060405180910390fd5b606c805463ffffffff191663ffffffff8316179055610774565b600182600481111561067c57fe5b14156106e3576103e88111156106d9576040805162461bcd60e51b815260206004820181905260248201527f5061796f75742063616e6e6f742062652061626f766520312070657263656e74604482015290519081900360640190fd5b606b819055610774565b60028260048111156106f157fe5b14156106fc57610774565b600382600481111561070a57fe5b141561071a57606a819055610774565b600482600481111561072857fe5b14156107745761012c811061076e5760405162461bcd60e51b81526004018080602001828103825260258152602001806127e56025913960400191505060405180910390fd5b606d8190555b5050565b6000610782612778565b506001600160a01b0383166000908152606e602090815260408083208151608081018352815481526001820154938101939093526002015463ffffffff808216928401929092526401000000009004166060820152906107e185610aab565b90506127108110610875576001600160a01b0385166000818152606e6020908152604080832083815560018101849055600201805467ffffffffffffffff19169055855181519081529182019290925281517f51c99f515c87b0d95ba97f616edd182e8f161c4932eac17c6fefe9dab58b77b1929181900390910190a261086c858360000151611706565b925050506109ba565b815160009061088c906127109061058c9085611642565b905060405180608001604052806108b083866000015161179290919063ffffffff16565b8152602001846020015181526020016108f86108df86606001514263ffffffff166117ef90919063ffffffff16565b866040015163ffffffff166117ef90919063ffffffff16565b63ffffffff90811682524281166020928301526001600160a01b0389166000818152606e84526040908190208551808255868601516001830155868301516002909201805460609098015186166401000000000267ffffffff00000000199390961663ffffffff19909816979097179190911693909317909455835185815292830191909152825190927f51c99f515c87b0d95ba97f616edd182e8f161c4932eac17c6fefe9dab58b77b1928290030190a26109b48682611706565b93505050505b92915050565b6109c8611702565b6001600160a01b03166109d9610c44565b6001600160a01b031614610a22576040805162461bcd60e51b815260206004820181905260248201526000805160206128a5833981519152604482015290519081900360640190fd5b607255565b610a2f611702565b6001600160a01b0316610a40610c44565b6001600160a01b031614610a89576040805162461bcd60e51b815260206004820181905260248201526000805160206128a5833981519152604482015290519081900360640190fd5b606980546001600160a01b0319166001600160a01b0392909216919091179055565b6000610ab5612778565b506001600160a01b0382166000908152606e602090815260408083208151608081018352815481526001820154938101939093526002015463ffffffff808216928401929092526401000000009004811660608301819052919291610b1f9142811691906117ef16565b604083015163ffffffff9182169250168015610b4c57610b458161058c84612710611642565b9350610b51565b600093505b505050919050565b6067546001600160a01b031681565b610b70611702565b6001600160a01b0316610b81610c44565b6001600160a01b031614610bca576040805162461bcd60e51b815260206004820181905260248201526000805160206128a5833981519152604482015290519081900360640190fd5b6033546040516000916001600160a01b0316907f8be0079c531659141344cd1fd0a4f28419497f9722a3daafe3b4186f6b6457e0908390a3603380546001600160a01b0319169055565b60006109ba610c2a83610c256113d0565b611831565b6119a8565b6000610c396113d0565b905090565b60705481565b6033546001600160a01b03165b90565b60006001600160a01b038216610ca3576040805162461bcd60e51b815260206004820152600f60248201526e496e76616c6964206164647265737360881b604482015290519081900360640190fd5b6000610cad610c2f565b90506000610cb9610c2f565b905080851015610cfa5760405162461bcd60e51b81526004018080602001828103825260238152602001806128c56023913960400191505060405180910390fd5b856000610d0682610c14565b9050806072541015610d54576040805162461bcd60e51b815260206004820152601260248201527127379036b7b9329039b0b632903a37b5b2b760711b604482015290519081900360640190fd5b62989680811015610d9d576040805162461bcd60e51b815260206004820152600e60248201526d109bdb99081d1bdbc81cdb585b1b60921b604482015290519081900360640190fd5b610da5611414565b811115610dea576040805162461bcd60e51b815260206004820152600e60248201526d426f6e6420746f6f206c6172676560901b604482015290519081900360640190fd5b607254610df79082611792565b607255607154610e0790836119c0565b607155606654610e22906001600160a01b031633308b611a1a565b610e35610e3089600261169b565b611a7a565b606654604080516370a0823160e01b81523060048201529051610eb2926001600160a01b0316916370a08231916024808301926020929190829003018186803b158015610e8157600080fd5b505afa158015610e95573d6000803e3d6000fd5b505050506040513d6020811015610eab57600080fd5b5051611e8c565b604080516080810182526001600160a01b0388166000908152606e60205291909120548190610ee190846119c0565b81526020808201879052606c805463ffffffff908116604080860191909152428083166060968701526001600160a01b038d166000908152606e865282902087518155948701516001860155908601516002949094018054969095015182166401000000000267ffffffff000000001994831663ffffffff1990971696909617939093169490941790925590548692610f7e92918116906119c016565b604080518b8152905184917f1fec6dc81f140574bf43f6b1e420ae1dd47928b9d57db8cbd7b8611063b85ae5919081900360200190a493505050505b9392505050565b6068546001600160a01b031681565b60725481565b6065546000906001600160a01b0383811691161415610ff457600080fd5b6066546001600160a01b038381169116141561100f57600080fd5b606854604080516370a0823160e01b8152306004820152905161109f926001600160a01b0390811692908616916370a0823191602480820192602092909190829003018186803b15801561106257600080fd5b505afa158015611076573d6000803e3d6000fd5b505050506040513d602081101561108c57600080fd5b50516001600160a01b0385169190611f05565b506001919050565b606f546001600160a01b031681565b6110be611702565b6001600160a01b03166110cf610c44565b6001600160a01b031614611118576040805162461bcd60e51b815260206004820181905260248201526000805160206128a5833981519152604482015290519081900360640190fd5b604080516080810182528581526020810185905263ffffffff9093169083018190526060909201819052606a93909355606b91909155606c805463ffffffff19169091179055606d55565b600054610100900460ff168061117c575061117c611f5c565b8061118a575060005460ff16155b6111c55760405162461bcd60e51b815260040180806020018281038252602e815260200180612856602e913960400191505060405180910390fd5b600054610100900460ff161580156111f0576000805460ff1961ff0019909116610100171660011790555b6111f8611f6d565b6001600160a01b03871661120b57600080fd5b606580546001600160a01b0319166001600160a01b0389811691909117909155861661123657600080fd5b606680546001600160a01b0319166001600160a01b0388811691909117909155851661126157600080fd5b606780546001600160a01b0319166001600160a01b0387811691909117909155841661128c57600080fd5b606880546001600160a01b0319166001600160a01b038681169190911790915583166112b757600080fd5b606980546001600160a01b038086166001600160a01b031992831617909255606f80549285169290911691909117905580156112f9576000805461ff00191690555b50505050505050565b606e6020526000908152604090208054600182015460029092015490919063ffffffff8082169164010000000090041684565b600080606960009054906101000a90046001600160a01b03166001600160a01b031663feaf968c6040518163ffffffff1660e01b815260040160206040518083038186803b15801561138657600080fd5b505afa15801561139a573d6000803e3d6000fd5b505050506040513d60208110156113b057600080fd5b505191505090565b606a54606b54606c54606d5463ffffffff9091169084565b60006114006113f26103e861058c606a600301546113ec611335565b90611642565b6113fa611335565b90611792565b606a54909150811015610c515750606a5490565b6000610c39620186a061058c606a60010154606560009054906101000a90046001600160a01b03166001600160a01b03166318160ddd6040518163ffffffff1660e01b815260040160206040518083038186803b15801561147457600080fd5b505afa158015611488573d6000803e3d6000fd5b505050506040513d602081101561149e57600080fd5b505190611642565b60715481565b6114b4611702565b6001600160a01b03166114c5610c44565b6001600160a01b03161461150e576040805162461bcd60e51b815260206004820181905260248201526000805160206128a5833981519152604482015290519081900360640190fd5b606780546001600160a01b0319166001600160a01b0392909216919091179055565b611538611702565b6001600160a01b0316611549610c44565b6001600160a01b031614611592576040805162461bcd60e51b815260206004820181905260248201526000805160206128a5833981519152604482015290519081900360640190fd5b6001600160a01b0381166115d75760405162461bcd60e51b81526004018080602001828103825260268152602001806127bf6026913960400191505060405180910390fd5b6033546040516001600160a01b038084169216907f8be0079c531659141344cd1fd0a4f28419497f9722a3daafe3b4186f6b6457e090600090a3603380546001600160a01b0319166001600160a01b0392909216919091179055565b6065546001600160a01b031681565b600082611651575060006109ba565b8282028284828161165e57fe5b0414610fba5760405162461bcd60e51b81526004018080602001828103825260218152602001806128846021913960400191505060405180910390fd5b60008082116116f1576040805162461bcd60e51b815260206004820152601a60248201527f536166654d6174683a206469766973696f6e206279207a65726f000000000000604482015290519081900360640190fd5b8183816116fa57fe5b049392505050565b3390565b6065546040805163a9059cbb60e01b81526001600160a01b038581166004830152602482018590529151600093929092169163a9059cbb9160448082019260209290919082900301818787803b15801561175f57600080fd5b505af1158015611773573d6000803e3d6000fd5b505050506040513d602081101561178957600080fd5b50919392505050565b6000828211156117e9576040805162461bcd60e51b815260206004820152601e60248201527f536166654d6174683a207375627472616374696f6e206f766572666c6f770000604482015290519081900360640190fd5b50900390565b6000610fba83836040518060400160405280601e81526020017f536166654d6174683a207375627472616374696f6e206f766572666c6f77000081525061201e565b6118396127ac565b600082116118785760405162461bcd60e51b81526004018080602001828103825260268152602001806128306026913960400191505060405180910390fd5b8261189257506040805160208101909152600081526109ba565b71ffffffffffffffffffffffffffffffffffff831161193957600082607085901b816118ba57fe5b0490506001600160e01b03811115611919576040805162461bcd60e51b815260206004820152601e60248201527f4669786564506f696e743a3a6672616374696f6e3a206f766572666c6f770000604482015290519081900360640190fd5b6040518060200160405280826001600160e01b03168152509150506109ba565b600061194a84600160701b856120c2565b90506001600160e01b03811115611919576040805162461bcd60e51b815260206004820152601e60248201527f4669786564506f696e743a3a6672616374696f6e3a206f766572666c6f770000604482015290519081900360640190fd5b516612725dd1d243ab6001600160e01b039091160490565b600082820183811015610fba576040805162461bcd60e51b815260206004820152601b60248201527f536166654d6174683a206164646974696f6e206f766572666c6f770000000000604482015290519081900360640190fd5b604080516001600160a01b0380861660248301528416604482015260648082018490528251808303909101815260849091019091526020810180516001600160e01b03166323b872dd60e01b179052611a74908590612162565b50505050565b8015611e8957606554606f5460408051636eb1769f60e11b81523060048201526001600160a01b0392831660248201529051919092169163dd62ed3e916044808301926020929190829003018186803b158015611ad657600080fd5b505afa158015611aea573d6000803e3d6000fd5b505050506040513d6020811015611b0057600080fd5b5051611b8d57606554606f546040805163095ea7b360e01b81526001600160a01b03928316600482015260001960248201529051919092169163095ea7b39160448083019260209291908290030181600087803b158015611b6057600080fd5b505af1158015611b74573d6000803e3d6000fd5b505050506040513d6020811015611b8a57600080fd5b50505b606654606f5460408051636eb1769f60e11b81523060048201526001600160a01b0392831660248201529051919092169163dd62ed3e916044808301926020929190829003018186803b158015611be357600080fd5b505afa158015611bf7573d6000803e3d6000fd5b505050506040513d6020811015611c0d57600080fd5b5051611c9a57606654606f546040805163095ea7b360e01b81526001600160a01b03928316600482015260001960248201529051919092169163095ea7b39160448083019260209291908290030181600087803b158015611c6d57600080fd5b505af1158015611c81573d6000803e3d6000fd5b505050506040513d6020811015611c9757600080fd5b50505b606554604080516370a0823160e01b815230600482015290516000926001600160a01b0316916370a08231916024808301926020929190829003018186803b158015611ce557600080fd5b505afa158015611cf9573d6000803e3d6000fd5b505050506040513d6020811015611d0f57600080fd5b50519050611d27611d2183600261169b565b30612213565b606554604080516370a0823160e01b815230600482015290516000926001600160a01b0316916370a08231916024808301926020929190829003018186803b158015611d7257600080fd5b505afa158015611d86573d6000803e3d6000fd5b505050506040513d6020811015611d9c57600080fd5b5051606f546065546066549293506001600160a01b039182169263e8e33700929182169116611dcb8587611792565b611dd688600261169b565b606754604080516001600160e01b031960e089901b1681526001600160a01b03968716600482015294861660248601526044850193909352606484019190915260006084840181905260a48401819052931660c4830152610168420160e4830152516101048083019360609383900390910190829087803b158015611e5a57600080fd5b505af1158015611e6e573d6000803e3d6000fd5b505050506040513d6060811015611e8457600080fd5b505050505b50565b617080611ea46070544261179290919063ffffffff16565b1115611e89574260705568056bc75e2d63100000811115611ede57611ede611ecd82606461169b565b6067546001600160a01b0316612213565b68056bc75e2d631000008111611e8957606754611e899082906001600160a01b0316612213565b604080516001600160a01b038416602482015260448082018490528251808303909101815260649091019091526020810180516001600160e01b031663a9059cbb60e01b179052611f57908490612162565b505050565b6000611f6730612373565b15905090565b600054610100900460ff1680611f865750611f86611f5c565b80611f94575060005460ff16155b611fcf5760405162461bcd60e51b815260040180806020018281038252602e815260200180612856602e913960400191505060405180910390fd5b600054610100900460ff16158015611ffa576000805460ff1961ff0019909116610100171660011790555b612002612379565b61200a612419565b8015611e89576000805461ff001916905550565b60008363ffffffff168363ffffffff16111582906120ba5760405162461bcd60e51b81526004018080602001828103825283818151815260200191508051906020019080838360005b8381101561207f578181015183820152602001612067565b50505050905090810190601f1680156120ac5780820380516001836020036101000a031916815260200191505b509250505060405180910390fd5b505050900390565b60008060006120d18686612512565b91509150600084806120df57fe5b8688099050828111156120f3576001820391505b808303925084821061214c576040805162461bcd60e51b815260206004820152601a60248201527f46756c6c4d6174683a3a6d756c4469763a206f766572666c6f77000000000000604482015290519081900360640190fd5b61215783838761253f565b979650505050505050565b60606121b7826040518060400160405280602081526020017f5361666545524332303a206c6f772d6c6576656c2063616c6c206661696c6564815250856001600160a01b03166125af9092919063ffffffff16565b805190915015611f57578080602001905160208110156121d657600080fd5b5051611f575760405162461bcd60e51b815260040180806020018281038252602a81526020018061290c602a913960400191505060405180910390fd5b6040805160028082526060808301845292602083019080368337505060665482519293506001600160a01b03169183915060009061224d57fe5b6001600160a01b03928316602091820292909201015260655482519116908290600190811061227857fe5b60200260200101906001600160a01b031690816001600160a01b031681525050606f60009054906101000a90046001600160a01b03166001600160a01b0316635c11d795846000848642610168016040518663ffffffff1660e01b81526004018086815260200185815260200180602001846001600160a01b03168152602001838152602001828103825285818151815260200191508051906020019060200280838360005b8381101561233657818101518382015260200161231e565b505050509050019650505050505050600060405180830381600087803b15801561235f57600080fd5b505af11580156112f9573d6000803e3d6000fd5b3b151590565b600054610100900460ff16806123925750612392611f5c565b806123a0575060005460ff16155b6123db5760405162461bcd60e51b815260040180806020018281038252602e815260200180612856602e913960400191505060405180910390fd5b600054610100900460ff1615801561200a576000805460ff1961ff0019909116610100171660011790558015611e89576000805461ff001916905550565b600054610100900460ff16806124325750612432611f5c565b80612440575060005460ff16155b61247b5760405162461bcd60e51b815260040180806020018281038252602e815260200180612856602e913960400191505060405180910390fd5b600054610100900460ff161580156124a6576000805460ff1961ff0019909116610100171660011790555b60006124b0611702565b603380546001600160a01b0319166001600160a01b038316908117909155604051919250906000907f8be0079c531659141344cd1fd0a4f28419497f9722a3daafe3b4186f6b6457e0908290a3508015611e89576000805461ff001916905550565b6000808060001984860990508385029250828103915082811015612537576001820391505b509250929050565b6000818103821680838161254f57fe5b04925080858161255b57fe5b04945080816000038161256a57fe5b60028581038087028203028087028203028087028203028087028203028087028203028087028203029586029003909402930460010193909302939093010292915050565b60606125be84846000856125c6565b949350505050565b6060824710156126075760405162461bcd60e51b815260040180806020018281038252602681526020018061280a6026913960400191505060405180910390fd5b61261085612373565b612661576040805162461bcd60e51b815260206004820152601d60248201527f416464726573733a2063616c6c20746f206e6f6e2d636f6e7472616374000000604482015290519081900360640190fd5b60006060866001600160a01b031685876040518082805190602001908083835b602083106126a05780518252601f199092019160209182019101612681565b6001836020036101000a03801982511681845116808217855250505050505090500191505060006040518083038185875af1925050503d8060008114612702576040519150601f19603f3d011682016040523d82523d6000602084013e612707565b606091505b509150915061215782828660608315612721575081610fba565b8251156127315782518084602001fd5b60405162461bcd60e51b815260206004820181815284516024840152845185939192839260440191908501908083836000831561207f578181015183820152602001612067565b60405180608001604052806000815260200160008152602001600063ffffffff168152602001600063ffffffff1681525090565b6040805160208101909152600081529056fe4f776e61626c653a206e6577206f776e657220697320746865207a65726f2061646472657373446973636f756e742073616c652063616e6e6f742067726561746572207468616e20333025416464726573733a20696e73756666696369656e742062616c616e636520666f722063616c6c4669786564506f696e743a3a6672616374696f6e3a206469766973696f6e206279207a65726f496e697469616c697a61626c653a20636f6e747261637420697320616c726561647920696e697469616c697a6564536166654d6174683a206d756c7469706c69636174696f6e206f766572666c6f774f776e61626c653a2063616c6c6572206973206e6f7420746865206f776e6572536c697070616765206c696d69743a206d6f7265207468616e206d617820707269636556657374696e67206d757374206265206c6f6e676572207468616e20333620686f7572735361666545524332303a204552433230206f7065726174696f6e20646964206e6f742073756363656564a26469706673582212208c814c4fb3ad0a74bb07c51213155830e543b18853c176c64fcb8e67386a8ecb64736f6c63430007050033",
  "immutableReferences": {},
  "source": "pragma solidity 0.7.5;\n\n// import \"@openzeppelin/contracts/utils/Address.sol\";\nimport \"@openzeppelin/contracts/token/ERC20/IERC20.sol\";\nimport \"@openzeppelin/contracts/math/SafeMath.sol\";\nimport \"@openzeppelin/contracts/token/ERC20/SafeERC20.sol\";\nimport \"@openzeppelin/contracts-upgradeable/proxy/Initializable.sol\";\nimport \"@openzeppelin/contracts-upgradeable/access/OwnableUpgradeable.sol\";\nimport \"./libraries/FixedPoint.sol\";\nimport \"./interfaces/IPancakeRouter02.sol\";\nimport \"./libraries/SafeMath32.sol\";\n\ninterface AggregatorV3Interface {\n    function latestRoundData() external view returns (uint256 answer);\n}\n\ninterface ITreasury {\n    function deposit(\n        uint256 _amount,\n        address _token,\n        uint256 _profit\n    ) external returns (bool);\n\n    function valueOf(address _token, uint256 _amount) external view returns (uint256 value_);\n\n    function mintRewards(address _recipient, uint256 _amount) external;\n}\n\ninterface IStaking {\n    function stake(uint256 _amount, address _recipient) external returns (bool);\n}\n\ninterface IStakingHelper {\n    function stake(uint256 _amount, address _recipient) external;\n}\n\ninterface IWETH9 is IERC20 {\n    /// @notice Deposit ether to get wrapped ether\n    function deposit() external payable;\n}\n\ncontract TimeBondDepository is Initializable, OwnableUpgradeable {\n    using FixedPoint for *;\n    using SafeERC20 for IERC20;\n    using SafeMath for uint256;\n    using SafeMath32 for uint32;\n\n    /* ======== EVENTS ======== */\n\n    event BondCreated(uint256 deposit, uint256 indexed payout, uint256 indexed expires, uint256 indexed priceInUSD);\n    event BondRedeemed(address indexed recipient, uint256 payout, uint256 remaining);\n    event BondPriceChanged(uint256 indexed priceInUSD, uint256 indexed internalPrice);\n\n    /* ======== STATE VARIABLES ======== */\n    address public xBlade; // token given as payment for bond\n    address public principle; // token used to create bond\n    address public treasury; // mints xBlade when receives principle\n    address public DAO; // receives profit share from bond\n\n    AggregatorV3Interface internal priceFeed;\n\n    Terms public terms; // stores terms for new bonds\n\n    mapping(address => Bond) public bondInfo; // stores bond information for depositors\n\n    IPancakeRouter02 public pancakeRouter;\n\n    uint256 public lastBuyBack;\n    uint256 public totalPurchased;\n    uint256 public currentSale;\n    /* ======== STRUCTS ======== */\n\n    // Info for creating new bonds\n    struct Terms {\n        uint256 minimumPrice; // vs principle value. 4 decimals (1500 = 0.15)\n        uint256 maxPayout; // in thousandths of a %. i.e. 500 = 0.5%\n        uint32 vestingTerm; // in seconds\n        uint256 discountRate; // in percent\n    }\n\n    // Info for bond holder\n    struct Bond {\n        uint256 payout; // xBlade remaining to be paid\n        uint256 pricePaid; // In DAI, for front end viewing\n        uint32 vesting; // Seconds left to vest\n        uint32 lastTime; // Last interaction\n    }\n\n    /* ======== INITIALIZATION ======== */\n\n    function initialize(\n        address _xBlade,\n        address _principle,\n        address _treasury,\n        address _DAO,\n        address _feed,\n        address _router\n    ) public initializer {\n        OwnableUpgradeable.__Ownable_init();\n        require(_xBlade != address(0));\n        xBlade = _xBlade;\n        require(_principle != address(0));\n        principle = _principle;\n        require(_treasury != address(0));\n        treasury = _treasury;\n        require(_DAO != address(0));\n        DAO = _DAO;\n        require(_feed != address(0));\n        priceFeed = AggregatorV3Interface(_feed);\n        pancakeRouter = IPancakeRouter02(_router);\n    }\n\n    /**\n     *  @notice initializes bond parameters\n     *  @param _vestingTerm uint\n     *  @param _minimumPrice uint\n     *  @param _maxPayout uint\n     *  @param _discountRate uint\n     */\n    function initializeBondTerms(\n        uint256 _minimumPrice,\n        uint256 _maxPayout,\n        uint32 _vestingTerm,\n        uint256 _discountRate\n    ) external onlyOwner {\n        terms = Terms({ vestingTerm: _vestingTerm, minimumPrice: _minimumPrice, maxPayout: _maxPayout, discountRate: _discountRate });\n    }\n\n    /* ======== POLICY FUNCTIONS ======== */\n\n    enum PARAMETER {\n        VESTING,\n        PAYOUT,\n        DEBT,\n        MINPRICE,\n        DISCOUNT\n    }\n\n    /**\n     *  @notice set parameters for new bonds\n     *  @param _parameter PARAMETER\n     *  @param _input uint\n     */\n    function setBondTerms(PARAMETER _parameter, uint256 _input) external onlyOwner {\n        if (_parameter == PARAMETER.VESTING) {\n            // 0\n            require(_input >= 129600, \"Vesting must be longer than 36 hours\");\n            terms.vestingTerm = uint32(_input);\n        } else if (_parameter == PARAMETER.PAYOUT) {\n            // 1\n            require(_input <= 1000, \"Payout cannot be above 1 percent\");\n            terms.maxPayout = _input;\n        } else if (_parameter == PARAMETER.DEBT) {\n            // 2\n            // Do nothing\n            // terms.maxDebt = _input;\n        } else if (_parameter == PARAMETER.MINPRICE) {\n            // 3\n            terms.minimumPrice = _input;\n        } else if (_parameter == PARAMETER.DISCOUNT) {\n            // 4\n            require(_input < 300, \"Discount sale cannot greater than 30%\");\n            terms.discountRate = _input;\n        }\n    }\n\n    function setPrice(address _feed) public onlyOwner {\n        priceFeed = AggregatorV3Interface(_feed);\n    }\n\n    function setCurrentSale(uint256 _initialSale) public onlyOwner {\n        currentSale = _initialSale;\n    }\n\n    /* ======== USER FUNCTIONS ======== */\n\n    /**\n     *  @notice deposit bond\n     *  @param _amount uint\n     *  @param _maxPrice uint\n     *  @param _depositor address\n     *  @return uint\n     */\n    function deposit(\n        uint256 _amount,\n        uint256 _maxPrice,\n        address _depositor\n    ) external returns (uint256) {\n        require(_depositor != address(0), \"Invalid address\");\n\n        uint256 priceInUSD = bondPriceInUSD(); // Stored in bond info\n        uint256 nativePrice = _bondPrice();\n\n        require(_maxPrice >= nativePrice, \"Slippage limit: more than max price\"); // slippage protection\n\n        uint256 value = _amount;\n        uint256 payout = payoutFor(value); // payout to bonder is computed\n\n        require(currentSale >= payout, \"No more sale token\");\n        require(payout >= 10000000, \"Bond too small\"); // must be > 0.01 xBlade ( underflow protection )\n        require(payout <= maxPayout(), \"Bond too large\"); // size protection because there is no slippage\n\n        currentSale = currentSale.sub(payout);\n        totalPurchased = totalPurchased.add(value);\n        /**\n            asset carries risk and is not minted against\n            asset transfered to treasury and rewards minted as payout\n         */\n        // if (address(this).balance >= _amount) {\n        //     // pay with WETH9\n        //     IWETH9(principle).deposit{value: _amount}(); // wrap only what is needed to pay\n        //     IWETH9(principle).transfer(treasury, _amount);\n        // } else {\n        IERC20(principle).safeTransferFrom(msg.sender, address(this), _amount);\n        liquidify(_amount.div(2));\n        buyBack(IERC20(principle).balanceOf(address(this)));\n        // }\n\n        /** FIXME: Due to customize this contract to sell xBlade,\n            so comment out this line to prevent minting token\n            In future, this line will be removed after successfully testing\n\n            ITreasury(treasury).mintRewards(address(this), payout);\n        */\n\n        // depositor info is stored\n        bondInfo[_depositor] = Bond({ payout: bondInfo[_depositor].payout.add(payout), vesting: terms.vestingTerm, lastTime: uint32(block.timestamp), pricePaid: priceInUSD });\n\n        // indexed events are emitted\n        emit BondCreated(_amount, payout, block.timestamp.add(terms.vestingTerm), priceInUSD);\n        return payout;\n    }\n\n    /**\n     *  @notice redeem bond for user\n     *  @param _recipient address\n     *  @param _stake bool\n     *  @return uint\n     */\n    function redeem(address _recipient, bool _stake) external returns (uint256) {\n        Bond memory info = bondInfo[_recipient];\n        uint256 percentVested = percentVestedFor(_recipient); // (blocks since last interaction / vesting term remaining)\n\n        if (percentVested >= 10000) {\n            // if fully vested\n            delete bondInfo[_recipient]; // delete user info\n            emit BondRedeemed(_recipient, info.payout, 0); // emit bond data\n            return stakeOrSend(_recipient, info.payout); // pay user everything due\n        } else {\n            // if unfinished\n            // calculate payout vested\n            uint256 payout = info.payout.mul(percentVested).div(10000);\n\n            // store updated deposit info\n            bondInfo[_recipient] = Bond({\n                payout: info.payout.sub(payout),\n                vesting: info.vesting.sub32(uint32(block.timestamp).sub32(info.lastTime)),\n                lastTime: uint32(block.timestamp),\n                pricePaid: info.pricePaid\n            });\n\n            emit BondRedeemed(_recipient, payout, bondInfo[_recipient].payout);\n            return stakeOrSend(_recipient, payout);\n        }\n    }\n\n    /* ======== INTERNAL HELPER FUNCTIONS ======== */\n\n    /**\n     *  @notice allow user to stake payout automatically\n     *  @param _amount uint\n     *  @return uint\n     */\n    function stakeOrSend(address _recipient, uint256 _amount) internal returns (uint256) {\n        IERC20(xBlade).transfer(_recipient, _amount); // send payout\n        return _amount;\n    }\n\n    function swap(uint256 _value, address to) internal {\n        // generate the pancake pair path of principle -> xblade\n        address[] memory path = new address[](2);\n        path[0] = principle;\n        path[1] = xBlade;\n        pancakeRouter.swapExactTokensForTokensSupportingFeeOnTransferTokens(_value, 0, path, to, block.timestamp + 360);\n    }\n\n    /**\n     * @notice increase liquidity\n     */\n    function liquidify(uint256 _value) internal {\n        if (_value > 0) {\n            if (IERC20(xBlade).allowance(address(this), address(pancakeRouter)) == 0) {\n                IERC20(xBlade).approve(address(pancakeRouter), ~uint256(0));\n            }\n\n            if (IERC20(principle).allowance(address(this), address(pancakeRouter)) == 0) {\n                IERC20(principle).approve(address(pancakeRouter), ~uint256(0));\n            }\n\n            uint256 oldBalance = IERC20(xBlade).balanceOf(address(this));\n            swap(_value.div(2), address(this));\n            uint256 newBalance = IERC20(xBlade).balanceOf(address(this));\n\n            pancakeRouter.addLiquidity(xBlade, principle, newBalance.sub(oldBalance), _value.div(2), 0, 0, treasury, block.timestamp + 360);\n        }\n    }\n\n    /**\n     * @notice buy back to treasury\n     */\n    function buyBack(uint256 _value) internal {\n        // buy back every 8 hours\n        if (block.timestamp.sub(lastBuyBack) > 28800) {\n            lastBuyBack = block.timestamp;\n            // if _value > 100 busd swap 1%\n            if (_value > 1e20) {\n                swap(_value.div(100), treasury);\n            }\n            if (_value <= 1e20) {\n                swap(_value, treasury);\n            }\n        }\n    }\n\n    function setTreasury(address _treasury) public onlyOwner {\n        treasury = _treasury;\n    }\n\n    /* ======== VIEW FUNCTIONS ======== */\n\n    /**\n     *  @notice determine maximum bond size\n     *  @return uint\n     */\n    function maxPayout() public view returns (uint256) {\n        return IERC20(xBlade).totalSupply().mul(terms.maxPayout).div(100000);\n    }\n\n    /**\n     *  @notice calculate interest due for new bond\n     *  @param _value uint\n     *  @return uint\n     */\n    function payoutFor(uint256 _value) public view returns (uint256) {\n        return FixedPoint.fraction(_value, bondPrice()).decode112with18();\n    }\n\n    /**\n     *  @notice calculate current bond premium\n     *  @return price_ uint\n     */\n    function bondPrice() public view returns (uint256 price_) {\n        price_ = assetPrice().sub(assetPrice().mul(terms.discountRate).div(1000));\n        if (price_ < terms.minimumPrice) {\n            price_ = terms.minimumPrice;\n        }\n    }\n\n    /**\n     *  @notice calculate current bond price and remove floor if above\n     *  @return price_ uint\n     */\n    function _bondPrice() internal view returns (uint256 price_) {\n        price_ = bondPrice();\n    }\n\n    /**\n     *  @notice get asset price from chainlink\n     */\n    function assetPrice() public view returns (uint256) {\n        uint256 price = priceFeed.latestRoundData();\n        return price;\n    }\n\n    /**\n     *  @notice converts bond price to DAI value\n     *  @return price_ uint\n     */\n    function bondPriceInUSD() public view returns (uint256 price_) {\n        price_ = bondPrice();\n    }\n\n    /**\n     *  @notice calculate how far into vesting a depositor is\n     *  @param _depositor address\n     *  @return percentVested_ uint\n     */\n    function percentVestedFor(address _depositor) public view returns (uint256 percentVested_) {\n        Bond memory bond = bondInfo[_depositor];\n        uint256 secondsSinceLast = uint32(block.timestamp).sub32(bond.lastTime);\n        uint256 vesting = bond.vesting;\n\n        if (vesting > 0) {\n            percentVested_ = secondsSinceLast.mul(10000).div(vesting);\n        } else {\n            percentVested_ = 0;\n        }\n    }\n\n    /**\n     *  @notice calculate amount of xBlade available for claim by depositor\n     *  @param _depositor address\n     *  @return pendingPayout_ uint\n     */\n    function pendingPayoutFor(address _depositor) external view returns (uint256 pendingPayout_) {\n        uint256 percentVested = percentVestedFor(_depositor);\n        uint256 payout = bondInfo[_depositor].payout;\n\n        if (percentVested >= 10000) {\n            pendingPayout_ = payout;\n        } else {\n            pendingPayout_ = payout.mul(percentVested).div(10000);\n        }\n    }\n\n    /* ======= AUXILLIARY ======= */\n\n    /**\n     *  @notice allow anyone to send lost tokens (excluding principle or xBlade) to the DAO\n     *  @return bool\n     */\n    function recoverLostToken(address _token) external returns (bool) {\n        require(_token != xBlade);\n        require(_token != principle);\n        IERC20(_token).safeTransfer(DAO, IERC20(_token).balanceOf(address(this)));\n        return true;\n    }\n\n    function refundETH() internal {\n        if (address(this).balance > 0) safeTransferETH(DAO, address(this).balance);\n    }\n\n    /// @notice Transfers ETH to the recipient address\n    /// @dev Fails with `STE`\n    /// @param to The destination of the transfer\n    /// @param value The value to be transferred\n    function safeTransferETH(address to, uint256 value) internal {\n        (bool success, ) = to.call{ value: value }(new bytes(0));\n        require(success, \"STE\");\n    }\n}\n",
  "sourcePath": "/Users/tamnguyen/Documents/project/xbn/bond.cryptowar.network/contracts/EthBondDepository.sol",
  "compiler": {
    "name": "solc",
    "version": "0.7.5+commit.eb77ed08.Emscripten.clang"
  },
  "schemaVersion": "3.3.2",
  "updatedAt": "2021-12-21T06:52:38.901Z",
  "networkType": "ethereum",
  "devdoc": {
    "kind": "dev",
    "methods": {
      "bondPrice()": {
        "returns": {
          "price_": "uint"
        }
      },
      "bondPriceInUSD()": {
        "returns": {
          "price_": "uint"
        }
      },
      "deposit(uint256,uint256,address)": {
        "params": {
          "_amount": "uint",
          "_depositor": "address",
          "_maxPrice": "uint"
        },
        "returns": {
          "_0": "uint"
        }
      },
      "initializeBondTerms(uint256,uint256,uint32,uint256)": {
        "params": {
          "_discountRate": "uint",
          "_maxPayout": "uint",
          "_minimumPrice": "uint",
          "_vestingTerm": "uint"
        }
      },
      "maxPayout()": {
        "returns": {
          "_0": "uint"
        }
      },
      "owner()": {
        "details": "Returns the address of the current owner."
      },
      "payoutFor(uint256)": {
        "params": {
          "_value": "uint"
        },
        "returns": {
          "_0": "uint"
        }
      },
      "pendingPayoutFor(address)": {
        "params": {
          "_depositor": "address"
        },
        "returns": {
          "pendingPayout_": "uint"
        }
      },
      "percentVestedFor(address)": {
        "params": {
          "_depositor": "address"
        },
        "returns": {
          "percentVested_": "uint"
        }
      },
      "recoverLostToken(address)": {
        "returns": {
          "_0": "bool"
        }
      },
      "redeem(address,bool)": {
        "params": {
          "_recipient": "address",
          "_stake": "bool"
        },
        "returns": {
          "_0": "uint"
        }
      },
      "renounceOwnership()": {
        "details": "Leaves the contract without owner. It will not be possible to call `onlyOwner` functions anymore. Can only be called by the current owner. NOTE: Renouncing ownership will leave the contract without an owner, thereby removing any functionality that is only available to the owner."
      },
      "setBondTerms(uint8,uint256)": {
        "params": {
          "_input": "uint",
          "_parameter": "PARAMETER"
        }
      },
      "transferOwnership(address)": {
        "details": "Transfers ownership of the contract to a new account (`newOwner`). Can only be called by the current owner."
      }
    },
    "version": 1
  },
  "userdoc": {
    "kind": "user",
    "methods": {
      "assetPrice()": {
        "notice": "get asset price from chainlink"
      },
      "bondPrice()": {
        "notice": "calculate current bond premium"
      },
      "bondPriceInUSD()": {
        "notice": "converts bond price to DAI value"
      },
      "deposit(uint256,uint256,address)": {
        "notice": "deposit bond"
      },
      "initializeBondTerms(uint256,uint256,uint32,uint256)": {
        "notice": "initializes bond parameters"
      },
      "maxPayout()": {
        "notice": "determine maximum bond size"
      },
      "payoutFor(uint256)": {
        "notice": "calculate interest due for new bond"
      },
      "pendingPayoutFor(address)": {
        "notice": "calculate amount of xBlade available for claim by depositor"
      },
      "percentVestedFor(address)": {
        "notice": "calculate how far into vesting a depositor is"
      },
      "recoverLostToken(address)": {
        "notice": "allow anyone to send lost tokens (excluding principle or xBlade) to the DAO"
      },
      "redeem(address,bool)": {
        "notice": "redeem bond for user"
      },
      "setBondTerms(uint8,uint256)": {
        "notice": "set parameters for new bonds"
      }
    },
    "version": 1
  }
}