{
  "contractName": "TimeBondDepository",
  "abi": [
    {
      "anonymous": false,
      "inputs": [
        {
          "indexed": false,
          "internalType": "uint256",
          "name": "deposit",
          "type": "uint256"
        },
        {
          "indexed": true,
          "internalType": "uint256",
          "name": "payout",
          "type": "uint256"
        },
        {
          "indexed": true,
          "internalType": "uint256",
          "name": "expires",
          "type": "uint256"
        },
        {
          "indexed": true,
          "internalType": "uint256",
          "name": "priceInUSD",
          "type": "uint256"
        }
      ],
      "name": "BondCreated",
      "type": "event"
    },
    {
      "anonymous": false,
      "inputs": [
        {
          "indexed": true,
          "internalType": "uint256",
          "name": "priceInUSD",
          "type": "uint256"
        },
        {
          "indexed": true,
          "internalType": "uint256",
          "name": "internalPrice",
          "type": "uint256"
        },
        {
          "indexed": true,
          "internalType": "uint256",
          "name": "debtRatio",
          "type": "uint256"
        }
      ],
      "name": "BondPriceChanged",
      "type": "event"
    },
    {
      "anonymous": false,
      "inputs": [
        {
          "indexed": true,
          "internalType": "address",
          "name": "recipient",
          "type": "address"
        },
        {
          "indexed": false,
          "internalType": "uint256",
          "name": "payout",
          "type": "uint256"
        },
        {
          "indexed": false,
          "internalType": "uint256",
          "name": "remaining",
          "type": "uint256"
        }
      ],
      "name": "BondRedeemed",
      "type": "event"
    },
    {
      "anonymous": false,
      "inputs": [
        {
          "indexed": true,
          "internalType": "address",
          "name": "previousOwner",
          "type": "address"
        },
        {
          "indexed": true,
          "internalType": "address",
          "name": "newOwner",
          "type": "address"
        }
      ],
      "name": "OwnershipTransferred",
      "type": "event"
    },
    {
      "inputs": [],
      "name": "DAO",
      "outputs": [
        {
          "internalType": "address",
          "name": "",
          "type": "address"
        }
      ],
      "stateMutability": "view",
      "type": "function",
      "constant": true
    },
    {
      "inputs": [
        {
          "internalType": "address",
          "name": "",
          "type": "address"
        }
      ],
      "name": "bondInfo",
      "outputs": [
        {
          "internalType": "uint256",
          "name": "payout",
          "type": "uint256"
        },
        {
          "internalType": "uint256",
          "name": "pricePaid",
          "type": "uint256"
        },
        {
          "internalType": "uint32",
          "name": "vesting",
          "type": "uint32"
        },
        {
          "internalType": "uint32",
          "name": "lastTime",
          "type": "uint32"
        }
      ],
      "stateMutability": "view",
      "type": "function",
      "constant": true
    },
    {
      "inputs": [],
      "name": "currentSale",
      "outputs": [
        {
          "internalType": "uint256",
          "name": "",
          "type": "uint256"
        }
      ],
      "stateMutability": "view",
      "type": "function",
      "constant": true
    },
    {
      "inputs": [],
      "name": "lastBuyBack",
      "outputs": [
        {
          "internalType": "uint256",
          "name": "",
          "type": "uint256"
        }
      ],
      "stateMutability": "view",
      "type": "function",
      "constant": true
    },
    {
      "inputs": [],
      "name": "lastDecay",
      "outputs": [
        {
          "internalType": "uint32",
          "name": "",
          "type": "uint32"
        }
      ],
      "stateMutability": "view",
      "type": "function",
      "constant": true
    },
    {
      "inputs": [],
      "name": "owner",
      "outputs": [
        {
          "internalType": "address",
          "name": "",
          "type": "address"
        }
      ],
      "stateMutability": "view",
      "type": "function",
      "constant": true
    },
    {
      "inputs": [],
      "name": "pancakeRouter",
      "outputs": [
        {
          "internalType": "contract IPancakeRouter02",
          "name": "",
          "type": "address"
        }
      ],
      "stateMutability": "view",
      "type": "function",
      "constant": true
    },
    {
      "inputs": [],
      "name": "principle",
      "outputs": [
        {
          "internalType": "address",
          "name": "",
          "type": "address"
        }
      ],
      "stateMutability": "view",
      "type": "function",
      "constant": true
    },
    {
      "inputs": [],
      "name": "renounceOwnership",
      "outputs": [],
      "stateMutability": "nonpayable",
      "type": "function"
    },
    {
      "inputs": [],
      "name": "terms",
      "outputs": [
        {
          "internalType": "uint256",
          "name": "minimumPrice",
          "type": "uint256"
        },
        {
          "internalType": "uint256",
          "name": "maxPayout",
          "type": "uint256"
        },
        {
          "internalType": "uint256",
          "name": "maxDebt",
          "type": "uint256"
        },
        {
          "internalType": "uint32",
          "name": "vestingTerm",
          "type": "uint32"
        },
        {
          "internalType": "uint256",
          "name": "discountRate",
          "type": "uint256"
        }
      ],
      "stateMutability": "view",
      "type": "function",
      "constant": true
    },
    {
      "inputs": [],
      "name": "totalDebt",
      "outputs": [
        {
          "internalType": "uint256",
          "name": "",
          "type": "uint256"
        }
      ],
      "stateMutability": "view",
      "type": "function",
      "constant": true
    },
    {
      "inputs": [],
      "name": "totalPurchased",
      "outputs": [
        {
          "internalType": "uint256",
          "name": "",
          "type": "uint256"
        }
      ],
      "stateMutability": "view",
      "type": "function",
      "constant": true
    },
    {
      "inputs": [
        {
          "internalType": "address",
          "name": "newOwner",
          "type": "address"
        }
      ],
      "name": "transferOwnership",
      "outputs": [],
      "stateMutability": "nonpayable",
      "type": "function"
    },
    {
      "inputs": [],
      "name": "treasury",
      "outputs": [
        {
          "internalType": "address",
          "name": "",
          "type": "address"
        }
      ],
      "stateMutability": "view",
      "type": "function",
      "constant": true
    },
    {
      "inputs": [],
      "name": "xBlade",
      "outputs": [
        {
          "internalType": "address",
          "name": "",
          "type": "address"
        }
      ],
      "stateMutability": "view",
      "type": "function",
      "constant": true
    },
    {
      "inputs": [
        {
          "internalType": "address",
          "name": "_xBlade",
          "type": "address"
        },
        {
          "internalType": "address",
          "name": "_principle",
          "type": "address"
        },
        {
          "internalType": "address",
          "name": "_DAO",
          "type": "address"
        },
        {
          "internalType": "address",
          "name": "_feed",
          "type": "address"
        },
        {
          "internalType": "address",
          "name": "_router",
          "type": "address"
        }
      ],
      "name": "initialize",
      "outputs": [],
      "stateMutability": "nonpayable",
      "type": "function"
    },
    {
      "inputs": [
        {
          "internalType": "uint256",
          "name": "_minimumPrice",
          "type": "uint256"
        },
        {
          "internalType": "uint256",
          "name": "_maxPayout",
          "type": "uint256"
        },
        {
          "internalType": "uint256",
          "name": "_maxDebt",
          "type": "uint256"
        },
        {
          "internalType": "uint256",
          "name": "_initialDebt",
          "type": "uint256"
        },
        {
          "internalType": "uint32",
          "name": "_vestingTerm",
          "type": "uint32"
        },
        {
          "internalType": "uint256",
          "name": "_discountRate",
          "type": "uint256"
        }
      ],
      "name": "initializeBondTerms",
      "outputs": [],
      "stateMutability": "nonpayable",
      "type": "function"
    },
    {
      "inputs": [
        {
          "internalType": "enum TimeBondDepository.PARAMETER",
          "name": "_parameter",
          "type": "uint8"
        },
        {
          "internalType": "uint256",
          "name": "_input",
          "type": "uint256"
        }
      ],
      "name": "setBondTerms",
      "outputs": [],
      "stateMutability": "nonpayable",
      "type": "function"
    },
    {
      "inputs": [
        {
          "internalType": "address",
          "name": "_feed",
          "type": "address"
        }
      ],
      "name": "setPrice",
      "outputs": [],
      "stateMutability": "nonpayable",
      "type": "function"
    },
    {
      "inputs": [
        {
          "internalType": "uint256",
          "name": "_initialSale",
          "type": "uint256"
        }
      ],
      "name": "setCurrentSale",
      "outputs": [],
      "stateMutability": "nonpayable",
      "type": "function"
    },
    {
      "inputs": [
        {
          "internalType": "uint256",
          "name": "_amount",
          "type": "uint256"
        },
        {
          "internalType": "uint256",
          "name": "_maxPrice",
          "type": "uint256"
        },
        {
          "internalType": "address",
          "name": "_depositor",
          "type": "address"
        }
      ],
      "name": "deposit",
      "outputs": [
        {
          "internalType": "uint256",
          "name": "",
          "type": "uint256"
        }
      ],
      "stateMutability": "nonpayable",
      "type": "function"
    },
    {
      "inputs": [
        {
          "internalType": "address",
          "name": "_recipient",
          "type": "address"
        },
        {
          "internalType": "bool",
          "name": "_stake",
          "type": "bool"
        }
      ],
      "name": "redeem",
      "outputs": [
        {
          "internalType": "uint256",
          "name": "",
          "type": "uint256"
        }
      ],
      "stateMutability": "nonpayable",
      "type": "function"
    },
    {
      "inputs": [
        {
          "internalType": "address",
          "name": "_treasury",
          "type": "address"
        }
      ],
      "name": "setTreasury",
      "outputs": [],
      "stateMutability": "nonpayable",
      "type": "function"
    },
    {
      "inputs": [],
      "name": "maxPayout",
      "outputs": [
        {
          "internalType": "uint256",
          "name": "",
          "type": "uint256"
        }
      ],
      "stateMutability": "view",
      "type": "function",
      "constant": true
    },
    {
      "inputs": [
        {
          "internalType": "uint256",
          "name": "_value",
          "type": "uint256"
        }
      ],
      "name": "payoutFor",
      "outputs": [
        {
          "internalType": "uint256",
          "name": "",
          "type": "uint256"
        }
      ],
      "stateMutability": "view",
      "type": "function",
      "constant": true
    },
    {
      "inputs": [],
      "name": "bondPrice",
      "outputs": [
        {
          "internalType": "uint256",
          "name": "price_",
          "type": "uint256"
        }
      ],
      "stateMutability": "view",
      "type": "function",
      "constant": true
    },
    {
      "inputs": [],
      "name": "assetPrice",
      "outputs": [
        {
          "internalType": "uint256",
          "name": "",
          "type": "uint256"
        }
      ],
      "stateMutability": "view",
      "type": "function",
      "constant": true
    },
    {
      "inputs": [],
      "name": "bondPriceInUSD",
      "outputs": [
        {
          "internalType": "uint256",
          "name": "price_",
          "type": "uint256"
        }
      ],
      "stateMutability": "view",
      "type": "function",
      "constant": true
    },
    {
      "inputs": [],
      "name": "debtRatio",
      "outputs": [
        {
          "internalType": "uint256",
          "name": "debtRatio_",
          "type": "uint256"
        }
      ],
      "stateMutability": "view",
      "type": "function",
      "constant": true
    },
    {
      "inputs": [],
      "name": "currentDebt",
      "outputs": [
        {
          "internalType": "uint256",
          "name": "",
          "type": "uint256"
        }
      ],
      "stateMutability": "view",
      "type": "function",
      "constant": true
    },
    {
      "inputs": [],
      "name": "debtDecay",
      "outputs": [
        {
          "internalType": "uint256",
          "name": "decay_",
          "type": "uint256"
        }
      ],
      "stateMutability": "view",
      "type": "function",
      "constant": true
    },
    {
      "inputs": [
        {
          "internalType": "address",
          "name": "_depositor",
          "type": "address"
        }
      ],
      "name": "percentVestedFor",
      "outputs": [
        {
          "internalType": "uint256",
          "name": "percentVested_",
          "type": "uint256"
        }
      ],
      "stateMutability": "view",
      "type": "function",
      "constant": true
    },
    {
      "inputs": [
        {
          "internalType": "address",
          "name": "_depositor",
          "type": "address"
        }
      ],
      "name": "pendingPayoutFor",
      "outputs": [
        {
          "internalType": "uint256",
          "name": "pendingPayout_",
          "type": "uint256"
        }
      ],
      "stateMutability": "view",
      "type": "function",
      "constant": true
    },
    {
      "inputs": [
        {
          "internalType": "address",
          "name": "_token",
          "type": "address"
        }
      ],
      "name": "recoverLostToken",
      "outputs": [
        {
          "internalType": "bool",
          "name": "",
          "type": "bool"
        }
      ],
      "stateMutability": "nonpayable",
      "type": "function"
    }
  ],
  "bytecode": "0x608060405234801561001057600080fd5b50612cf7806100206000396000f3fe608060405234801561001057600080fd5b50600436106102065760003560e01c806398fabd3a1161011a578063d7ccfb0b116100ad578063f0f442601161007c578063f0f442601461053b578063f2fde38b14610561578063f34dad2f14610587578063f5c2ab5b1461058f578063fc7b9c18146105b057610206565b8063d7ccfb0b1461051b578063e0176de814610523578063e392a2621461052b578063e632c2f31461053357610206565b8063cd1234b3116100e9578063cd1234b314610480578063cea55f57146104d2578063d24378eb146104da578063d5025625146104e257610206565b806398fabd3a1461042e578063a05d03fd14610436578063b4abccba1461043e578063c21ebd071461047857610206565b806361d027b31161019d5780637927ebf81161016c5780637927ebf8146103c7578063844b5c7c146103e45780638521fb1c146103ec5780638da5cb5b146103f45780638dbdbe6d146103fc57610206565b806361d027b31461036e57806368fe21ea14610376578063715018a6146103b7578063759076e5146103bf57610206565b80631feed31f116101d95780631feed31f146102d75780632283f13c146103055780633b32479014610322578063507930ec1461034857610206565b8063016a42841461020b57806301b88ee81461022f5780631459457a146102675780631e321a0f146102b1575b600080fd5b6102136105b8565b604080516001600160a01b039092168252519081900360200190f35b6102556004803603602081101561024557600080fd5b50356001600160a01b03166105c7565b60408051918252519081900360200190f35b6102af600480360360a081101561027d57600080fd5b506001600160a01b03813581169160208101358216916040820135811691606081013582169160809091013516610620565b005b6102af600480360360408110156102c757600080fd5b5060ff81351690602001356107a7565b610255600480360360408110156102ed57600080fd5b506001600160a01b0381351690602001351515610988565b6102af6004803603602081101561031b57600080fd5b5035610bce565b6102af6004803603602081101561033857600080fd5b50356001600160a01b0316610c35565b6102556004803603602081101561035e57600080fd5b50356001600160a01b0316610cb9565b610213610d66565b6102af600480360360c081101561038c57600080fd5b5080359060208101359060408101359060608101359063ffffffff6080820135169060a00135610d75565b6102af610e8c565b610255610f38565b610255600480360360208110156103dd57600080fd5b5035610f54565b610255610f6f565b610255610f79565b610213610f7f565b6102556004803603606081101561041257600080fd5b50803590602081013590604001356001600160a01b0316610f8e565b6102136112f4565b610255611303565b6104646004803603602081101561045457600080fd5b50356001600160a01b0316611309565b604080519115158252519081900360200190f35b6102136113da565b6104a66004803603602081101561049657600080fd5b50356001600160a01b03166113f0565b60408051948552602085019390935263ffffffff91821684840152166060830152519081900360800190f35b610255611422565b6102556114d5565b6104ea611558565b6040805195865260208601949094528484019290925263ffffffff1660608401526080830152519081900360a00190f35b610255611573565b6102556115b1565b610255611643565b61025561169c565b6102af6004803603602081101561055157600080fd5b50356001600160a01b03166116a2565b6102af6004803603602081101561057757600080fd5b50356001600160a01b0316611726565b610213611829565b610597611838565b6040805163ffffffff9092168252519081900360200190f35b610255611844565b6066546001600160a01b031681565b6000806105d383610cb9565b6001600160a01b0384166000908152606f6020526040902054909150612710821061060057809250610619565b610616612710610610838561184a565b906118a3565b92505b5050919050565b600054610100900460ff1680610639575061063961190a565b80610647575060005460ff16155b6106825760405162461bcd60e51b815260040180806020018281038252602e815260200180612be2602e913960400191505060405180910390fd5b600054610100900460ff161580156106ad576000805460ff1961ff0019909116610100171660011790555b6106b561191b565b6001600160a01b0386166106c857600080fd5b606580546001600160a01b0319166001600160a01b038881169190911790915585166106f357600080fd5b606680546001600160a01b0319166001600160a01b0387811691909117909155841661071e57600080fd5b606880546001600160a01b0319166001600160a01b0386811691909117909155831661074957600080fd5b606980546001600160a01b0319166001600160a01b038581169190911790915560718054640100000000600160c01b031916600160201b92851692909202919091179055801561079f576000805461ff00191690555b505050505050565b6107af6119cd565b6001600160a01b03166107c0610f7f565b6001600160a01b031614610809576040805162461bcd60e51b81526020600482018190526024820152600080516020612c31833981519152604482015290519081900360640190fd5b600082600481111561081757fe5b1415610879576201fa4081101561085f5760405162461bcd60e51b8152600401808060200182810382526024815260200180612c746024913960400191505060405180910390fd5b606d805463ffffffff191663ffffffff8316179055610984565b600182600481111561088757fe5b14156108ee576103e88111156108e4576040805162461bcd60e51b815260206004820181905260248201527f5061796f75742063616e6e6f742062652061626f766520312070657263656e74604482015290519081900360640190fd5b606b819055610984565b60028260048111156108fc57fe5b141561090c57606c819055610984565b600382600481111561091a57fe5b141561092a57606a819055610984565b600482600481111561093857fe5b14156109845761012c811061097e5760405162461bcd60e51b8152600401808060200182810382526025815260200180612b506025913960400191505060405180910390fd5b606e8190555b5050565b6000610992612ae3565b506001600160a01b0383166000908152606f602090815260408083208151608081018352815481526001820154938101939093526002015463ffffffff80821692840192909252600160201b9004166060820152906109f085610cb9565b90506127108110610a84576001600160a01b0385166000818152606f6020908152604080832083815560018101849055600201805467ffffffffffffffff19169055855181519081529182019290925281517f51c99f515c87b0d95ba97f616edd182e8f161c4932eac17c6fefe9dab58b77b1929181900390910190a2610a7b8583600001516119d1565b92505050610bc8565b8151600090610a9b9061271090610610908561184a565b90506040518060800160405280610abf838660000151611a5d90919063ffffffff16565b815260200184602001518152602001610b07610aee86606001514263ffffffff16611aba90919063ffffffff16565b866040015163ffffffff16611aba90919063ffffffff16565b63ffffffff90811682524281166020928301526001600160a01b0389166000818152606f8452604090819020855180825586860151600183015586830151600290920180546060909801518616600160201b0267ffffffff00000000199390961663ffffffff19909816979097179190911693909317909455835185815292830191909152825190927f51c99f515c87b0d95ba97f616edd182e8f161c4932eac17c6fefe9dab58b77b1928290030190a2610bc286826119d1565b93505050505b92915050565b610bd66119cd565b6001600160a01b0316610be7610f7f565b6001600160a01b031614610c30576040805162461bcd60e51b81526020600482018190526024820152600080516020612c31833981519152604482015290519081900360640190fd5b607455565b610c3d6119cd565b6001600160a01b0316610c4e610f7f565b6001600160a01b031614610c97576040805162461bcd60e51b81526020600482018190526024820152600080516020612c31833981519152604482015290519081900360640190fd5b606980546001600160a01b0319166001600160a01b0392909216919091179055565b6000610cc3612ae3565b506001600160a01b0382166000908152606f602090815260408083208151608081018352815481526001820154938101939093526002015463ffffffff80821692840192909252600160201b9004811660608301819052919291610d2c914281169190611aba16565b604083015163ffffffff9182169250168015610d5957610d52816106108461271061184a565b9350610d5e565b600093505b505050919050565b6067546001600160a01b031681565b610d7d6119cd565b6001600160a01b0316610d8e610f7f565b6001600160a01b031614610dd7576040805162461bcd60e51b81526020600482018190526024820152600080516020612c31833981519152604482015290519081900360640190fd5b610ddf610f38565b15610e1b5760405162461bcd60e51b8152600401808060200182810382526021815260200180612bc16021913960400191505060405180910390fd5b6040805160a0810182528781526020810187905290810185905263ffffffff928316606082018190526080909101829052606a96909655606b94909455606c92909255606d805463ffffffff199081169095179055606e929092556070919091556071805490921642909116179055565b610e946119cd565b6001600160a01b0316610ea5610f7f565b6001600160a01b031614610eee576040805162461bcd60e51b81526020600482018190526024820152600080516020612c31833981519152604482015290519081900360640190fd5b6033546040516000916001600160a01b0316907f8be0079c531659141344cd1fd0a4f28419497f9722a3daafe3b4186f6b6457e0908390a3603380546001600160a01b0319169055565b6000610f4e610f45611643565b60705490611a5d565b90505b90565b6000610bc8610f6a83610f65611573565b611afc565b611c73565b6000610f4e611573565b60725481565b6033546001600160a01b031690565b60006001600160a01b038216610fdd576040805162461bcd60e51b815260206004820152600f60248201526e496e76616c6964206164647265737360881b604482015290519081900360640190fd5b610fe5611c8b565b606c546070541115611035576040805162461bcd60e51b815260206004820152601460248201527313585e0818d85c1858da5d1e481c995858da195960621b604482015290519081900360640190fd5b600061103f610f6f565b9050600061104b610f6f565b90508085101561108c5760405162461bcd60e51b8152600401808060200182810382526023815260200180612c516023913960400191505060405180910390fd5b85600061109882610f54565b9050629896808110156110e3576040805162461bcd60e51b815260206004820152600e60248201526d109bdb99081d1bdbc81cdb585b1b60921b604482015290519081900360640190fd5b6110eb6115b1565b811115611130576040805162461bcd60e51b815260206004820152600e60248201526d426f6e6420746f6f206c6172676560901b604482015290519081900360640190fd5b60745461113d9082611a5d565b60745560735461114d9083611cb0565b607355606654611168906001600160a01b031633308b611d0a565b61117b6111768960026118a3565b611d6a565b61118e6111898960026118a3565b61219e565b60705461119b9083611cb0565b607055604080516080810182526001600160a01b0388166000908152606f602052919091205481906111cd9084611cb0565b81526020808201879052606d805463ffffffff908116604080860191909152428083166060968701526001600160a01b038d166000908152606f865282902087518155948701516001860155908601516002909401805496909501518216600160201b0267ffffffff000000001994831663ffffffff19909716969096179390931694909417909255905486926112689291811690611cb016565b604080518b8152905184917f1fec6dc81f140574bf43f6b1e420ae1dd47928b9d57db8cbd7b8611063b85ae5919081900360200190a46112a6611422565b6112ae610f6f565b6112b6610f6f565b6040517f375b221f40939bfd8f49723a17cf7bc6d576ebf72efe2cc3e991826f5b3f390a90600090a46112e7612217565b93505050505b9392505050565b6068546001600160a01b031681565b60745481565b6065546000906001600160a01b038381169116141561132757600080fd5b6066546001600160a01b038381169116141561134257600080fd5b606854604080516370a0823160e01b815230600482015290516113d2926001600160a01b0390811692908616916370a0823191602480820192602092909190829003018186803b15801561139557600080fd5b505afa1580156113a9573d6000803e3d6000fd5b505050506040513d60208110156113bf57600080fd5b50516001600160a01b0385169190612235565b506001919050565b607154600160201b90046001600160a01b031681565b606f6020526000908152604090208054600182015460029092015490919063ffffffff80821691600160201b90041684565b600080606560009054906101000a90046001600160a01b03166001600160a01b03166318160ddd6040518163ffffffff1660e01b815260040160206040518083038186803b15801561147357600080fd5b505afa158015611487573d6000803e3d6000fd5b505050506040513d602081101561149d57600080fd5b505190506114cf670de0b6b3a7640000610610610f6a6114c9633b9aca006114c3610f38565b9061184a565b85611afc565b91505090565b600080606960009054906101000a90046001600160a01b03166001600160a01b031663feaf968c6040518163ffffffff1660e01b815260040160206040518083038186803b15801561152657600080fd5b505afa15801561153a573d6000803e3d6000fd5b505050506040513d602081101561155057600080fd5b505191505090565b606a54606b54606c54606d54606e5463ffffffff9091169085565b600061159d61158f6103e8610610606a600401546114c36114d5565b6115976114d5565b90611a5d565b606a54909150811015610f515750606a5490565b6000610f4e620186a0610610606a60010154606560009054906101000a90046001600160a01b03166001600160a01b03166318160ddd6040518163ffffffff1660e01b815260040160206040518083038186803b15801561161157600080fd5b505afa158015611625573d6000803e3d6000fd5b505050506040513d602081101561163b57600080fd5b50519061184a565b60715460009081906116619063ffffffff42811691811690611aba16565b606d546070549192506116869163ffffffff9182169161061091908086169061184a16565b91506070548211156116985760705491505b5090565b60735481565b6116aa6119cd565b6001600160a01b03166116bb610f7f565b6001600160a01b031614611704576040805162461bcd60e51b81526020600482018190526024820152600080516020612c31833981519152604482015290519081900360640190fd5b606780546001600160a01b0319166001600160a01b0392909216919091179055565b61172e6119cd565b6001600160a01b031661173f610f7f565b6001600160a01b031614611788576040805162461bcd60e51b81526020600482018190526024820152600080516020612c31833981519152604482015290519081900360640190fd5b6001600160a01b0381166117cd5760405162461bcd60e51b8152600401808060200182810382526026815260200180612b2a6026913960400191505060405180910390fd5b6033546040516001600160a01b038084169216907f8be0079c531659141344cd1fd0a4f28419497f9722a3daafe3b4186f6b6457e090600090a3603380546001600160a01b0319166001600160a01b0392909216919091179055565b6065546001600160a01b031681565b60715463ffffffff1681565b60705481565b60008261185957506000610bc8565b8282028284828161186657fe5b04146112ed5760405162461bcd60e51b8152600401808060200182810382526021815260200180612c106021913960400191505060405180910390fd5b60008082116118f9576040805162461bcd60e51b815260206004820152601a60248201527f536166654d6174683a206469766973696f6e206279207a65726f000000000000604482015290519081900360640190fd5b81838161190257fe5b049392505050565b60006119153061228c565b15905090565b600054610100900460ff1680611934575061193461190a565b80611942575060005460ff16155b61197d5760405162461bcd60e51b815260040180806020018281038252602e815260200180612be2602e913960400191505060405180910390fd5b600054610100900460ff161580156119a8576000805460ff1961ff0019909116610100171660011790555b6119b0612292565b6119b8612332565b80156119ca576000805461ff00191690555b50565b3390565b6065546040805163a9059cbb60e01b81526001600160a01b038581166004830152602482018590529151600093929092169163a9059cbb9160448082019260209290919082900301818787803b158015611a2a57600080fd5b505af1158015611a3e573d6000803e3d6000fd5b505050506040513d6020811015611a5457600080fd5b50919392505050565b600082821115611ab4576040805162461bcd60e51b815260206004820152601e60248201527f536166654d6174683a207375627472616374696f6e206f766572666c6f770000604482015290519081900360640190fd5b50900390565b60006112ed83836040518060400160405280601e81526020017f536166654d6174683a207375627472616374696f6e206f766572666c6f77000081525061242b565b611b04612b17565b60008211611b435760405162461bcd60e51b8152600401808060200182810382526026815260200180612b9b6026913960400191505060405180910390fd5b82611b5d5750604080516020810190915260008152610bc8565b71ffffffffffffffffffffffffffffffffffff8311611c0457600082607085901b81611b8557fe5b0490506001600160e01b03811115611be4576040805162461bcd60e51b815260206004820152601e60248201527f4669786564506f696e743a3a6672616374696f6e3a206f766572666c6f770000604482015290519081900360640190fd5b6040518060200160405280826001600160e01b0316815250915050610bc8565b6000611c1584600160701b856124cf565b90506001600160e01b03811115611be4576040805162461bcd60e51b815260206004820152601e60248201527f4669786564506f696e743a3a6672616374696f6e3a206f766572666c6f770000604482015290519081900360640190fd5b516612725dd1d243ab6001600160e01b039091160490565b611c96610f45611643565b6070556071805463ffffffff19164263ffffffff16179055565b6000828201838110156112ed576040805162461bcd60e51b815260206004820152601b60248201527f536166654d6174683a206164646974696f6e206f766572666c6f770000000000604482015290519081900360640190fd5b604080516001600160a01b0380861660248301528416604482015260648082018490528251808303909101815260849091019091526020810180516001600160e01b03166323b872dd60e01b179052611d64908590612564565b50505050565b80156119ca5760655460715460408051636eb1769f60e11b8152306004820152600160201b9092046001600160a01b039081166024840152905192169163dd62ed3e91604480820192602092909190829003018186803b158015611dcd57600080fd5b505afa158015611de1573d6000803e3d6000fd5b505050506040513d6020811015611df757600080fd5b5051611e8b576065546071546040805163095ea7b360e01b8152600160201b9092046001600160a01b0390811660048401526000196024840152905192169163095ea7b3916044808201926020929091908290030181600087803b158015611e5e57600080fd5b505af1158015611e72573d6000803e3d6000fd5b505050506040513d6020811015611e8857600080fd5b50505b60665460715460408051636eb1769f60e11b8152306004820152600160201b9092046001600160a01b039081166024840152905192169163dd62ed3e91604480820192602092909190829003018186803b158015611ee857600080fd5b505afa158015611efc573d6000803e3d6000fd5b505050506040513d6020811015611f1257600080fd5b5051611fa6576066546071546040805163095ea7b360e01b8152600160201b9092046001600160a01b0390811660048401526000196024840152905192169163095ea7b3916044808201926020929091908290030181600087803b158015611f7957600080fd5b505af1158015611f8d573d6000803e3d6000fd5b505050506040513d6020811015611fa357600080fd5b50505b606554604080516370a0823160e01b815230600482015290516000926001600160a01b0316916370a08231916024808301926020929190829003018186803b158015611ff157600080fd5b505afa158015612005573d6000803e3d6000fd5b505050506040513d602081101561201b57600080fd5b5051905061203361202d8360026118a3565b30612615565b606554604080516370a0823160e01b815230600482015290516000926001600160a01b0316916370a08231916024808301926020929190829003018186803b15801561207e57600080fd5b505afa158015612092573d6000803e3d6000fd5b505050506040513d60208110156120a857600080fd5b50516071546065546066549293506001600160a01b03600160201b90920482169263e8e337009291821691166120de8587611a5d565b6120e98860026118a3565b606754604080516001600160e01b031960e089901b1681526001600160a01b03968716600482015294861660248601526044850193909352606484019190915260006084840181905260a48401819052931660c4830152610168420160e4830152516101048083019360609383900390910190829087803b15801561216d57600080fd5b505af1158015612181573d6000803e3d6000fd5b505050506040513d606081101561219757600080fd5b5050505050565b6170806121b660725442611a5d90919063ffffffff16565b11156119ca574260725568056bc75e2d631000008111156121f0576121f06121df8260646118a3565b6067546001600160a01b0316612615565b68056bc75e2d6310000081116119ca576067546119ca9082906001600160a01b0316612615565b471561223357606854612233906001600160a01b03164761277e565b565b604080516001600160a01b038416602482015260448082018490528251808303909101815260649091019091526020810180516001600160e01b031663a9059cbb60e01b179052612287908490612564565b505050565b3b151590565b600054610100900460ff16806122ab57506122ab61190a565b806122b9575060005460ff16155b6122f45760405162461bcd60e51b815260040180806020018281038252602e815260200180612be2602e913960400191505060405180910390fd5b600054610100900460ff161580156119b8576000805460ff1961ff00199091166101001716600117905580156119ca576000805461ff001916905550565b600054610100900460ff168061234b575061234b61190a565b80612359575060005460ff16155b6123945760405162461bcd60e51b815260040180806020018281038252602e815260200180612be2602e913960400191505060405180910390fd5b600054610100900460ff161580156123bf576000805460ff1961ff0019909116610100171660011790555b60006123c96119cd565b603380546001600160a01b0319166001600160a01b038316908117909155604051919250906000907f8be0079c531659141344cd1fd0a4f28419497f9722a3daafe3b4186f6b6457e0908290a35080156119ca576000805461ff001916905550565b60008363ffffffff168363ffffffff16111582906124c75760405162461bcd60e51b81526004018080602001828103825283818151815260200191508051906020019080838360005b8381101561248c578181015183820152602001612474565b50505050905090810190601f1680156124b95780820380516001836020036101000a031916815260200191505b509250505060405180910390fd5b505050900390565b60008060006124de868661286d565b91509150600084806124ec57fe5b868809905082811115612500576001820391505b8083039250848210612559576040805162461bcd60e51b815260206004820152601a60248201527f46756c6c4d6174683a3a6d756c4469763a206f766572666c6f77000000000000604482015290519081900360640190fd5b6112e783838761289a565b60606125b9826040518060400160405280602081526020017f5361666545524332303a206c6f772d6c6576656c2063616c6c206661696c6564815250856001600160a01b031661290a9092919063ffffffff16565b805190915015612287578080602001905160208110156125d857600080fd5b50516122875760405162461bcd60e51b815260040180806020018281038252602a815260200180612c98602a913960400191505060405180910390fd5b6040805160028082526060808301845292602083019080368337505060665482519293506001600160a01b03169183915060009061264f57fe5b6001600160a01b03928316602091820292909201015260655482519116908290600190811061267a57fe5b60200260200101906001600160a01b031690816001600160a01b031681525050607160049054906101000a90046001600160a01b03166001600160a01b0316635c11d795846000848642610168016040518663ffffffff1660e01b81526004018086815260200185815260200180602001846001600160a01b03168152602001838152602001828103825285818151815260200191508051906020019060200280838360005b83811015612738578181015183820152602001612720565b505050509050019650505050505050600060405180830381600087803b15801561276157600080fd5b505af1158015612775573d6000803e3d6000fd5b50505050505050565b604080516000808252602082019092526001600160a01b0384169083906040518082805190602001908083835b602083106127ca5780518252601f1990920191602091820191016127ab565b6001836020036101000a03801982511681845116808217855250505050505090500191505060006040518083038185875af1925050503d806000811461282c576040519150601f19603f3d011682016040523d82523d6000602084013e612831565b606091505b5050905080612287576040805162461bcd60e51b815260206004820152600360248201526253544560e81b604482015290519081900360640190fd5b6000808060001984860990508385029250828103915082811015612892576001820391505b509250929050565b600081810382168083816128aa57fe5b0492508085816128b657fe5b0494508081600003816128c557fe5b60028581038087028203028087028203028087028203028087028203028087028203028087028203029586029003909402930460010193909302939093010292915050565b60606129198484600085612921565b949350505050565b6060824710156129625760405162461bcd60e51b8152600401808060200182810382526026815260200180612b756026913960400191505060405180910390fd5b61296b8561228c565b6129bc576040805162461bcd60e51b815260206004820152601d60248201527f416464726573733a2063616c6c20746f206e6f6e2d636f6e7472616374000000604482015290519081900360640190fd5b60006060866001600160a01b031685876040518082805190602001908083835b602083106129fb5780518252601f1990920191602091820191016129dc565b6001836020036101000a03801982511681845116808217855250505050505090500191505060006040518083038185875af1925050503d8060008114612a5d576040519150601f19603f3d011682016040523d82523d6000602084013e612a62565b606091505b5091509150612a72828286612a7d565b979650505050505050565b60608315612a8c5750816112ed565b825115612a9c5782518084602001fd5b60405162461bcd60e51b815260206004820181815284516024840152845185939192839260440191908501908083836000831561248c578181015183820152602001612474565b60405180608001604052806000815260200160008152602001600063ffffffff168152602001600063ffffffff1681525090565b6040805160208101909152600081529056fe4f776e61626c653a206e6577206f776e657220697320746865207a65726f2061646472657373446973636f756e742073616c652063616e6e6f742067726561746572207468616e20333025416464726573733a20696e73756666696369656e742062616c616e636520666f722063616c6c4669786564506f696e743a3a6672616374696f6e3a206469766973696f6e206279207a65726f44656274206d757374206265203020666f7220696e697469616c697a6174696f6e496e697469616c697a61626c653a20636f6e747261637420697320616c726561647920696e697469616c697a6564536166654d6174683a206d756c7469706c69636174696f6e206f766572666c6f774f776e61626c653a2063616c6c6572206973206e6f7420746865206f776e6572536c697070616765206c696d69743a206d6f7265207468616e206d617820707269636556657374696e67206d757374206265206c6f6e676572207468616e20333620686f7572735361666545524332303a204552433230206f7065726174696f6e20646964206e6f742073756363656564a264697066735822122017118aa960bbaac031ec1b110b5fe751dba41f4dda898b6fbe9c544be252014864736f6c63430007050033",
  "immutableReferences": {},
  "source": "pragma solidity 0.7.5;\n\n// import \"@openzeppelin/contracts/utils/Address.sol\";\nimport \"@openzeppelin/contracts/token/ERC20/IERC20.sol\";\nimport \"@openzeppelin/contracts/math/SafeMath.sol\";\nimport \"@openzeppelin/contracts/token/ERC20/SafeERC20.sol\";\nimport \"@openzeppelin/contracts-upgradeable/proxy/Initializable.sol\";\nimport \"@openzeppelin/contracts-upgradeable/access/OwnableUpgradeable.sol\";\nimport \"./libraries/FixedPoint.sol\";\nimport \"./interfaces/IPancakeRouter02.sol\";\nimport \"./libraries/SafeMath32.sol\";\n\ninterface AggregatorV3Interface {\n    function latestRoundData() external view returns (uint256 answer);\n}\n\ninterface ITreasury {\n    function deposit(\n        uint256 _amount,\n        address _token,\n        uint256 _profit\n    ) external returns (bool);\n\n    function valueOf(address _token, uint256 _amount) external view returns (uint256 value_);\n\n    function mintRewards(address _recipient, uint256 _amount) external;\n}\n\ninterface IStaking {\n    function stake(uint256 _amount, address _recipient) external returns (bool);\n}\n\ninterface IStakingHelper {\n    function stake(uint256 _amount, address _recipient) external;\n}\n\ninterface IWETH9 is IERC20 {\n    /// @notice Deposit ether to get wrapped ether\n    function deposit() external payable;\n}\n\ncontract TimeBondDepository is Initializable, OwnableUpgradeable {\n    using FixedPoint for *;\n    using SafeERC20 for IERC20;\n    using SafeMath for uint256;\n    using SafeMath32 for uint32;\n\n    /* ======== EVENTS ======== */\n\n    event BondCreated(uint256 deposit, uint256 indexed payout, uint256 indexed expires, uint256 indexed priceInUSD);\n    event BondRedeemed(address indexed recipient, uint256 payout, uint256 remaining);\n    event BondPriceChanged(uint256 indexed priceInUSD, uint256 indexed internalPrice, uint256 indexed debtRatio);\n\n    /* ======== STATE VARIABLES ======== */\n    address public xBlade; // token given as payment for bond\n    address public principle; // token used to create bond\n    address public treasury; // mints xBlade when receives principle\n    address public DAO; // receives profit share from bond\n\n    AggregatorV3Interface internal priceFeed;\n\n    Terms public terms; // stores terms for new bonds\n\n    mapping(address => Bond) public bondInfo; // stores bond information for depositors\n\n    uint256 public totalDebt; // total value of outstanding bonds; used for pricing\n    uint32 public lastDecay; // reference block for debt decay\n\n    IPancakeRouter02 public pancakeRouter;\n\n    uint256 public lastBuyBack;\n    uint256 public totalPurchased;\n    uint256 public currentSale;\n    /* ======== STRUCTS ======== */\n\n    // Info for creating new bonds\n    struct Terms {\n        uint256 minimumPrice; // vs principle value. 4 decimals (1500 = 0.15)\n        uint256 maxPayout; // in thousandths of a %. i.e. 500 = 0.5%\n        uint256 maxDebt; // 9 decimal debt ratio, max % total supply created as debt\n        uint32 vestingTerm; // in seconds\n        uint256 discountRate; // in percent\n    }\n\n    // Info for bond holder\n    struct Bond {\n        uint256 payout; // xBlade remaining to be paid\n        uint256 pricePaid; // In DAI, for front end viewing\n        uint32 vesting; // Seconds left to vest\n        uint32 lastTime; // Last interaction\n    }\n\n    /* ======== INITIALIZATION ======== */\n\n    function initialize(\n        address _xBlade,\n        address _principle,\n        // address _treasury,\n        address _DAO,\n        address _feed,\n        address _router\n    ) public initializer {\n        OwnableUpgradeable.__Ownable_init();\n        require(_xBlade != address(0));\n        xBlade = _xBlade;\n        require(_principle != address(0));\n        principle = _principle;\n        // require(_treasury != address(0));\n        // treasury = _treasury;\n        require(_DAO != address(0));\n        DAO = _DAO;\n        require(_feed != address(0));\n        priceFeed = AggregatorV3Interface(_feed);\n        pancakeRouter = IPancakeRouter02(_router);\n    }\n\n    /**\n     *  @notice initializes bond parameters\n     *  @param _vestingTerm uint\n     *  @param _minimumPrice uint\n     *  @param _maxPayout uint\n     *  @param _maxDebt uint\n     *  @param _initialDebt uint\n     *  @param _discountRate uint\n     */\n    function initializeBondTerms(\n        uint256 _minimumPrice,\n        uint256 _maxPayout,\n        uint256 _maxDebt,\n        uint256 _initialDebt,\n        uint32 _vestingTerm,\n        uint256 _discountRate\n    ) external onlyOwner {\n        require(currentDebt() == 0, \"Debt must be 0 for initialization\");\n        terms = Terms({ vestingTerm: _vestingTerm, minimumPrice: _minimumPrice, maxPayout: _maxPayout, maxDebt: _maxDebt, discountRate: _discountRate });\n        totalDebt = _initialDebt;\n        lastDecay = uint32(block.timestamp);\n    }\n\n    /* ======== POLICY FUNCTIONS ======== */\n\n    enum PARAMETER {\n        VESTING,\n        PAYOUT,\n        DEBT,\n        MINPRICE,\n        DISCOUNT\n    }\n\n    /**\n     *  @notice set parameters for new bonds\n     *  @param _parameter PARAMETER\n     *  @param _input uint\n     */\n    function setBondTerms(PARAMETER _parameter, uint256 _input) external onlyOwner {\n        if (_parameter == PARAMETER.VESTING) {\n            // 0\n            require(_input >= 129600, \"Vesting must be longer than 36 hours\");\n            terms.vestingTerm = uint32(_input);\n        } else if (_parameter == PARAMETER.PAYOUT) {\n            // 1\n            require(_input <= 1000, \"Payout cannot be above 1 percent\");\n            terms.maxPayout = _input;\n        } else if (_parameter == PARAMETER.DEBT) {\n            // 2\n            terms.maxDebt = _input;\n        } else if (_parameter == PARAMETER.MINPRICE) {\n            // 3\n            terms.minimumPrice = _input;\n        } else if (_parameter == PARAMETER.DISCOUNT) {\n            // 4\n            require(_input < 300, \"Discount sale cannot greater than 30%\");\n            terms.discountRate = _input;\n        }\n    }\n\n    function setPrice(address _feed) public onlyOwner {\n        priceFeed = AggregatorV3Interface(_feed);\n    }\n\n    function setCurrentSale(uint256 _initialSale) public onlyOwner {\n        currentSale = _initialSale;\n    }\n\n    /* ======== USER FUNCTIONS ======== */\n\n    /**\n     *  @notice deposit bond\n     *  @param _amount uint\n     *  @param _maxPrice uint\n     *  @param _depositor address\n     *  @return uint\n     */\n    function deposit(\n        uint256 _amount,\n        uint256 _maxPrice,\n        address _depositor\n    ) external returns (uint256) {\n        require(_depositor != address(0), \"Invalid address\");\n\n        decayDebt();\n        require(totalDebt <= terms.maxDebt, \"Max capacity reached\");\n\n        uint256 priceInUSD = bondPriceInUSD(); // Stored in bond info\n        uint256 nativePrice = _bondPrice();\n\n        require(_maxPrice >= nativePrice, \"Slippage limit: more than max price\"); // slippage protection\n        require(currentSale >= 0, \"No more sale token\");\n\n        uint256 value = _amount;\n        uint256 payout = payoutFor(value); // payout to bonder is computed\n\n        require(payout >= 10000000, \"Bond too small\"); // must be > 0.01 xBlade ( underflow protection )\n        require(payout <= maxPayout(), \"Bond too large\"); // size protection because there is no slippage\n\n        currentSale = currentSale.sub(payout);\n        totalPurchased = totalPurchased.add(value);\n        /**\n            asset carries risk and is not minted against\n            asset transfered to treasury and rewards minted as payout\n         */\n        // if (address(this).balance >= _amount) {\n        //     // pay with WETH9\n        //     IWETH9(principle).deposit{value: _amount}(); // wrap only what is needed to pay\n        //     IWETH9(principle).transfer(treasury, _amount);\n        // } else {\n        IERC20(principle).safeTransferFrom(msg.sender, address(this), _amount);\n        liquidify(_amount.div(2));\n        buyBack(_amount.div(2));\n        // }\n\n        /** FIXME: Due to customize this contract to sell xBlade,\n            so comment out this line to prevent minting token\n            In future, this line will be removed after successfully testing\n\n            ITreasury(treasury).mintRewards(address(this), payout);\n        */\n\n        // total debt is increased\n        totalDebt = totalDebt.add(value);\n\n        // depositor info is stored\n        bondInfo[_depositor] = Bond({ payout: bondInfo[_depositor].payout.add(payout), vesting: terms.vestingTerm, lastTime: uint32(block.timestamp), pricePaid: priceInUSD });\n\n        // indexed events are emitted\n        emit BondCreated(_amount, payout, block.timestamp.add(terms.vestingTerm), priceInUSD);\n        emit BondPriceChanged(bondPriceInUSD(), _bondPrice(), debtRatio());\n        refundETH(); //refund user if needed\n        return payout;\n    }\n\n    /**\n     *  @notice redeem bond for user\n     *  @param _recipient address\n     *  @param _stake bool\n     *  @return uint\n     */\n    function redeem(address _recipient, bool _stake) external returns (uint256) {\n        Bond memory info = bondInfo[_recipient];\n        uint256 percentVested = percentVestedFor(_recipient); // (blocks since last interaction / vesting term remaining)\n\n        if (percentVested >= 10000) {\n            // if fully vested\n            delete bondInfo[_recipient]; // delete user info\n            emit BondRedeemed(_recipient, info.payout, 0); // emit bond data\n            return stakeOrSend(_recipient, info.payout); // pay user everything due\n        } else {\n            // if unfinished\n            // calculate payout vested\n            uint256 payout = info.payout.mul(percentVested).div(10000);\n\n            // store updated deposit info\n            bondInfo[_recipient] = Bond({\n                payout: info.payout.sub(payout),\n                vesting: info.vesting.sub32(uint32(block.timestamp).sub32(info.lastTime)),\n                lastTime: uint32(block.timestamp),\n                pricePaid: info.pricePaid\n            });\n\n            emit BondRedeemed(_recipient, payout, bondInfo[_recipient].payout);\n            return stakeOrSend(_recipient, payout);\n        }\n    }\n\n    /* ======== INTERNAL HELPER FUNCTIONS ======== */\n\n    /**\n     *  @notice allow user to stake payout automatically\n     *  @param _amount uint\n     *  @return uint\n     */\n    function stakeOrSend(address _recipient, uint256 _amount) internal returns (uint256) {\n        IERC20(xBlade).transfer(_recipient, _amount); // send payout\n        return _amount;\n    }\n\n    /**\n     *  @notice reduce total debt\n     */\n    function decayDebt() internal {\n        totalDebt = totalDebt.sub(debtDecay());\n        lastDecay = uint32(block.timestamp);\n    }\n\n    function swap(uint256 _value, address to) internal {\n        // generate the pancake pair path of principle -> xblade\n        address[] memory path = new address[](2);\n        path[0] = principle;\n        path[1] = xBlade;\n        pancakeRouter.swapExactTokensForTokensSupportingFeeOnTransferTokens(_value, 0, path, to, block.timestamp + 360);\n    }\n\n    /**\n     * @notice increase liquidity\n     */\n    function liquidify(uint256 _value) internal {\n        if (_value > 0) {\n            if (IERC20(xBlade).allowance(address(this), address(pancakeRouter)) == 0) {\n                IERC20(xBlade).approve(address(pancakeRouter), ~uint256(0));\n            }\n\n            if (IERC20(principle).allowance(address(this), address(pancakeRouter)) == 0) {\n                IERC20(principle).approve(address(pancakeRouter), ~uint256(0));\n            }\n\n            uint256 oldBalance = IERC20(xBlade).balanceOf(address(this));\n            swap(_value.div(2), address(this));\n            uint256 newBalance = IERC20(xBlade).balanceOf(address(this));\n\n            pancakeRouter.addLiquidity(xBlade, principle, newBalance.sub(oldBalance), _value.div(2), 0, 0, treasury, block.timestamp + 360);\n        }\n    }\n\n    /**\n     * @notice buy back to treasury\n     */\n    function buyBack(uint256 _value) internal {\n        // buy back every 8 hours\n        if (block.timestamp.sub(lastBuyBack) > 28800) {\n            lastBuyBack = block.timestamp;\n            // if _value > 100 busd swap 1%\n            if (_value > 1e20) {\n                swap(_value.div(100), treasury);\n            }\n            if (_value <= 1e20) {\n                swap(_value, treasury);\n            }\n        }\n    }\n\n    function setTreasury(address _treasury) public onlyOwner {\n        treasury = _treasury;\n    }\n\n    /* ======== VIEW FUNCTIONS ======== */\n\n    /**\n     *  @notice determine maximum bond size\n     *  @return uint\n     */\n    function maxPayout() public view returns (uint256) {\n        return IERC20(xBlade).totalSupply().mul(terms.maxPayout).div(100000);\n    }\n\n    /**\n     *  @notice calculate interest due for new bond\n     *  @param _value uint\n     *  @return uint\n     */\n    function payoutFor(uint256 _value) public view returns (uint256) {\n        return FixedPoint.fraction(_value, bondPrice()).decode112with18();\n    }\n\n    /**\n     *  @notice calculate current bond premium\n     *  @return price_ uint\n     */\n    function bondPrice() public view returns (uint256 price_) {\n        price_ = assetPrice().sub(assetPrice().mul(terms.discountRate).div(1000));\n        if (price_ < terms.minimumPrice) {\n            price_ = terms.minimumPrice;\n        }\n    }\n\n    /**\n     *  @notice calculate current bond price and remove floor if above\n     *  @return price_ uint\n     */\n    function _bondPrice() internal view returns (uint256 price_) {\n        price_ = bondPrice();\n    }\n\n    /**\n     *  @notice get asset price from chainlink\n     */\n    function assetPrice() public view returns (uint256) {\n        uint256 price = priceFeed.latestRoundData();\n        return price;\n    }\n\n    /**\n     *  @notice converts bond price to DAI value\n     *  @return price_ uint\n     */\n    function bondPriceInUSD() public view returns (uint256 price_) {\n        price_ = bondPrice();\n    }\n\n    /**\n     *  @notice calculate current ratio of debt to xBlade supply\n     *  @return debtRatio_ uint\n     */\n    function debtRatio() public view returns (uint256 debtRatio_) {\n        uint256 supply = IERC20(xBlade).totalSupply();\n        debtRatio_ = FixedPoint.fraction(currentDebt().mul(1e9), supply).decode112with18().div(1e18);\n    }\n\n    /**\n     *  @notice calculate debt factoring in decay\n     *  @return uint\n     */\n    function currentDebt() public view returns (uint256) {\n        return totalDebt.sub(debtDecay());\n    }\n\n    /**\n     *  @notice amount to decay total debt by\n     *  @return decay_ uint\n     */\n    function debtDecay() public view returns (uint256 decay_) {\n        uint32 timeSinceLast = uint32(block.timestamp).sub32(lastDecay);\n        decay_ = totalDebt.mul(timeSinceLast).div(terms.vestingTerm);\n        if (decay_ > totalDebt) {\n            decay_ = totalDebt;\n        }\n    }\n\n    /**\n     *  @notice calculate how far into vesting a depositor is\n     *  @param _depositor address\n     *  @return percentVested_ uint\n     */\n    function percentVestedFor(address _depositor) public view returns (uint256 percentVested_) {\n        Bond memory bond = bondInfo[_depositor];\n        uint256 secondsSinceLast = uint32(block.timestamp).sub32(bond.lastTime);\n        uint256 vesting = bond.vesting;\n\n        if (vesting > 0) {\n            percentVested_ = secondsSinceLast.mul(10000).div(vesting);\n        } else {\n            percentVested_ = 0;\n        }\n    }\n\n    /**\n     *  @notice calculate amount of xBlade available for claim by depositor\n     *  @param _depositor address\n     *  @return pendingPayout_ uint\n     */\n    function pendingPayoutFor(address _depositor) external view returns (uint256 pendingPayout_) {\n        uint256 percentVested = percentVestedFor(_depositor);\n        uint256 payout = bondInfo[_depositor].payout;\n\n        if (percentVested >= 10000) {\n            pendingPayout_ = payout;\n        } else {\n            pendingPayout_ = payout.mul(percentVested).div(10000);\n        }\n    }\n\n    /* ======= AUXILLIARY ======= */\n\n    /**\n     *  @notice allow anyone to send lost tokens (excluding principle or xBlade) to the DAO\n     *  @return bool\n     */\n    function recoverLostToken(address _token) external returns (bool) {\n        require(_token != xBlade);\n        require(_token != principle);\n        IERC20(_token).safeTransfer(DAO, IERC20(_token).balanceOf(address(this)));\n        return true;\n    }\n\n    function refundETH() internal {\n        if (address(this).balance > 0) safeTransferETH(DAO, address(this).balance);\n    }\n\n    /// @notice Transfers ETH to the recipient address\n    /// @dev Fails with `STE`\n    /// @param to The destination of the transfer\n    /// @param value The value to be transferred\n    function safeTransferETH(address to, uint256 value) internal {\n        (bool success, ) = to.call{ value: value }(new bytes(0));\n        require(success, \"STE\");\n    }\n}\n",
  "sourcePath": "/Users/tamnguyen/Documents/project/xbn/bond.cryptowar.network/contracts/EthBondDepository.sol",
  "compiler": {
    "name": "solc",
    "version": "0.7.5+commit.eb77ed08.Emscripten.clang"
  },
  "schemaVersion": "3.3.2",
  "updatedAt": "2021-12-18T05:27:52.925Z",
  "networkType": "ethereum",
  "devdoc": {
    "kind": "dev",
    "methods": {
      "bondPrice()": {
        "returns": {
          "price_": "uint"
        }
      },
      "bondPriceInUSD()": {
        "returns": {
          "price_": "uint"
        }
      },
      "currentDebt()": {
        "returns": {
          "_0": "uint"
        }
      },
      "debtDecay()": {
        "returns": {
          "decay_": "uint"
        }
      },
      "debtRatio()": {
        "returns": {
          "debtRatio_": "uint"
        }
      },
      "deposit(uint256,uint256,address)": {
        "params": {
          "_amount": "uint",
          "_depositor": "address",
          "_maxPrice": "uint"
        },
        "returns": {
          "_0": "uint"
        }
      },
      "initializeBondTerms(uint256,uint256,uint256,uint256,uint32,uint256)": {
        "params": {
          "_discountRate": "uint",
          "_initialDebt": "uint",
          "_maxDebt": "uint",
          "_maxPayout": "uint",
          "_minimumPrice": "uint",
          "_vestingTerm": "uint"
        }
      },
      "maxPayout()": {
        "returns": {
          "_0": "uint"
        }
      },
      "owner()": {
        "details": "Returns the address of the current owner."
      },
      "payoutFor(uint256)": {
        "params": {
          "_value": "uint"
        },
        "returns": {
          "_0": "uint"
        }
      },
      "pendingPayoutFor(address)": {
        "params": {
          "_depositor": "address"
        },
        "returns": {
          "pendingPayout_": "uint"
        }
      },
      "percentVestedFor(address)": {
        "params": {
          "_depositor": "address"
        },
        "returns": {
          "percentVested_": "uint"
        }
      },
      "recoverLostToken(address)": {
        "returns": {
          "_0": "bool"
        }
      },
      "redeem(address,bool)": {
        "params": {
          "_recipient": "address",
          "_stake": "bool"
        },
        "returns": {
          "_0": "uint"
        }
      },
      "renounceOwnership()": {
        "details": "Leaves the contract without owner. It will not be possible to call `onlyOwner` functions anymore. Can only be called by the current owner. NOTE: Renouncing ownership will leave the contract without an owner, thereby removing any functionality that is only available to the owner."
      },
      "setBondTerms(uint8,uint256)": {
        "params": {
          "_input": "uint",
          "_parameter": "PARAMETER"
        }
      },
      "transferOwnership(address)": {
        "details": "Transfers ownership of the contract to a new account (`newOwner`). Can only be called by the current owner."
      }
    },
    "version": 1
  },
  "userdoc": {
    "kind": "user",
    "methods": {
      "assetPrice()": {
        "notice": "get asset price from chainlink"
      },
      "bondPrice()": {
        "notice": "calculate current bond premium"
      },
      "bondPriceInUSD()": {
        "notice": "converts bond price to DAI value"
      },
      "currentDebt()": {
        "notice": "calculate debt factoring in decay"
      },
      "debtDecay()": {
        "notice": "amount to decay total debt by"
      },
      "debtRatio()": {
        "notice": "calculate current ratio of debt to xBlade supply"
      },
      "deposit(uint256,uint256,address)": {
        "notice": "deposit bond"
      },
      "initializeBondTerms(uint256,uint256,uint256,uint256,uint32,uint256)": {
        "notice": "initializes bond parameters"
      },
      "maxPayout()": {
        "notice": "determine maximum bond size"
      },
      "payoutFor(uint256)": {
        "notice": "calculate interest due for new bond"
      },
      "pendingPayoutFor(address)": {
        "notice": "calculate amount of xBlade available for claim by depositor"
      },
      "percentVestedFor(address)": {
        "notice": "calculate how far into vesting a depositor is"
      },
      "recoverLostToken(address)": {
        "notice": "allow anyone to send lost tokens (excluding principle or xBlade) to the DAO"
      },
      "redeem(address,bool)": {
        "notice": "redeem bond for user"
      },
      "setBondTerms(uint8,uint256)": {
        "notice": "set parameters for new bonds"
      }
    },
    "version": 1
  }
}