{
  "contractName": "TimeBondDepository",
  "abi": [
    {
      "anonymous": false,
      "inputs": [
        {
          "indexed": false,
          "internalType": "uint256",
          "name": "deposit",
          "type": "uint256"
        },
        {
          "indexed": true,
          "internalType": "uint256",
          "name": "payout",
          "type": "uint256"
        },
        {
          "indexed": true,
          "internalType": "uint256",
          "name": "expires",
          "type": "uint256"
        },
        {
          "indexed": true,
          "internalType": "uint256",
          "name": "priceInUSD",
          "type": "uint256"
        }
      ],
      "name": "BondCreated",
      "type": "event"
    },
    {
      "anonymous": false,
      "inputs": [
        {
          "indexed": true,
          "internalType": "uint256",
          "name": "priceInUSD",
          "type": "uint256"
        },
        {
          "indexed": true,
          "internalType": "uint256",
          "name": "internalPrice",
          "type": "uint256"
        },
        {
          "indexed": true,
          "internalType": "uint256",
          "name": "debtRatio",
          "type": "uint256"
        }
      ],
      "name": "BondPriceChanged",
      "type": "event"
    },
    {
      "anonymous": false,
      "inputs": [
        {
          "indexed": true,
          "internalType": "address",
          "name": "recipient",
          "type": "address"
        },
        {
          "indexed": false,
          "internalType": "uint256",
          "name": "payout",
          "type": "uint256"
        },
        {
          "indexed": false,
          "internalType": "uint256",
          "name": "remaining",
          "type": "uint256"
        }
      ],
      "name": "BondRedeemed",
      "type": "event"
    },
    {
      "anonymous": false,
      "inputs": [
        {
          "indexed": true,
          "internalType": "address",
          "name": "previousOwner",
          "type": "address"
        },
        {
          "indexed": true,
          "internalType": "address",
          "name": "newOwner",
          "type": "address"
        }
      ],
      "name": "OwnershipTransferred",
      "type": "event"
    },
    {
      "inputs": [],
      "name": "DAO",
      "outputs": [
        {
          "internalType": "address",
          "name": "",
          "type": "address"
        }
      ],
      "stateMutability": "view",
      "type": "function",
      "constant": true
    },
    {
      "inputs": [
        {
          "internalType": "address",
          "name": "",
          "type": "address"
        }
      ],
      "name": "bondInfo",
      "outputs": [
        {
          "internalType": "uint256",
          "name": "payout",
          "type": "uint256"
        },
        {
          "internalType": "uint256",
          "name": "pricePaid",
          "type": "uint256"
        },
        {
          "internalType": "uint32",
          "name": "vesting",
          "type": "uint32"
        },
        {
          "internalType": "uint32",
          "name": "lastTime",
          "type": "uint32"
        }
      ],
      "stateMutability": "view",
      "type": "function",
      "constant": true
    },
    {
      "inputs": [],
      "name": "lastDecay",
      "outputs": [
        {
          "internalType": "uint32",
          "name": "",
          "type": "uint32"
        }
      ],
      "stateMutability": "view",
      "type": "function",
      "constant": true
    },
    {
      "inputs": [],
      "name": "owner",
      "outputs": [
        {
          "internalType": "address",
          "name": "",
          "type": "address"
        }
      ],
      "stateMutability": "view",
      "type": "function",
      "constant": true
    },
    {
      "inputs": [],
      "name": "pancakeRouter",
      "outputs": [
        {
          "internalType": "contract IPancakeRouter02",
          "name": "",
          "type": "address"
        }
      ],
      "stateMutability": "view",
      "type": "function",
      "constant": true
    },
    {
      "inputs": [],
      "name": "principle",
      "outputs": [
        {
          "internalType": "address",
          "name": "",
          "type": "address"
        }
      ],
      "stateMutability": "view",
      "type": "function",
      "constant": true
    },
    {
      "inputs": [],
      "name": "renounceOwnership",
      "outputs": [],
      "stateMutability": "nonpayable",
      "type": "function"
    },
    {
      "inputs": [],
      "name": "terms",
      "outputs": [
        {
          "internalType": "uint256",
          "name": "minimumPrice",
          "type": "uint256"
        },
        {
          "internalType": "uint256",
          "name": "maxPayout",
          "type": "uint256"
        },
        {
          "internalType": "uint256",
          "name": "maxDebt",
          "type": "uint256"
        },
        {
          "internalType": "uint32",
          "name": "vestingTerm",
          "type": "uint32"
        },
        {
          "internalType": "uint256",
          "name": "discountRate",
          "type": "uint256"
        }
      ],
      "stateMutability": "view",
      "type": "function",
      "constant": true
    },
    {
      "inputs": [],
      "name": "totalDebt",
      "outputs": [
        {
          "internalType": "uint256",
          "name": "",
          "type": "uint256"
        }
      ],
      "stateMutability": "view",
      "type": "function",
      "constant": true
    },
    {
      "inputs": [
        {
          "internalType": "address",
          "name": "newOwner",
          "type": "address"
        }
      ],
      "name": "transferOwnership",
      "outputs": [],
      "stateMutability": "nonpayable",
      "type": "function"
    },
    {
      "inputs": [],
      "name": "treasury",
      "outputs": [
        {
          "internalType": "address",
          "name": "",
          "type": "address"
        }
      ],
      "stateMutability": "view",
      "type": "function",
      "constant": true
    },
    {
      "inputs": [],
      "name": "xBlade",
      "outputs": [
        {
          "internalType": "address",
          "name": "",
          "type": "address"
        }
      ],
      "stateMutability": "view",
      "type": "function",
      "constant": true
    },
    {
      "inputs": [
        {
          "internalType": "address",
          "name": "_xBlade",
          "type": "address"
        },
        {
          "internalType": "address",
          "name": "_principle",
          "type": "address"
        },
        {
          "internalType": "address",
          "name": "_DAO",
          "type": "address"
        },
        {
          "internalType": "address",
          "name": "_feed",
          "type": "address"
        },
        {
          "internalType": "address",
          "name": "_router",
          "type": "address"
        }
      ],
      "name": "initialize",
      "outputs": [],
      "stateMutability": "nonpayable",
      "type": "function"
    },
    {
      "inputs": [
        {
          "internalType": "uint256",
          "name": "_minimumPrice",
          "type": "uint256"
        },
        {
          "internalType": "uint256",
          "name": "_maxPayout",
          "type": "uint256"
        },
        {
          "internalType": "uint256",
          "name": "_maxDebt",
          "type": "uint256"
        },
        {
          "internalType": "uint256",
          "name": "_initialDebt",
          "type": "uint256"
        },
        {
          "internalType": "uint32",
          "name": "_vestingTerm",
          "type": "uint32"
        },
        {
          "internalType": "uint256",
          "name": "_discountRate",
          "type": "uint256"
        }
      ],
      "name": "initializeBondTerms",
      "outputs": [],
      "stateMutability": "nonpayable",
      "type": "function"
    },
    {
      "inputs": [
        {
          "internalType": "enum TimeBondDepository.PARAMETER",
          "name": "_parameter",
          "type": "uint8"
        },
        {
          "internalType": "uint256",
          "name": "_input",
          "type": "uint256"
        }
      ],
      "name": "setBondTerms",
      "outputs": [],
      "stateMutability": "nonpayable",
      "type": "function"
    },
    {
      "inputs": [
        {
          "internalType": "uint256",
          "name": "_amount",
          "type": "uint256"
        },
        {
          "internalType": "uint256",
          "name": "_maxPrice",
          "type": "uint256"
        },
        {
          "internalType": "address",
          "name": "_depositor",
          "type": "address"
        }
      ],
      "name": "deposit",
      "outputs": [
        {
          "internalType": "uint256",
          "name": "",
          "type": "uint256"
        }
      ],
      "stateMutability": "nonpayable",
      "type": "function"
    },
    {
      "inputs": [
        {
          "internalType": "address",
          "name": "_recipient",
          "type": "address"
        },
        {
          "internalType": "bool",
          "name": "_stake",
          "type": "bool"
        }
      ],
      "name": "redeem",
      "outputs": [
        {
          "internalType": "uint256",
          "name": "",
          "type": "uint256"
        }
      ],
      "stateMutability": "nonpayable",
      "type": "function"
    },
    {
      "inputs": [
        {
          "internalType": "uint256",
          "name": "_value",
          "type": "uint256"
        }
      ],
      "name": "swap",
      "outputs": [],
      "stateMutability": "payable",
      "type": "function",
      "payable": true
    },
    {
      "inputs": [],
      "name": "maxPayout",
      "outputs": [
        {
          "internalType": "uint256",
          "name": "",
          "type": "uint256"
        }
      ],
      "stateMutability": "view",
      "type": "function",
      "constant": true
    },
    {
      "inputs": [
        {
          "internalType": "uint256",
          "name": "_value",
          "type": "uint256"
        }
      ],
      "name": "payoutFor",
      "outputs": [
        {
          "internalType": "uint256",
          "name": "",
          "type": "uint256"
        }
      ],
      "stateMutability": "view",
      "type": "function",
      "constant": true
    },
    {
      "inputs": [],
      "name": "bondPrice",
      "outputs": [
        {
          "internalType": "uint256",
          "name": "price_",
          "type": "uint256"
        }
      ],
      "stateMutability": "view",
      "type": "function",
      "constant": true
    },
    {
      "inputs": [],
      "name": "assetPrice",
      "outputs": [
        {
          "internalType": "uint256",
          "name": "",
          "type": "uint256"
        }
      ],
      "stateMutability": "view",
      "type": "function",
      "constant": true
    },
    {
      "inputs": [],
      "name": "bondPriceInUSD",
      "outputs": [
        {
          "internalType": "uint256",
          "name": "price_",
          "type": "uint256"
        }
      ],
      "stateMutability": "view",
      "type": "function",
      "constant": true
    },
    {
      "inputs": [],
      "name": "debtRatio",
      "outputs": [
        {
          "internalType": "uint256",
          "name": "debtRatio_",
          "type": "uint256"
        }
      ],
      "stateMutability": "view",
      "type": "function",
      "constant": true
    },
    {
      "inputs": [],
      "name": "currentDebt",
      "outputs": [
        {
          "internalType": "uint256",
          "name": "",
          "type": "uint256"
        }
      ],
      "stateMutability": "view",
      "type": "function",
      "constant": true
    },
    {
      "inputs": [],
      "name": "debtDecay",
      "outputs": [
        {
          "internalType": "uint256",
          "name": "decay_",
          "type": "uint256"
        }
      ],
      "stateMutability": "view",
      "type": "function",
      "constant": true
    },
    {
      "inputs": [
        {
          "internalType": "address",
          "name": "_depositor",
          "type": "address"
        }
      ],
      "name": "percentVestedFor",
      "outputs": [
        {
          "internalType": "uint256",
          "name": "percentVested_",
          "type": "uint256"
        }
      ],
      "stateMutability": "view",
      "type": "function",
      "constant": true
    },
    {
      "inputs": [
        {
          "internalType": "address",
          "name": "_depositor",
          "type": "address"
        }
      ],
      "name": "pendingPayoutFor",
      "outputs": [
        {
          "internalType": "uint256",
          "name": "pendingPayout_",
          "type": "uint256"
        }
      ],
      "stateMutability": "view",
      "type": "function",
      "constant": true
    },
    {
      "inputs": [
        {
          "internalType": "address",
          "name": "_token",
          "type": "address"
        }
      ],
      "name": "recoverLostToken",
      "outputs": [
        {
          "internalType": "bool",
          "name": "",
          "type": "bool"
        }
      ],
      "stateMutability": "nonpayable",
      "type": "function"
    }
  ],
  "bytecode": "0x608060405234801561001057600080fd5b50612aa2806100206000396000f3fe6080604052600436106101c25760003560e01c806394b918de116100f7578063d502562511610095578063f2fde38b11610064578063f2fde38b146105f1578063f34dad2f14610624578063f5c2ab5b14610639578063fc7b9c1814610667576101c2565b8063d50256251461056c578063d7ccfb0b146105b2578063e0176de8146105c7578063e392a262146105dc576101c2565b8063c21ebd07116100d1578063c21ebd07146104ce578063cd1234b3146104e3578063cea55f5714610542578063d24378eb14610557576101c2565b806394b918de1461045557806398fabd3a14610472578063b4abccba14610487576101c2565b806368fe21ea116101645780637927ebf81161013e5780637927ebf8146103c2578063844b5c7c146103ec5780638da5cb5b146104015780638dbdbe6d14610416576101c2565b806368fe21ea1461034a578063715018a614610398578063759076e5146103ad576101c2565b80631e321a0f116101a05780631e321a0f146102945780631feed31f146102c7578063507930ec1461030257806361d027b314610335576101c2565b8063016a4284146101c757806301b88ee8146101f85780631459457a1461023d575b600080fd5b3480156101d357600080fd5b506101dc61067c565b604080516001600160a01b039092168252519081900360200190f35b34801561020457600080fd5b5061022b6004803603602081101561021b57600080fd5b50356001600160a01b031661068b565b60408051918252519081900360200190f35b34801561024957600080fd5b50610292600480360360a081101561026057600080fd5b506001600160a01b038135811691602081013582169160408201358116916060810135821691608090910135166106e4565b005b3480156102a057600080fd5b50610292600480360360408110156102b757600080fd5b5060ff813516906020013561086b565b3480156102d357600080fd5b5061022b600480360360408110156102ea57600080fd5b506001600160a01b0381351690602001351515610a4c565b34801561030e57600080fd5b5061022b6004803603602081101561032557600080fd5b50356001600160a01b0316610c92565b34801561034157600080fd5b506101dc610d3f565b34801561035657600080fd5b50610292600480360360c081101561036d57600080fd5b5080359060208101359060408101359060608101359063ffffffff6080820135169060a00135610d4e565b3480156103a457600080fd5b50610292610e65565b3480156103b957600080fd5b5061022b610f11565b3480156103ce57600080fd5b5061022b600480360360208110156103e557600080fd5b5035610f2d565b3480156103f857600080fd5b5061022b610f48565b34801561040d57600080fd5b506101dc610f52565b34801561042257600080fd5b5061022b6004803603606081101561043957600080fd5b50803590602081013590604001356001600160a01b0316610f61565b6102926004803603602081101561046b57600080fd5b5035611281565b34801561047e57600080fd5b506101dc611746565b34801561049357600080fd5b506104ba600480360360208110156104aa57600080fd5b50356001600160a01b0316611755565b604080519115158252519081900360200190f35b3480156104da57600080fd5b506101dc611826565b3480156104ef57600080fd5b506105166004803603602081101561050657600080fd5b50356001600160a01b031661183c565b60408051948552602085019390935263ffffffff91821684840152166060830152519081900360800190f35b34801561054e57600080fd5b5061022b61186e565b34801561056357600080fd5b5061022b611921565b34801561057857600080fd5b506105816119a4565b6040805195865260208601949094528484019290925263ffffffff1660608401526080830152519081900360a00190f35b3480156105be57600080fd5b5061022b6119bf565b3480156105d357600080fd5b5061022b6119fd565b3480156105e857600080fd5b5061022b611a8f565b3480156105fd57600080fd5b506102926004803603602081101561061457600080fd5b50356001600160a01b0316611ae8565b34801561063057600080fd5b506101dc611beb565b34801561064557600080fd5b5061064e611bfa565b6040805163ffffffff9092168252519081900360200190f35b34801561067357600080fd5b5061022b611c06565b6066546001600160a01b031681565b60008061069783610c92565b6001600160a01b0384166000908152606f602052604090205490915061271082106106c4578092506106dd565b6106da6127106106d48385611c0c565b90611c65565b92505b5050919050565b600054610100900460ff16806106fd57506106fd611ccc565b8061070b575060005460ff16155b6107465760405162461bcd60e51b815260040180806020018281038252602e81526020018061298d602e913960400191505060405180910390fd5b600054610100900460ff16158015610771576000805460ff1961ff0019909116610100171660011790555b610779611cdd565b6001600160a01b03861661078c57600080fd5b606580546001600160a01b0319166001600160a01b038881169190911790915585166107b757600080fd5b606680546001600160a01b0319166001600160a01b038781169190911790915584166107e257600080fd5b606880546001600160a01b0319166001600160a01b0386811691909117909155831661080d57600080fd5b606980546001600160a01b0319166001600160a01b038581169190911790915560718054640100000000600160c01b031916600160201b928516929092029190911790558015610863576000805461ff00191690555b505050505050565b610873611d8e565b6001600160a01b0316610884610f52565b6001600160a01b0316146108cd576040805162461bcd60e51b815260206004820181905260248201526000805160206129dc833981519152604482015290519081900360640190fd5b60008260048111156108db57fe5b141561093d576201fa408110156109235760405162461bcd60e51b8152600401808060200182810382526024815260200180612a1f6024913960400191505060405180910390fd5b606d805463ffffffff191663ffffffff8316179055610a48565b600182600481111561094b57fe5b14156109b2576103e88111156109a8576040805162461bcd60e51b815260206004820181905260248201527f5061796f75742063616e6e6f742062652061626f766520312070657263656e74604482015290519081900360640190fd5b606b819055610a48565b60028260048111156109c057fe5b14156109d057606c819055610a48565b60038260048111156109de57fe5b14156109ee57606a819055610a48565b60048260048111156109fc57fe5b1415610a485761012c8110610a425760405162461bcd60e51b81526004018080602001828103825260258152602001806128fb6025913960400191505060405180910390fd5b606e8190555b5050565b6000610a5661288e565b506001600160a01b0383166000908152606f602090815260408083208151608081018352815481526001820154938101939093526002015463ffffffff80821692840192909252600160201b900416606082015290610ab485610c92565b90506127108110610b48576001600160a01b0385166000818152606f6020908152604080832083815560018101849055600201805467ffffffffffffffff19169055855181519081529182019290925281517f51c99f515c87b0d95ba97f616edd182e8f161c4932eac17c6fefe9dab58b77b1929181900390910190a2610b3f858360000151611d92565b92505050610c8c565b8151600090610b5f90612710906106d49085611c0c565b90506040518060800160405280610b83838660000151611e1e90919063ffffffff16565b815260200184602001518152602001610bcb610bb286606001514263ffffffff16611e7b90919063ffffffff16565b866040015163ffffffff16611e7b90919063ffffffff16565b63ffffffff90811682524281166020928301526001600160a01b0389166000818152606f8452604090819020855180825586860151600183015586830151600290920180546060909801518616600160201b0267ffffffff00000000199390961663ffffffff19909816979097179190911693909317909455835185815292830191909152825190927f51c99f515c87b0d95ba97f616edd182e8f161c4932eac17c6fefe9dab58b77b1928290030190a2610c868682611d92565b93505050505b92915050565b6000610c9c61288e565b506001600160a01b0382166000908152606f602090815260408083208151608081018352815481526001820154938101939093526002015463ffffffff80821692840192909252600160201b9004811660608301819052919291610d05914281169190611e7b16565b604083015163ffffffff9182169250168015610d3257610d2b816106d484612710611c0c565b9350610d37565b600093505b505050919050565b6067546001600160a01b031681565b610d56611d8e565b6001600160a01b0316610d67610f52565b6001600160a01b031614610db0576040805162461bcd60e51b815260206004820181905260248201526000805160206129dc833981519152604482015290519081900360640190fd5b610db8610f11565b15610df45760405162461bcd60e51b815260040180806020018281038252602181526020018061296c6021913960400191505060405180910390fd5b6040805160a0810182528781526020810187905290810185905263ffffffff928316606082018190526080909101829052606a96909655606b94909455606c92909255606d805463ffffffff199081169095179055606e929092556070919091556071805490921642909116179055565b610e6d611d8e565b6001600160a01b0316610e7e610f52565b6001600160a01b031614610ec7576040805162461bcd60e51b815260206004820181905260248201526000805160206129dc833981519152604482015290519081900360640190fd5b6033546040516000916001600160a01b0316907f8be0079c531659141344cd1fd0a4f28419497f9722a3daafe3b4186f6b6457e0908390a3603380546001600160a01b0319169055565b6000610f27610f1e611a8f565b60705490611e1e565b90505b90565b6000610c8c610f4383610f3e6119bf565b611ebd565b612034565b6000610f276119bf565b6033546001600160a01b031690565b60006001600160a01b038216610fb0576040805162461bcd60e51b815260206004820152600f60248201526e496e76616c6964206164647265737360881b604482015290519081900360640190fd5b610fb861204c565b606c546070541115611008576040805162461bcd60e51b815260206004820152601460248201527313585e0818d85c1858da5d1e481c995858da195960621b604482015290519081900360640190fd5b6000611012610f48565b9050600061101e610f48565b90508085101561105f5760405162461bcd60e51b81526004018080602001828103825260238152602001806129fc6023913960400191505060405180910390fd5b85600061106b82610f2d565b9050629896808110156110b6576040805162461bcd60e51b815260206004820152600e60248201526d109bdb99081d1bdbc81cdb585b1b60921b604482015290519081900360640190fd5b6110be6119fd565b811115611103576040805162461bcd60e51b815260206004820152600e60248201526d426f6e6420746f6f206c6172676560901b604482015290519081900360640190fd5b60665461111b906001600160a01b031633308b612071565b60705461112890836120d1565b607055604080516080810182526001600160a01b0388166000908152606f6020529190912054819061115a90846120d1565b81526020808201879052606d805463ffffffff908116604080860191909152428083166060968701526001600160a01b038d166000908152606f865282902087518155948701516001860155908601516002909401805496909501518216600160201b0267ffffffff000000001994831663ffffffff19909716969096179390931694909417909255905486926111f592918116906120d116565b604080518b8152905184917f1fec6dc81f140574bf43f6b1e420ae1dd47928b9d57db8cbd7b8611063b85ae5919081900360200190a461123361186e565b61123b610f48565b611243610f48565b6040517f375b221f40939bfd8f49723a17cf7bc6d576ebf72efe2cc3e991826f5b3f390a90600090a461127461212b565b93505050505b9392505050565b80156117435760655460715460408051636eb1769f60e11b8152306004820152600160201b9092046001600160a01b039081166024840152905192169163dd62ed3e91604480820192602092909190829003018186803b1580156112e457600080fd5b505afa1580156112f8573d6000803e3d6000fd5b505050506040513d602081101561130e57600080fd5b50516113a2576065546071546040805163095ea7b360e01b8152600160201b9092046001600160a01b0390811660048401526000196024840152905192169163095ea7b3916044808201926020929091908290030181600087803b15801561137557600080fd5b505af1158015611389573d6000803e3d6000fd5b505050506040513d602081101561139f57600080fd5b50505b606554604080516370a0823160e01b815230600482015290516000926001600160a01b0316916370a08231916024808301926020929190829003018186803b1580156113ed57600080fd5b505afa158015611401573d6000803e3d6000fd5b505050506040513d602081101561141757600080fd5b5051604080516002808252606080830184529394509091602083019080368337019050509050607160049054906101000a90046001600160a01b03166001600160a01b031663ad5c46486040518163ffffffff1660e01b815260040160206040518083038186803b15801561148b57600080fd5b505afa15801561149f573d6000803e3d6000fd5b505050506040513d60208110156114b557600080fd5b5051815182906000906114c457fe5b6001600160a01b0392831660209182029290920101526065548251911690829060019081106114ef57fe5b60200260200101906001600160a01b031690816001600160a01b031681525050607160049054906101000a90046001600160a01b03166001600160a01b0316635c11d795846000843042610168016040518663ffffffff1660e01b81526004018086815260200185815260200180602001846001600160a01b03168152602001838152602001828103825285818151815260200191508051906020019060200280838360005b838110156115ad578181015183820152602001611595565b505050509050019650505050505050600060405180830381600087803b1580156115d657600080fd5b505af11580156115ea573d6000803e3d6000fd5b5050606654604080516370a0823160e01b81523060048201529051600094506001600160a01b0390921692506370a08231916024808301926020929190829003018186803b15801561163b57600080fd5b505afa15801561164f573d6000803e3d6000fd5b505050506040513d602081101561166557600080fd5b50516071546065546066549293506001600160a01b03600160201b90920482169263e8e3370092918216911661169b8588611e1e565b604080516001600160e01b031960e087901b1681526001600160a01b03948516600482015292909316602483015260448201526064810188905260006084820181905260a482018190523060c4830152610168420160e483015291516101048083019360609383900390910190829087803b15801561171957600080fd5b505af115801561172d573d6000803e3d6000fd5b505050506040513d606081101561086357600080fd5b50565b6068546001600160a01b031681565b6065546000906001600160a01b038381169116141561177357600080fd5b6066546001600160a01b038381169116141561178e57600080fd5b606854604080516370a0823160e01b8152306004820152905161181e926001600160a01b0390811692908616916370a0823191602480820192602092909190829003018186803b1580156117e157600080fd5b505afa1580156117f5573d6000803e3d6000fd5b505050506040513d602081101561180b57600080fd5b50516001600160a01b0385169190612149565b506001919050565b607154600160201b90046001600160a01b031681565b606f6020526000908152604090208054600182015460029092015490919063ffffffff80821691600160201b90041684565b600080606560009054906101000a90046001600160a01b03166001600160a01b03166318160ddd6040518163ffffffff1660e01b815260040160206040518083038186803b1580156118bf57600080fd5b505afa1580156118d3573d6000803e3d6000fd5b505050506040513d60208110156118e957600080fd5b5051905061191b670de0b6b3a76400006106d4610f43611915633b9aca0061190f610f11565b90611c0c565b85611ebd565b91505090565b600080606960009054906101000a90046001600160a01b03166001600160a01b031663feaf968c6040518163ffffffff1660e01b815260040160206040518083038186803b15801561197257600080fd5b505afa158015611986573d6000803e3d6000fd5b505050506040513d602081101561199c57600080fd5b505191505090565b606a54606b54606c54606d54606e5463ffffffff9091169085565b60006119e96119db6103e86106d4606a6004015461190f611921565b6119e3611921565b90611e1e565b606a54909150811015610f2a5750606a5490565b6000610f27620186a06106d4606a60010154606560009054906101000a90046001600160a01b03166001600160a01b03166318160ddd6040518163ffffffff1660e01b815260040160206040518083038186803b158015611a5d57600080fd5b505afa158015611a71573d6000803e3d6000fd5b505050506040513d6020811015611a8757600080fd5b505190611c0c565b6071546000908190611aad9063ffffffff42811691811690611e7b16565b606d54607054919250611ad29163ffffffff918216916106d4919080861690611c0c16565b9150607054821115611ae45760705491505b5090565b611af0611d8e565b6001600160a01b0316611b01610f52565b6001600160a01b031614611b4a576040805162461bcd60e51b815260206004820181905260248201526000805160206129dc833981519152604482015290519081900360640190fd5b6001600160a01b038116611b8f5760405162461bcd60e51b81526004018080602001828103825260268152602001806128d56026913960400191505060405180910390fd5b6033546040516001600160a01b038084169216907f8be0079c531659141344cd1fd0a4f28419497f9722a3daafe3b4186f6b6457e090600090a3603380546001600160a01b0319166001600160a01b0392909216919091179055565b6065546001600160a01b031681565b60715463ffffffff1681565b60705481565b600082611c1b57506000610c8c565b82820282848281611c2857fe5b041461127a5760405162461bcd60e51b81526004018080602001828103825260218152602001806129bb6021913960400191505060405180910390fd5b6000808211611cbb576040805162461bcd60e51b815260206004820152601a60248201527f536166654d6174683a206469766973696f6e206279207a65726f000000000000604482015290519081900360640190fd5b818381611cc457fe5b049392505050565b6000611cd7306121a0565b15905090565b600054610100900460ff1680611cf65750611cf6611ccc565b80611d04575060005460ff16155b611d3f5760405162461bcd60e51b815260040180806020018281038252602e81526020018061298d602e913960400191505060405180910390fd5b600054610100900460ff16158015611d6a576000805460ff1961ff0019909116610100171660011790555b611d726121a6565b611d7a612246565b8015611743576000805461ff001916905550565b3390565b6065546040805163a9059cbb60e01b81526001600160a01b038581166004830152602482018590529151600093929092169163a9059cbb9160448082019260209290919082900301818787803b158015611deb57600080fd5b505af1158015611dff573d6000803e3d6000fd5b505050506040513d6020811015611e1557600080fd5b50919392505050565b600082821115611e75576040805162461bcd60e51b815260206004820152601e60248201527f536166654d6174683a207375627472616374696f6e206f766572666c6f770000604482015290519081900360640190fd5b50900390565b600061127a83836040518060400160405280601e81526020017f536166654d6174683a207375627472616374696f6e206f766572666c6f77000081525061233f565b611ec56128c2565b60008211611f045760405162461bcd60e51b81526004018080602001828103825260268152602001806129466026913960400191505060405180910390fd5b82611f1e5750604080516020810190915260008152610c8c565b71ffffffffffffffffffffffffffffffffffff8311611fc557600082607085901b81611f4657fe5b0490506001600160e01b03811115611fa5576040805162461bcd60e51b815260206004820152601e60248201527f4669786564506f696e743a3a6672616374696f6e3a206f766572666c6f770000604482015290519081900360640190fd5b6040518060200160405280826001600160e01b0316815250915050610c8c565b6000611fd684600160701b856123e3565b90506001600160e01b03811115611fa5576040805162461bcd60e51b815260206004820152601e60248201527f4669786564506f696e743a3a6672616374696f6e3a206f766572666c6f770000604482015290519081900360640190fd5b516612725dd1d243ab6001600160e01b039091160490565b612057610f1e611a8f565b6070556071805463ffffffff19164263ffffffff16179055565b604080516001600160a01b0380861660248301528416604482015260648082018490528251808303909101815260849091019091526020810180516001600160e01b03166323b872dd60e01b1790526120cb908590612478565b50505050565b60008282018381101561127a576040805162461bcd60e51b815260206004820152601b60248201527f536166654d6174683a206164646974696f6e206f766572666c6f770000000000604482015290519081900360640190fd5b471561214757606854612147906001600160a01b031647612529565b565b604080516001600160a01b038416602482015260448082018490528251808303909101815260649091019091526020810180516001600160e01b031663a9059cbb60e01b17905261219b908490612478565b505050565b3b151590565b600054610100900460ff16806121bf57506121bf611ccc565b806121cd575060005460ff16155b6122085760405162461bcd60e51b815260040180806020018281038252602e81526020018061298d602e913960400191505060405180910390fd5b600054610100900460ff16158015611d7a576000805460ff1961ff0019909116610100171660011790558015611743576000805461ff001916905550565b600054610100900460ff168061225f575061225f611ccc565b8061226d575060005460ff16155b6122a85760405162461bcd60e51b815260040180806020018281038252602e81526020018061298d602e913960400191505060405180910390fd5b600054610100900460ff161580156122d3576000805460ff1961ff0019909116610100171660011790555b60006122dd611d8e565b603380546001600160a01b0319166001600160a01b038316908117909155604051919250906000907f8be0079c531659141344cd1fd0a4f28419497f9722a3daafe3b4186f6b6457e0908290a3508015611743576000805461ff001916905550565b60008363ffffffff168363ffffffff16111582906123db5760405162461bcd60e51b81526004018080602001828103825283818151815260200191508051906020019080838360005b838110156123a0578181015183820152602001612388565b50505050905090810190601f1680156123cd5780820380516001836020036101000a031916815260200191505b509250505060405180910390fd5b505050900390565b60008060006123f28686612618565b915091506000848061240057fe5b868809905082811115612414576001820391505b808303925084821061246d576040805162461bcd60e51b815260206004820152601a60248201527f46756c6c4d6174683a3a6d756c4469763a206f766572666c6f77000000000000604482015290519081900360640190fd5b611274838387612645565b60606124cd826040518060400160405280602081526020017f5361666545524332303a206c6f772d6c6576656c2063616c6c206661696c6564815250856001600160a01b03166126b59092919063ffffffff16565b80519091501561219b578080602001905160208110156124ec57600080fd5b505161219b5760405162461bcd60e51b815260040180806020018281038252602a815260200180612a43602a913960400191505060405180910390fd5b604080516000808252602082019092526001600160a01b0384169083906040518082805190602001908083835b602083106125755780518252601f199092019160209182019101612556565b6001836020036101000a03801982511681845116808217855250505050505090500191505060006040518083038185875af1925050503d80600081146125d7576040519150601f19603f3d011682016040523d82523d6000602084013e6125dc565b606091505b505090508061219b576040805162461bcd60e51b815260206004820152600360248201526253544560e81b604482015290519081900360640190fd5b600080806000198486099050838502925082810391508281101561263d576001820391505b509250929050565b6000818103821680838161265557fe5b04925080858161266157fe5b04945080816000038161267057fe5b60028581038087028203028087028203028087028203028087028203028087028203028087028203029586029003909402930460010193909302939093010292915050565b60606126c484846000856126cc565b949350505050565b60608247101561270d5760405162461bcd60e51b81526004018080602001828103825260268152602001806129206026913960400191505060405180910390fd5b612716856121a0565b612767576040805162461bcd60e51b815260206004820152601d60248201527f416464726573733a2063616c6c20746f206e6f6e2d636f6e7472616374000000604482015290519081900360640190fd5b60006060866001600160a01b031685876040518082805190602001908083835b602083106127a65780518252601f199092019160209182019101612787565b6001836020036101000a03801982511681845116808217855250505050505090500191505060006040518083038185875af1925050503d8060008114612808576040519150601f19603f3d011682016040523d82523d6000602084013e61280d565b606091505b509150915061281d828286612828565b979650505050505050565b6060831561283757508161127a565b8251156128475782518084602001fd5b60405162461bcd60e51b81526020600482018181528451602484015284518593919283926044019190850190808383600083156123a0578181015183820152602001612388565b60405180608001604052806000815260200160008152602001600063ffffffff168152602001600063ffffffff1681525090565b6040805160208101909152600081529056fe4f776e61626c653a206e6577206f776e657220697320746865207a65726f2061646472657373446973636f756e742073616c652063616e6e6f742067726561746572207468616e20333025416464726573733a20696e73756666696369656e742062616c616e636520666f722063616c6c4669786564506f696e743a3a6672616374696f6e3a206469766973696f6e206279207a65726f44656274206d757374206265203020666f7220696e697469616c697a6174696f6e496e697469616c697a61626c653a20636f6e747261637420697320616c726561647920696e697469616c697a6564536166654d6174683a206d756c7469706c69636174696f6e206f766572666c6f774f776e61626c653a2063616c6c6572206973206e6f7420746865206f776e6572536c697070616765206c696d69743a206d6f7265207468616e206d617820707269636556657374696e67206d757374206265206c6f6e676572207468616e20333620686f7572735361666545524332303a204552433230206f7065726174696f6e20646964206e6f742073756363656564a2646970667358221220458ed0687570d7ce2695ce2d1fbb905495f07ce114ca75e719c30c40f7e4832264736f6c63430007050033",
  "immutableReferences": {},
  "source": "pragma solidity 0.7.5;\n\n// import \"@openzeppelin/contracts/utils/Address.sol\";\nimport \"@openzeppelin/contracts/token/ERC20/IERC20.sol\";\nimport \"@openzeppelin/contracts/math/SafeMath.sol\";\nimport \"@openzeppelin/contracts/token/ERC20/SafeERC20.sol\";\nimport \"@openzeppelin/contracts-upgradeable/proxy/Initializable.sol\";\nimport \"@openzeppelin/contracts-upgradeable/access/OwnableUpgradeable.sol\";\nimport \"./libraries/FixedPoint.sol\";\nimport \"./interfaces/IPancakeRouter02.sol\";\nimport \"./libraries/SafeMath32.sol\";\n\ninterface AggregatorV3Interface {\n    function latestRoundData() external view returns (uint256 answer);\n}\n\ninterface ITreasury {\n    function deposit(\n        uint256 _amount,\n        address _token,\n        uint256 _profit\n    ) external returns (bool);\n\n    function valueOf(address _token, uint256 _amount) external view returns (uint256 value_);\n\n    function mintRewards(address _recipient, uint256 _amount) external;\n}\n\ninterface IStaking {\n    function stake(uint256 _amount, address _recipient) external returns (bool);\n}\n\ninterface IStakingHelper {\n    function stake(uint256 _amount, address _recipient) external;\n}\n\ninterface IWETH9 is IERC20 {\n    /// @notice Deposit ether to get wrapped ether\n    function deposit() external payable;\n}\n\ncontract TimeBondDepository is Initializable, OwnableUpgradeable {\n    using FixedPoint for *;\n    using SafeERC20 for IERC20;\n    using SafeMath for uint256;\n    using SafeMath32 for uint32;\n\n    /* ======== EVENTS ======== */\n\n    event BondCreated(uint256 deposit, uint256 indexed payout, uint256 indexed expires, uint256 indexed priceInUSD);\n    event BondRedeemed(address indexed recipient, uint256 payout, uint256 remaining);\n    event BondPriceChanged(uint256 indexed priceInUSD, uint256 indexed internalPrice, uint256 indexed debtRatio);\n\n    /* ======== STATE VARIABLES ======== */\n    address public xBlade; // token given as payment for bond\n    address public principle; // token used to create bond\n    address public treasury; // mints xBlade when receives principle\n    address public DAO; // receives profit share from bond\n\n    AggregatorV3Interface internal priceFeed;\n\n    Terms public terms; // stores terms for new bonds\n\n    mapping(address => Bond) public bondInfo; // stores bond information for depositors\n\n    uint256 public totalDebt; // total value of outstanding bonds; used for pricing\n    uint32 public lastDecay; // reference block for debt decay\n\n    IPancakeRouter02 public pancakeRouter;\n    /* ======== STRUCTS ======== */\n\n    // Info for creating new bonds\n    struct Terms {\n        uint256 minimumPrice; // vs principle value. 4 decimals (1500 = 0.15)\n        uint256 maxPayout; // in thousandths of a %. i.e. 500 = 0.5%\n        uint256 maxDebt; // 9 decimal debt ratio, max % total supply created as debt\n        uint32 vestingTerm; // in seconds\n        uint256 discountRate; // in percent\n    }\n\n    // Info for bond holder\n    struct Bond {\n        uint256 payout; // xBlade remaining to be paid\n        uint256 pricePaid; // In DAI, for front end viewing\n        uint32 vesting; // Seconds left to vest\n        uint32 lastTime; // Last interaction\n    }\n\n    /* ======== INITIALIZATION ======== */\n\n    function initialize(\n        address _xBlade,\n        address _principle,\n        // address _treasury,\n        address _DAO,\n        address _feed,\n        address _router\n    ) public initializer {\n        OwnableUpgradeable.__Ownable_init();\n        require(_xBlade != address(0));\n        xBlade = _xBlade;\n        require(_principle != address(0));\n        principle = _principle;\n        // require(_treasury != address(0));\n        // treasury = _treasury;\n        require(_DAO != address(0));\n        DAO = _DAO;\n        require(_feed != address(0));\n        priceFeed = AggregatorV3Interface(_feed);\n        pancakeRouter = IPancakeRouter02(_router);\n    }\n\n    /**\n     *  @notice initializes bond parameters\n     *  @param _vestingTerm uint\n     *  @param _minimumPrice uint\n     *  @param _maxPayout uint\n     *  @param _maxDebt uint\n     *  @param _initialDebt uint\n     *  @param _discountRate uint\n     */\n    function initializeBondTerms(\n        uint256 _minimumPrice,\n        uint256 _maxPayout,\n        uint256 _maxDebt,\n        uint256 _initialDebt,\n        uint32 _vestingTerm,\n        uint256 _discountRate\n    ) external onlyOwner {\n        require(currentDebt() == 0, \"Debt must be 0 for initialization\");\n        terms = Terms({ vestingTerm: _vestingTerm, minimumPrice: _minimumPrice, maxPayout: _maxPayout, maxDebt: _maxDebt, discountRate: _discountRate });\n        totalDebt = _initialDebt;\n        lastDecay = uint32(block.timestamp);\n    }\n\n    /* ======== POLICY FUNCTIONS ======== */\n\n    enum PARAMETER {\n        VESTING,\n        PAYOUT,\n        DEBT,\n        MINPRICE,\n        DISCOUNT\n    }\n\n    /**\n     *  @notice set parameters for new bonds\n     *  @param _parameter PARAMETER\n     *  @param _input uint\n     */\n    function setBondTerms(PARAMETER _parameter, uint256 _input) external onlyOwner {\n        if (_parameter == PARAMETER.VESTING) {\n            // 0\n            require(_input >= 129600, \"Vesting must be longer than 36 hours\");\n            terms.vestingTerm = uint32(_input);\n        } else if (_parameter == PARAMETER.PAYOUT) {\n            // 1\n            require(_input <= 1000, \"Payout cannot be above 1 percent\");\n            terms.maxPayout = _input;\n        } else if (_parameter == PARAMETER.DEBT) {\n            // 2\n            terms.maxDebt = _input;\n        } else if (_parameter == PARAMETER.MINPRICE) {\n            // 3\n            terms.minimumPrice = _input;\n        } else if (_parameter == PARAMETER.DISCOUNT) {\n            // 4\n            require(_input < 300, \"Discount sale cannot greater than 30%\");\n            terms.discountRate = _input;\n        }\n    }\n\n    /* ======== USER FUNCTIONS ======== */\n\n    /**\n     *  @notice deposit bond\n     *  @param _amount uint\n     *  @param _maxPrice uint\n     *  @param _depositor address\n     *  @return uint\n     */\n    function deposit(\n        uint256 _amount,\n        uint256 _maxPrice,\n        address _depositor\n    ) external returns (uint256) {\n        require(_depositor != address(0), \"Invalid address\");\n\n        decayDebt();\n        require(totalDebt <= terms.maxDebt, \"Max capacity reached\");\n\n        uint256 priceInUSD = bondPriceInUSD(); // Stored in bond info\n        uint256 nativePrice = _bondPrice();\n\n        require(_maxPrice >= nativePrice, \"Slippage limit: more than max price\"); // slippage protection\n\n        uint256 value = _amount;\n        uint256 payout = payoutFor(value); // payout to bonder is computed\n\n        require(payout >= 10000000, \"Bond too small\"); // must be > 0.01 xBlade ( underflow protection )\n        require(payout <= maxPayout(), \"Bond too large\"); // size protection because there is no slippage\n\n        /**\n            asset carries risk and is not minted against\n            asset transfered to treasury and rewards minted as payout\n         */\n        // if (address(this).balance >= _amount) {\n        //     // pay with WETH9\n        //     IWETH9(principle).deposit{value: _amount}(); // wrap only what is needed to pay\n        //     IWETH9(principle).transfer(treasury, _amount);\n        // } else {\n        IERC20(principle).safeTransferFrom(msg.sender, address(this), _amount);\n        // }\n\n        /** FIXME: Due to customize this contract to sell xBlade,\n            so comment out this line to prevent minting token\n            In future, this line will be removed after successfully testing\n\n            ITreasury(treasury).mintRewards(address(this), payout);\n        */\n\n        // total debt is increased\n        totalDebt = totalDebt.add(value);\n\n        // depositor info is stored\n        bondInfo[_depositor] = Bond({ payout: bondInfo[_depositor].payout.add(payout), vesting: terms.vestingTerm, lastTime: uint32(block.timestamp), pricePaid: priceInUSD });\n\n        // indexed events are emitted\n        emit BondCreated(_amount, payout, block.timestamp.add(terms.vestingTerm), priceInUSD);\n        emit BondPriceChanged(bondPriceInUSD(), _bondPrice(), debtRatio());\n        refundETH(); //refund user if needed\n        return payout;\n    }\n\n    /**\n     *  @notice redeem bond for user\n     *  @param _recipient address\n     *  @param _stake bool\n     *  @return uint\n     */\n    function redeem(address _recipient, bool _stake) external returns (uint256) {\n        Bond memory info = bondInfo[_recipient];\n        uint256 percentVested = percentVestedFor(_recipient); // (blocks since last interaction / vesting term remaining)\n\n        if (percentVested >= 10000) {\n            // if fully vested\n            delete bondInfo[_recipient]; // delete user info\n            emit BondRedeemed(_recipient, info.payout, 0); // emit bond data\n            return stakeOrSend(_recipient, info.payout); // pay user everything due\n        } else {\n            // if unfinished\n            // calculate payout vested\n            uint256 payout = info.payout.mul(percentVested).div(10000);\n\n            // store updated deposit info\n            bondInfo[_recipient] = Bond({\n                payout: info.payout.sub(payout),\n                vesting: info.vesting.sub32(uint32(block.timestamp).sub32(info.lastTime)),\n                lastTime: uint32(block.timestamp),\n                pricePaid: info.pricePaid\n            });\n\n            emit BondRedeemed(_recipient, payout, bondInfo[_recipient].payout);\n            return stakeOrSend(_recipient, payout);\n        }\n    }\n\n    /* ======== INTERNAL HELPER FUNCTIONS ======== */\n\n    /**\n     *  @notice allow user to stake payout automatically\n     *  @param _amount uint\n     *  @return uint\n     */\n    function stakeOrSend(address _recipient, uint256 _amount) internal returns (uint256) {\n        IERC20(xBlade).transfer(_recipient, _amount); // send payout\n        return _amount;\n    }\n\n    /**\n     *  @notice reduce total debt\n     */\n    function decayDebt() internal {\n        totalDebt = totalDebt.sub(debtDecay());\n        lastDecay = uint32(block.timestamp);\n    }\n\n    /**\n     * @notice increase liquidity\n     */\n    function liquidify(uint256 _value) internal {\n        uint256 _treasuryPercent = 170;\n        uint256 _buyAndLiquidifyPercent = 415;\n        IERC20(principle).safeTransferFrom(msg.sender, address(this), _value.mul(_treasuryPercent).div(1000));\n        swap(_value.mul(_buyAndLiquidifyPercent).div(1000));\n    }\n\n    function swap(uint256 _value) public payable {\n        if (_value > 0) {\n            if (IERC20(xBlade).allowance(address(this), address(pancakeRouter)) == 0) {\n                IERC20(xBlade).approve(address(pancakeRouter), ~uint256(0));\n            }\n            uint256 oldBalance = IERC20(xBlade).balanceOf(address(this));\n            // generate the pancake pair path of token -> weth\n            address[] memory path = new address[](2);\n            path[0] = pancakeRouter.WETH();\n            path[1] = xBlade;\n            pancakeRouter.swapExactTokensForTokensSupportingFeeOnTransferTokens(_value, 0, path, address(this), block.timestamp + 360);\n            uint256 newBalance = IERC20(principle).balanceOf(address(this));\n            pancakeRouter.addLiquidity(xBlade, principle, newBalance.sub(oldBalance), _value, 0, 0, address(this), block.timestamp + 360);\n        }\n    }\n\n    /* ======== VIEW FUNCTIONS ======== */\n\n    /**\n     *  @notice determine maximum bond size\n     *  @return uint\n     */\n    function maxPayout() public view returns (uint256) {\n        return IERC20(xBlade).totalSupply().mul(terms.maxPayout).div(100000);\n    }\n\n    /**\n     *  @notice calculate interest due for new bond\n     *  @param _value uint\n     *  @return uint\n     */\n    function payoutFor(uint256 _value) public view returns (uint256) {\n        return FixedPoint.fraction(_value, bondPrice()).decode112with18();\n    }\n\n    /**\n     *  @notice calculate current bond premium\n     *  @return price_ uint\n     */\n    function bondPrice() public view returns (uint256 price_) {\n        price_ = assetPrice().sub(assetPrice().mul(terms.discountRate).div(1000));\n        if (price_ < terms.minimumPrice) {\n            price_ = terms.minimumPrice;\n        }\n    }\n\n    /**\n     *  @notice calculate current bond price and remove floor if above\n     *  @return price_ uint\n     */\n    function _bondPrice() internal view returns (uint256 price_) {\n        price_ = bondPrice();\n    }\n\n    /**\n     *  @notice get asset price from chainlink\n     */\n    function assetPrice() public view returns (uint256) {\n        uint256 price = priceFeed.latestRoundData();\n        return price;\n    }\n\n    /**\n     *  @notice converts bond price to DAI value\n     *  @return price_ uint\n     */\n    function bondPriceInUSD() public view returns (uint256 price_) {\n        price_ = bondPrice();\n    }\n\n    /**\n     *  @notice calculate current ratio of debt to xBlade supply\n     *  @return debtRatio_ uint\n     */\n    function debtRatio() public view returns (uint256 debtRatio_) {\n        uint256 supply = IERC20(xBlade).totalSupply();\n        debtRatio_ = FixedPoint.fraction(currentDebt().mul(1e9), supply).decode112with18().div(1e18);\n    }\n\n    /**\n     *  @notice calculate debt factoring in decay\n     *  @return uint\n     */\n    function currentDebt() public view returns (uint256) {\n        return totalDebt.sub(debtDecay());\n    }\n\n    /**\n     *  @notice amount to decay total debt by\n     *  @return decay_ uint\n     */\n    function debtDecay() public view returns (uint256 decay_) {\n        uint32 timeSinceLast = uint32(block.timestamp).sub32(lastDecay);\n        decay_ = totalDebt.mul(timeSinceLast).div(terms.vestingTerm);\n        if (decay_ > totalDebt) {\n            decay_ = totalDebt;\n        }\n    }\n\n    /**\n     *  @notice calculate how far into vesting a depositor is\n     *  @param _depositor address\n     *  @return percentVested_ uint\n     */\n    function percentVestedFor(address _depositor) public view returns (uint256 percentVested_) {\n        Bond memory bond = bondInfo[_depositor];\n        uint256 secondsSinceLast = uint32(block.timestamp).sub32(bond.lastTime);\n        uint256 vesting = bond.vesting;\n\n        if (vesting > 0) {\n            percentVested_ = secondsSinceLast.mul(10000).div(vesting);\n        } else {\n            percentVested_ = 0;\n        }\n    }\n\n    /**\n     *  @notice calculate amount of xBlade available for claim by depositor\n     *  @param _depositor address\n     *  @return pendingPayout_ uint\n     */\n    function pendingPayoutFor(address _depositor) external view returns (uint256 pendingPayout_) {\n        uint256 percentVested = percentVestedFor(_depositor);\n        uint256 payout = bondInfo[_depositor].payout;\n\n        if (percentVested >= 10000) {\n            pendingPayout_ = payout;\n        } else {\n            pendingPayout_ = payout.mul(percentVested).div(10000);\n        }\n    }\n\n    /* ======= AUXILLIARY ======= */\n\n    /**\n     *  @notice allow anyone to send lost tokens (excluding principle or xBlade) to the DAO\n     *  @return bool\n     */\n    function recoverLostToken(address _token) external returns (bool) {\n        require(_token != xBlade);\n        require(_token != principle);\n        IERC20(_token).safeTransfer(DAO, IERC20(_token).balanceOf(address(this)));\n        return true;\n    }\n\n    function refundETH() internal {\n        if (address(this).balance > 0) safeTransferETH(DAO, address(this).balance);\n    }\n\n    /// @notice Transfers ETH to the recipient address\n    /// @dev Fails with `STE`\n    /// @param to The destination of the transfer\n    /// @param value The value to be transferred\n    function safeTransferETH(address to, uint256 value) internal {\n        (bool success, ) = to.call{ value: value }(new bytes(0));\n        require(success, \"STE\");\n    }\n}\n",
  "sourcePath": "/Users/tamnguyen/Documents/project/xbn/bond.cryptowar.network/contracts/EthBondDepository.sol",
  "compiler": {
    "name": "solc",
    "version": "0.7.5+commit.eb77ed08.Emscripten.clang"
  },
  "schemaVersion": "3.3.2",
  "updatedAt": "2021-12-15T07:21:41.610Z",
  "networkType": "ethereum",
  "devdoc": {
    "kind": "dev",
    "methods": {
      "bondPrice()": {
        "returns": {
          "price_": "uint"
        }
      },
      "bondPriceInUSD()": {
        "returns": {
          "price_": "uint"
        }
      },
      "currentDebt()": {
        "returns": {
          "_0": "uint"
        }
      },
      "debtDecay()": {
        "returns": {
          "decay_": "uint"
        }
      },
      "debtRatio()": {
        "returns": {
          "debtRatio_": "uint"
        }
      },
      "deposit(uint256,uint256,address)": {
        "params": {
          "_amount": "uint",
          "_depositor": "address",
          "_maxPrice": "uint"
        },
        "returns": {
          "_0": "uint"
        }
      },
      "initializeBondTerms(uint256,uint256,uint256,uint256,uint32,uint256)": {
        "params": {
          "_discountRate": "uint",
          "_initialDebt": "uint",
          "_maxDebt": "uint",
          "_maxPayout": "uint",
          "_minimumPrice": "uint",
          "_vestingTerm": "uint"
        }
      },
      "maxPayout()": {
        "returns": {
          "_0": "uint"
        }
      },
      "owner()": {
        "details": "Returns the address of the current owner."
      },
      "payoutFor(uint256)": {
        "params": {
          "_value": "uint"
        },
        "returns": {
          "_0": "uint"
        }
      },
      "pendingPayoutFor(address)": {
        "params": {
          "_depositor": "address"
        },
        "returns": {
          "pendingPayout_": "uint"
        }
      },
      "percentVestedFor(address)": {
        "params": {
          "_depositor": "address"
        },
        "returns": {
          "percentVested_": "uint"
        }
      },
      "recoverLostToken(address)": {
        "returns": {
          "_0": "bool"
        }
      },
      "redeem(address,bool)": {
        "params": {
          "_recipient": "address",
          "_stake": "bool"
        },
        "returns": {
          "_0": "uint"
        }
      },
      "renounceOwnership()": {
        "details": "Leaves the contract without owner. It will not be possible to call `onlyOwner` functions anymore. Can only be called by the current owner. NOTE: Renouncing ownership will leave the contract without an owner, thereby removing any functionality that is only available to the owner."
      },
      "setBondTerms(uint8,uint256)": {
        "params": {
          "_input": "uint",
          "_parameter": "PARAMETER"
        }
      },
      "transferOwnership(address)": {
        "details": "Transfers ownership of the contract to a new account (`newOwner`). Can only be called by the current owner."
      }
    },
    "version": 1
  },
  "userdoc": {
    "kind": "user",
    "methods": {
      "assetPrice()": {
        "notice": "get asset price from chainlink"
      },
      "bondPrice()": {
        "notice": "calculate current bond premium"
      },
      "bondPriceInUSD()": {
        "notice": "converts bond price to DAI value"
      },
      "currentDebt()": {
        "notice": "calculate debt factoring in decay"
      },
      "debtDecay()": {
        "notice": "amount to decay total debt by"
      },
      "debtRatio()": {
        "notice": "calculate current ratio of debt to xBlade supply"
      },
      "deposit(uint256,uint256,address)": {
        "notice": "deposit bond"
      },
      "initializeBondTerms(uint256,uint256,uint256,uint256,uint32,uint256)": {
        "notice": "initializes bond parameters"
      },
      "maxPayout()": {
        "notice": "determine maximum bond size"
      },
      "payoutFor(uint256)": {
        "notice": "calculate interest due for new bond"
      },
      "pendingPayoutFor(address)": {
        "notice": "calculate amount of xBlade available for claim by depositor"
      },
      "percentVestedFor(address)": {
        "notice": "calculate how far into vesting a depositor is"
      },
      "recoverLostToken(address)": {
        "notice": "allow anyone to send lost tokens (excluding principle or xBlade) to the DAO"
      },
      "redeem(address,bool)": {
        "notice": "redeem bond for user"
      },
      "setBondTerms(uint8,uint256)": {
        "notice": "set parameters for new bonds"
      }
    },
    "version": 1
  }
}