{
  "contractName": "TimeBondDepository",
  "abi": [
    {
      "anonymous": false,
      "inputs": [
        {
          "indexed": false,
          "internalType": "uint256",
          "name": "deposit",
          "type": "uint256"
        },
        {
          "indexed": true,
          "internalType": "uint256",
          "name": "payout",
          "type": "uint256"
        },
        {
          "indexed": true,
          "internalType": "uint256",
          "name": "expires",
          "type": "uint256"
        },
        {
          "indexed": true,
          "internalType": "uint256",
          "name": "priceInUSD",
          "type": "uint256"
        }
      ],
      "name": "BondCreated",
      "type": "event"
    },
    {
      "anonymous": false,
      "inputs": [
        {
          "indexed": true,
          "internalType": "uint256",
          "name": "priceInUSD",
          "type": "uint256"
        },
        {
          "indexed": true,
          "internalType": "uint256",
          "name": "internalPrice",
          "type": "uint256"
        }
      ],
      "name": "BondPriceChanged",
      "type": "event"
    },
    {
      "anonymous": false,
      "inputs": [
        {
          "indexed": true,
          "internalType": "address",
          "name": "recipient",
          "type": "address"
        },
        {
          "indexed": false,
          "internalType": "uint256",
          "name": "payout",
          "type": "uint256"
        },
        {
          "indexed": false,
          "internalType": "uint256",
          "name": "remaining",
          "type": "uint256"
        }
      ],
      "name": "BondRedeemed",
      "type": "event"
    },
    {
      "anonymous": false,
      "inputs": [
        {
          "indexed": true,
          "internalType": "address",
          "name": "previousOwner",
          "type": "address"
        },
        {
          "indexed": true,
          "internalType": "address",
          "name": "newOwner",
          "type": "address"
        }
      ],
      "name": "OwnershipTransferred",
      "type": "event"
    },
    {
      "inputs": [],
      "name": "DAO",
      "outputs": [
        {
          "internalType": "address",
          "name": "",
          "type": "address"
        }
      ],
      "stateMutability": "view",
      "type": "function",
      "constant": true
    },
    {
      "inputs": [
        {
          "internalType": "address",
          "name": "",
          "type": "address"
        }
      ],
      "name": "bondInfo",
      "outputs": [
        {
          "internalType": "uint256",
          "name": "payout",
          "type": "uint256"
        },
        {
          "internalType": "uint256",
          "name": "pricePaid",
          "type": "uint256"
        },
        {
          "internalType": "uint32",
          "name": "vesting",
          "type": "uint32"
        },
        {
          "internalType": "uint32",
          "name": "lastTime",
          "type": "uint32"
        }
      ],
      "stateMutability": "view",
      "type": "function",
      "constant": true
    },
    {
      "inputs": [],
      "name": "currentSale",
      "outputs": [
        {
          "internalType": "uint256",
          "name": "",
          "type": "uint256"
        }
      ],
      "stateMutability": "view",
      "type": "function",
      "constant": true
    },
    {
      "inputs": [],
      "name": "lastBuyBack",
      "outputs": [
        {
          "internalType": "uint256",
          "name": "",
          "type": "uint256"
        }
      ],
      "stateMutability": "view",
      "type": "function",
      "constant": true
    },
    {
      "inputs": [],
      "name": "owner",
      "outputs": [
        {
          "internalType": "address",
          "name": "",
          "type": "address"
        }
      ],
      "stateMutability": "view",
      "type": "function",
      "constant": true
    },
    {
      "inputs": [],
      "name": "pancakeRouter",
      "outputs": [
        {
          "internalType": "contract IPancakeRouter02",
          "name": "",
          "type": "address"
        }
      ],
      "stateMutability": "view",
      "type": "function",
      "constant": true
    },
    {
      "inputs": [],
      "name": "principle",
      "outputs": [
        {
          "internalType": "address",
          "name": "",
          "type": "address"
        }
      ],
      "stateMutability": "view",
      "type": "function",
      "constant": true
    },
    {
      "inputs": [],
      "name": "referralBonusRate",
      "outputs": [
        {
          "internalType": "uint256",
          "name": "",
          "type": "uint256"
        }
      ],
      "stateMutability": "view",
      "type": "function",
      "constant": true
    },
    {
      "inputs": [],
      "name": "renounceOwnership",
      "outputs": [],
      "stateMutability": "nonpayable",
      "type": "function"
    },
    {
      "inputs": [],
      "name": "terms",
      "outputs": [
        {
          "internalType": "uint256",
          "name": "minimumPrice",
          "type": "uint256"
        },
        {
          "internalType": "uint256",
          "name": "maxPayout",
          "type": "uint256"
        },
        {
          "internalType": "uint32",
          "name": "vestingTerm",
          "type": "uint32"
        },
        {
          "internalType": "uint256",
          "name": "discountRate",
          "type": "uint256"
        }
      ],
      "stateMutability": "view",
      "type": "function",
      "constant": true
    },
    {
      "inputs": [],
      "name": "totalPurchased",
      "outputs": [
        {
          "internalType": "uint256",
          "name": "",
          "type": "uint256"
        }
      ],
      "stateMutability": "view",
      "type": "function",
      "constant": true
    },
    {
      "inputs": [
        {
          "internalType": "address",
          "name": "newOwner",
          "type": "address"
        }
      ],
      "name": "transferOwnership",
      "outputs": [],
      "stateMutability": "nonpayable",
      "type": "function"
    },
    {
      "inputs": [],
      "name": "treasury",
      "outputs": [
        {
          "internalType": "address",
          "name": "",
          "type": "address"
        }
      ],
      "stateMutability": "view",
      "type": "function",
      "constant": true
    },
    {
      "inputs": [],
      "name": "xBlade",
      "outputs": [
        {
          "internalType": "address",
          "name": "",
          "type": "address"
        }
      ],
      "stateMutability": "view",
      "type": "function",
      "constant": true
    },
    {
      "inputs": [
        {
          "internalType": "address",
          "name": "_xBlade",
          "type": "address"
        },
        {
          "internalType": "address",
          "name": "_principle",
          "type": "address"
        },
        {
          "internalType": "address",
          "name": "_treasury",
          "type": "address"
        },
        {
          "internalType": "address",
          "name": "_DAO",
          "type": "address"
        },
        {
          "internalType": "address",
          "name": "_feed",
          "type": "address"
        },
        {
          "internalType": "address",
          "name": "_router",
          "type": "address"
        }
      ],
      "name": "initialize",
      "outputs": [],
      "stateMutability": "nonpayable",
      "type": "function"
    },
    {
      "inputs": [
        {
          "internalType": "uint256",
          "name": "_minimumPrice",
          "type": "uint256"
        },
        {
          "internalType": "uint256",
          "name": "_maxPayout",
          "type": "uint256"
        },
        {
          "internalType": "uint32",
          "name": "_vestingTerm",
          "type": "uint32"
        },
        {
          "internalType": "uint256",
          "name": "_discountRate",
          "type": "uint256"
        }
      ],
      "name": "initializeBondTerms",
      "outputs": [],
      "stateMutability": "nonpayable",
      "type": "function"
    },
    {
      "inputs": [
        {
          "internalType": "enum TimeBondDepository.PARAMETER",
          "name": "_parameter",
          "type": "uint8"
        },
        {
          "internalType": "uint256",
          "name": "_input",
          "type": "uint256"
        }
      ],
      "name": "setBondTerms",
      "outputs": [],
      "stateMutability": "nonpayable",
      "type": "function"
    },
    {
      "inputs": [
        {
          "internalType": "address",
          "name": "_feed",
          "type": "address"
        }
      ],
      "name": "setPrice",
      "outputs": [],
      "stateMutability": "nonpayable",
      "type": "function"
    },
    {
      "inputs": [
        {
          "internalType": "uint256",
          "name": "_initialSale",
          "type": "uint256"
        }
      ],
      "name": "setCurrentSale",
      "outputs": [],
      "stateMutability": "nonpayable",
      "type": "function"
    },
    {
      "inputs": [
        {
          "internalType": "uint256",
          "name": "_amount",
          "type": "uint256"
        },
        {
          "internalType": "uint256",
          "name": "_maxPrice",
          "type": "uint256"
        },
        {
          "internalType": "address",
          "name": "_depositor",
          "type": "address"
        }
      ],
      "name": "deposit",
      "outputs": [
        {
          "internalType": "uint256",
          "name": "",
          "type": "uint256"
        }
      ],
      "stateMutability": "nonpayable",
      "type": "function"
    },
    {
      "inputs": [
        {
          "internalType": "uint256",
          "name": "_amount",
          "type": "uint256"
        },
        {
          "internalType": "uint256",
          "name": "_maxPrice",
          "type": "uint256"
        },
        {
          "internalType": "address",
          "name": "_depositor",
          "type": "address"
        },
        {
          "internalType": "address",
          "name": "_referrer",
          "type": "address"
        }
      ],
      "name": "depositWithReferral",
      "outputs": [
        {
          "internalType": "uint256",
          "name": "",
          "type": "uint256"
        }
      ],
      "stateMutability": "nonpayable",
      "type": "function"
    },
    {
      "inputs": [
        {
          "internalType": "address",
          "name": "_recipient",
          "type": "address"
        },
        {
          "internalType": "bool",
          "name": "_stake",
          "type": "bool"
        }
      ],
      "name": "redeem",
      "outputs": [
        {
          "internalType": "uint256",
          "name": "",
          "type": "uint256"
        }
      ],
      "stateMutability": "nonpayable",
      "type": "function"
    },
    {
      "inputs": [
        {
          "internalType": "address",
          "name": "_treasury",
          "type": "address"
        }
      ],
      "name": "setTreasury",
      "outputs": [],
      "stateMutability": "nonpayable",
      "type": "function"
    },
    {
      "inputs": [
        {
          "internalType": "uint256",
          "name": "_rate",
          "type": "uint256"
        }
      ],
      "name": "setReferralBonusRate",
      "outputs": [],
      "stateMutability": "nonpayable",
      "type": "function"
    },
    {
      "inputs": [],
      "name": "maxPayout",
      "outputs": [
        {
          "internalType": "uint256",
          "name": "",
          "type": "uint256"
        }
      ],
      "stateMutability": "view",
      "type": "function",
      "constant": true
    },
    {
      "inputs": [
        {
          "internalType": "uint256",
          "name": "_value",
          "type": "uint256"
        }
      ],
      "name": "payoutFor",
      "outputs": [
        {
          "internalType": "uint256",
          "name": "",
          "type": "uint256"
        }
      ],
      "stateMutability": "view",
      "type": "function",
      "constant": true
    },
    {
      "inputs": [],
      "name": "bondPrice",
      "outputs": [
        {
          "internalType": "uint256",
          "name": "price_",
          "type": "uint256"
        }
      ],
      "stateMutability": "view",
      "type": "function",
      "constant": true
    },
    {
      "inputs": [],
      "name": "assetPrice",
      "outputs": [
        {
          "internalType": "uint256",
          "name": "",
          "type": "uint256"
        }
      ],
      "stateMutability": "view",
      "type": "function",
      "constant": true
    },
    {
      "inputs": [],
      "name": "bondPriceInUSD",
      "outputs": [
        {
          "internalType": "uint256",
          "name": "price_",
          "type": "uint256"
        }
      ],
      "stateMutability": "view",
      "type": "function",
      "constant": true
    },
    {
      "inputs": [
        {
          "internalType": "address",
          "name": "_depositor",
          "type": "address"
        }
      ],
      "name": "percentVestedFor",
      "outputs": [
        {
          "internalType": "uint256",
          "name": "percentVested_",
          "type": "uint256"
        }
      ],
      "stateMutability": "view",
      "type": "function",
      "constant": true
    },
    {
      "inputs": [
        {
          "internalType": "address",
          "name": "_depositor",
          "type": "address"
        }
      ],
      "name": "pendingPayoutFor",
      "outputs": [
        {
          "internalType": "uint256",
          "name": "pendingPayout_",
          "type": "uint256"
        }
      ],
      "stateMutability": "view",
      "type": "function",
      "constant": true
    },
    {
      "inputs": [
        {
          "internalType": "address",
          "name": "_token",
          "type": "address"
        }
      ],
      "name": "recoverLostToken",
      "outputs": [
        {
          "internalType": "bool",
          "name": "",
          "type": "bool"
        }
      ],
      "stateMutability": "nonpayable",
      "type": "function"
    }
  ],
  "bytecode": "0x608060405234801561001057600080fd5b50612b68806100206000396000f3fe608060405234801561001057600080fd5b50600436106101f05760003560e01c8063a05d03fd1161010f578063d24378eb116100a2578063e632c2f311610071578063e632c2f314610558578063f0f4426014610560578063f2fde38b14610586578063f34dad2f146105ac576101f0565b8063d24378eb1461050d578063d502562514610515578063d7ccfb0b14610548578063e0176de814610550576101f0565b8063c755d099116100de578063c755d099146103fe578063cc2a9a5b14610433578063cd1234b314610481578063cd7d24b5146104d3576101f0565b8063a05d03fd14610397578063a35ab6391461039f578063b4abccba146103bc578063c21ebd07146103f6576101f0565b806361d027b3116101875780638521fb1c116101565780638521fb1c1461034d5780638da5cb5b146103555780638dbdbe6d1461035d57806398fabd3a1461038f576101f0565b806361d027b314610318578063715018a6146103205780637927ebf814610328578063844b5c7c14610345576101f0565b80631feed31f116101c35780631feed31f146102815780632283f13c146102af5780633b324790146102cc578063507930ec146102f2576101f0565b8063016a4284146101f557806301b88ee8146102195780631e321a0f146102515780631f31237514610279575b600080fd5b6101fd6105b4565b604080516001600160a01b039092168252519081900360200190f35b61023f6004803603602081101561022f57600080fd5b50356001600160a01b03166105c3565b60408051918252519081900360200190f35b6102776004803603604081101561026757600080fd5b5060ff813516906020013561061c565b005b61023f6107f8565b61023f6004803603604081101561029757600080fd5b506001600160a01b03813516906020013515156107fe565b610277600480360360208110156102c557600080fd5b5035610a52565b610277600480360360208110156102e257600080fd5b50356001600160a01b0316610ab9565b61023f6004803603602081101561030857600080fd5b50356001600160a01b0316610b3d565b6101fd610beb565b610277610bfa565b61023f6004803603602081101561033e57600080fd5b5035610ca6565b61023f610cc1565b61023f610cd0565b6101fd610cd6565b61023f6004803603606081101561037357600080fd5b50803590602081013590604001356001600160a01b0316610ce6565b6101fd61105f565b61023f61106e565b610277600480360360208110156103b557600080fd5b5035611074565b6103e2600480360360208110156103d257600080fd5b50356001600160a01b03166110db565b604080519115158252519081900360200190f35b6101fd6111ac565b6102776004803603608081101561041457600080fd5b5080359060208101359063ffffffff60408201351690606001356111bb565b610277600480360360c081101561044957600080fd5b506001600160a01b038135811691602081013582169160408201358116916060810135821691608082013581169160a0013516611268565b6104a76004803603602081101561049757600080fd5b50356001600160a01b0316611407565b60408051948552602085019390935263ffffffff91821684840152166060830152519081900360800190f35b61023f600480360360808110156104e957600080fd5b508035906020810135906001600160a01b036040820135811691606001351661143a565b61023f6114da565b61051d61155d565b60408051948552602085019390935263ffffffff909116838301526060830152519081900360800190f35b61023f611575565b61023f6115b9565b61023f61164b565b6102776004803603602081101561057657600080fd5b50356001600160a01b0316611651565b6102776004803603602081101561059c57600080fd5b50356001600160a01b03166116d5565b6101fd6117d8565b6066546001600160a01b031681565b6000806105cf83610b3d565b6001600160a01b0384166000908152606e602052604090205490915061271082106105fc57809250610615565b61061261271061060c83856117e7565b90611840565b92505b5050919050565b6106246118a7565b6001600160a01b0316610635610cd6565b6001600160a01b03161461067e576040805162461bcd60e51b81526020600482018190526024820152600080516020612aa2833981519152604482015290519081900360640190fd5b600082600481111561068c57fe5b14156106ee576201fa408110156106d45760405162461bcd60e51b8152600401808060200182810382526024815260200180612ae56024913960400191505060405180910390fd5b606c805463ffffffff191663ffffffff83161790556107f4565b60018260048111156106fc57fe5b1415610763576103e8811115610759576040805162461bcd60e51b815260206004820181905260248201527f5061796f75742063616e6e6f742062652061626f766520312070657263656e74604482015290519081900360640190fd5b606b8190556107f4565b600282600481111561077157fe5b141561077c576107f4565b600382600481111561078a57fe5b141561079a57606a8190556107f4565b60048260048111156107a857fe5b14156107f45761012c81106107ee5760405162461bcd60e51b81526004018080602001828103825260258152602001806129e26025913960400191505060405180910390fd5b606d8190555b5050565b60735481565b600032331461080c57600080fd5b610814612975565b506001600160a01b0383166000908152606e602090815260408083208151608081018352815481526001820154938101939093526002015463ffffffff8082169284019290925264010000000090041660608201529061087385610b3d565b90506127108110610907576001600160a01b0385166000818152606e6020908152604080832083815560018101849055600201805467ffffffffffffffff19169055855181519081529182019290925281517f51c99f515c87b0d95ba97f616edd182e8f161c4932eac17c6fefe9dab58b77b1929181900390910190a26108fe8583600001516118ab565b92505050610a4c565b815160009061091e906127109061060c90856117e7565b9050604051806080016040528061094283866000015161193790919063ffffffff16565b81526020018460200151815260200161098a61097186606001514263ffffffff1661199490919063ffffffff16565b866040015163ffffffff1661199490919063ffffffff16565b63ffffffff90811682524281166020928301526001600160a01b0389166000818152606e84526040908190208551808255868601516001830155868301516002909201805460609098015186166401000000000267ffffffff00000000199390961663ffffffff19909816979097179190911693909317909455835185815292830191909152825190927f51c99f515c87b0d95ba97f616edd182e8f161c4932eac17c6fefe9dab58b77b1928290030190a2610a4686826118ab565b93505050505b92915050565b610a5a6118a7565b6001600160a01b0316610a6b610cd6565b6001600160a01b031614610ab4576040805162461bcd60e51b81526020600482018190526024820152600080516020612aa2833981519152604482015290519081900360640190fd5b607255565b610ac16118a7565b6001600160a01b0316610ad2610cd6565b6001600160a01b031614610b1b576040805162461bcd60e51b81526020600482018190526024820152600080516020612aa2833981519152604482015290519081900360640190fd5b606980546001600160a01b0319166001600160a01b0392909216919091179055565b6000610b47612975565b506001600160a01b0382166000908152606e602090815260408083208151608081018352815481526001820154938101939093526002015463ffffffff808216928401929092526401000000009004811660608301819052919291610bb191428116919061199416565b604083015163ffffffff9182169250168015610bde57610bd78161060c846127106117e7565b9350610be3565b600093505b505050919050565b6067546001600160a01b031681565b610c026118a7565b6001600160a01b0316610c13610cd6565b6001600160a01b031614610c5c576040805162461bcd60e51b81526020600482018190526024820152600080516020612aa2833981519152604482015290519081900360640190fd5b6033546040516000916001600160a01b0316907f8be0079c531659141344cd1fd0a4f28419497f9722a3daafe3b4186f6b6457e0908390a3603380546001600160a01b0319169055565b6000610a4c610cbc83610cb7611575565b6119d6565b611b4d565b6000610ccb611575565b905090565b60705481565b6033546001600160a01b03165b90565b6000323314610cf457600080fd5b6001600160a01b038216610d41576040805162461bcd60e51b815260206004820152600f60248201526e496e76616c6964206164647265737360881b604482015290519081900360640190fd5b6000610d4b610cc1565b90506000610d57610cc1565b905080851015610d985760405162461bcd60e51b8152600401808060200182810382526023815260200180612ac26023913960400191505060405180910390fd5b856000610da482610ca6565b9050806072541015610df2576040805162461bcd60e51b815260206004820152601260248201527127379036b7b9329039b0b632903a37b5b2b760711b604482015290519081900360640190fd5b62989680811015610e3b576040805162461bcd60e51b815260206004820152600e60248201526d109bdb99081d1bdbc81cdb585b1b60921b604482015290519081900360640190fd5b610e436115b9565b811115610e88576040805162461bcd60e51b815260206004820152600e60248201526d426f6e6420746f6f206c6172676560901b604482015290519081900360640190fd5b607254610e959082611937565b607255607154610ea59083611b65565b607155606654610ec0906001600160a01b031633308b611bbf565b610ed3610ece896002611840565b611c1f565b606654604080516370a0823160e01b81523060048201529051610f50926001600160a01b0316916370a08231916024808301926020929190829003018186803b158015610f1f57600080fd5b505afa158015610f33573d6000803e3d6000fd5b505050506040513d6020811015610f4957600080fd5b5051612031565b604080516080810182526001600160a01b0388166000908152606e60205291909120548190610f7f9084611b65565b81526020808201879052606c805463ffffffff908116604080860191909152428083166060968701526001600160a01b038d166000908152606e865282902087518155948701516001860155908601516002949094018054969095015182166401000000000267ffffffff000000001994831663ffffffff199097169690961793909316949094179092559054869261101c9291811690611b6516565b604080518b8152905184917f1fec6dc81f140574bf43f6b1e420ae1dd47928b9d57db8cbd7b8611063b85ae5919081900360200190a493505050505b9392505050565b6068546001600160a01b031681565b60725481565b61107c6118a7565b6001600160a01b031661108d610cd6565b6001600160a01b0316146110d6576040805162461bcd60e51b81526020600482018190526024820152600080516020612aa2833981519152604482015290519081900360640190fd5b607355565b6065546000906001600160a01b03838116911614156110f957600080fd5b6066546001600160a01b038381169116141561111457600080fd5b606854604080516370a0823160e01b815230600482015290516111a4926001600160a01b0390811692908616916370a0823191602480820192602092909190829003018186803b15801561116757600080fd5b505afa15801561117b573d6000803e3d6000fd5b505050506040513d602081101561119157600080fd5b50516001600160a01b03851691906120aa565b506001919050565b606f546001600160a01b031681565b6111c36118a7565b6001600160a01b03166111d4610cd6565b6001600160a01b03161461121d576040805162461bcd60e51b81526020600482018190526024820152600080516020612aa2833981519152604482015290519081900360640190fd5b604080516080810182528581526020810185905263ffffffff9093169083018190526060909201819052606a93909355606b91909155606c805463ffffffff19169091179055606d55565b600054610100900460ff16806112815750611281612101565b8061128f575060005460ff16155b6112ca5760405162461bcd60e51b815260040180806020018281038252602e815260200180612a53602e913960400191505060405180910390fd5b600054610100900460ff161580156112f5576000805460ff1961ff0019909116610100171660011790555b6112fd612112565b6001600160a01b03871661131057600080fd5b606580546001600160a01b0319166001600160a01b0389811691909117909155861661133b57600080fd5b606680546001600160a01b0319166001600160a01b0388811691909117909155851661136657600080fd5b606780546001600160a01b0319166001600160a01b0387811691909117909155841661139157600080fd5b606880546001600160a01b0319166001600160a01b038681169190911790915583166113bc57600080fd5b606980546001600160a01b038086166001600160a01b031992831617909255606f80549285169290911691909117905580156113fe576000805461ff00191690555b50505050505050565b606e6020526000908152604090208054600182015460029092015490919063ffffffff8082169164010000000090041684565b600032331461144857600080fd5b816001600160a01b0316836001600160a01b0316141580156114735750336001600160a01b03831614155b6114bc576040805162461bcd60e51b815260206004820152601560248201527421b0b73737ba103932b332b9103cb7bab939b2b63360591b604482015290519081900360640190fd5b6114c682866121c3565b6114d1858585610ce6565b95945050505050565b600080606960009054906101000a90046001600160a01b03166001600160a01b031663feaf968c6040518163ffffffff1660e01b815260040160206040518083038186803b15801561152b57600080fd5b505afa15801561153f573d6000803e3d6000fd5b505050506040513d602081101561155557600080fd5b505191505090565b606a54606b54606c54606d5463ffffffff9091169084565b60006115a56115976103e861060c606a600301546115916114da565b906117e7565b61159f6114da565b90611937565b606a54909150811015610ce35750606a5490565b6000610ccb620186a061060c606a60010154606560009054906101000a90046001600160a01b03166001600160a01b03166318160ddd6040518163ffffffff1660e01b815260040160206040518083038186803b15801561161957600080fd5b505afa15801561162d573d6000803e3d6000fd5b505050506040513d602081101561164357600080fd5b5051906117e7565b60715481565b6116596118a7565b6001600160a01b031661166a610cd6565b6001600160a01b0316146116b3576040805162461bcd60e51b81526020600482018190526024820152600080516020612aa2833981519152604482015290519081900360640190fd5b606780546001600160a01b0319166001600160a01b0392909216919091179055565b6116dd6118a7565b6001600160a01b03166116ee610cd6565b6001600160a01b031614611737576040805162461bcd60e51b81526020600482018190526024820152600080516020612aa2833981519152604482015290519081900360640190fd5b6001600160a01b03811661177c5760405162461bcd60e51b81526004018080602001828103825260268152602001806129bc6026913960400191505060405180910390fd5b6033546040516001600160a01b038084169216907f8be0079c531659141344cd1fd0a4f28419497f9722a3daafe3b4186f6b6457e090600090a3603380546001600160a01b0319166001600160a01b0392909216919091179055565b6065546001600160a01b031681565b6000826117f657506000610a4c565b8282028284828161180357fe5b04146110585760405162461bcd60e51b8152600401808060200182810382526021815260200180612a816021913960400191505060405180910390fd5b6000808211611896576040805162461bcd60e51b815260206004820152601a60248201527f536166654d6174683a206469766973696f6e206279207a65726f000000000000604482015290519081900360640190fd5b81838161189f57fe5b049392505050565b3390565b6065546040805163a9059cbb60e01b81526001600160a01b038581166004830152602482018590529151600093929092169163a9059cbb9160448082019260209290919082900301818787803b15801561190457600080fd5b505af1158015611918573d6000803e3d6000fd5b505050506040513d602081101561192e57600080fd5b50919392505050565b60008282111561198e576040805162461bcd60e51b815260206004820152601e60248201527f536166654d6174683a207375627472616374696f6e206f766572666c6f770000604482015290519081900360640190fd5b50900390565b600061105883836040518060400160405280601e81526020017f536166654d6174683a207375627472616374696f6e206f766572666c6f77000081525061221b565b6119de6129a9565b60008211611a1d5760405162461bcd60e51b8152600401808060200182810382526026815260200180612a2d6026913960400191505060405180910390fd5b82611a375750604080516020810190915260008152610a4c565b71ffffffffffffffffffffffffffffffffffff8311611ade57600082607085901b81611a5f57fe5b0490506001600160e01b03811115611abe576040805162461bcd60e51b815260206004820152601e60248201527f4669786564506f696e743a3a6672616374696f6e3a206f766572666c6f770000604482015290519081900360640190fd5b6040518060200160405280826001600160e01b0316815250915050610a4c565b6000611aef84600160701b856122bf565b90506001600160e01b03811115611abe576040805162461bcd60e51b815260206004820152601e60248201527f4669786564506f696e743a3a6672616374696f6e3a206f766572666c6f770000604482015290519081900360640190fd5b516612725dd1d243ab6001600160e01b039091160490565b600082820183811015611058576040805162461bcd60e51b815260206004820152601b60248201527f536166654d6174683a206164646974696f6e206f766572666c6f770000000000604482015290519081900360640190fd5b604080516001600160a01b0380861660248301528416604482015260648082018490528251808303909101815260849091019091526020810180516001600160e01b03166323b872dd60e01b179052611c1990859061235f565b50505050565b801561202e57606554606f5460408051636eb1769f60e11b81523060048201526001600160a01b0392831660248201529051919092169163dd62ed3e916044808301926020929190829003018186803b158015611c7b57600080fd5b505afa158015611c8f573d6000803e3d6000fd5b505050506040513d6020811015611ca557600080fd5b5051611d3257606554606f546040805163095ea7b360e01b81526001600160a01b03928316600482015260001960248201529051919092169163095ea7b39160448083019260209291908290030181600087803b158015611d0557600080fd5b505af1158015611d19573d6000803e3d6000fd5b505050506040513d6020811015611d2f57600080fd5b50505b606654606f5460408051636eb1769f60e11b81523060048201526001600160a01b0392831660248201529051919092169163dd62ed3e916044808301926020929190829003018186803b158015611d8857600080fd5b505afa158015611d9c573d6000803e3d6000fd5b505050506040513d6020811015611db257600080fd5b5051611e3f57606654606f546040805163095ea7b360e01b81526001600160a01b03928316600482015260001960248201529051919092169163095ea7b39160448083019260209291908290030181600087803b158015611e1257600080fd5b505af1158015611e26573d6000803e3d6000fd5b505050506040513d6020811015611e3c57600080fd5b50505b606554604080516370a0823160e01b815230600482015290516000926001600160a01b0316916370a08231916024808301926020929190829003018186803b158015611e8a57600080fd5b505afa158015611e9e573d6000803e3d6000fd5b505050506040513d6020811015611eb457600080fd5b50519050611ecc611ec6836002611840565b30612410565b606554604080516370a0823160e01b815230600482015290516000926001600160a01b0316916370a08231916024808301926020929190829003018186803b158015611f1757600080fd5b505afa158015611f2b573d6000803e3d6000fd5b505050506040513d6020811015611f4157600080fd5b5051606f546065546066549293506001600160a01b039182169263e8e33700929182169116611f708587611937565b611f7b886002611840565b606754604080516001600160e01b031960e089901b1681526001600160a01b03968716600482015294861660248601526044850193909352606484019190915260006084840181905260a48401819052931660c4830152610168420160e4830152516101048083019360609383900390910190829087803b158015611fff57600080fd5b505af1158015612013573d6000803e3d6000fd5b505050506040513d606081101561202957600080fd5b505050505b50565b6170806120496070544261193790919063ffffffff16565b111561202e574260705568056bc75e2d6310000081111561208357612083612072826064611840565b6067546001600160a01b0316612410565b68056bc75e2d63100000811161202e5760675461202e9082906001600160a01b0316612410565b604080516001600160a01b038416602482015260448082018490528251808303909101815260649091019091526020810180516001600160e01b031663a9059cbb60e01b1790526120fc90849061235f565b505050565b600061210c30612570565b15905090565b600054610100900460ff168061212b575061212b612101565b80612139575060005460ff16155b6121745760405162461bcd60e51b815260040180806020018281038252602e815260200180612a53602e913960400191505060405180910390fd5b600054610100900460ff1615801561219f576000805460ff1961ff0019909116610100171660011790555b6121a7612576565b6121af612616565b801561202e576000805461ff001916905550565b6001600160a01b038216156107f45760006121ee606461060c607354856117e790919063ffffffff16565b90506000612201610cbc83610cb76114da565b606654909150611c19906001600160a01b031685836120aa565b60008363ffffffff168363ffffffff16111582906122b75760405162461bcd60e51b81526004018080602001828103825283818151815260200191508051906020019080838360005b8381101561227c578181015183820152602001612264565b50505050905090810190601f1680156122a95780820380516001836020036101000a031916815260200191505b509250505060405180910390fd5b505050900390565b60008060006122ce868661270f565b91509150600084806122dc57fe5b8688099050828111156122f0576001820391505b8083039250848210612349576040805162461bcd60e51b815260206004820152601a60248201527f46756c6c4d6174683a3a6d756c4469763a206f766572666c6f77000000000000604482015290519081900360640190fd5b61235483838761273c565b979650505050505050565b60606123b4826040518060400160405280602081526020017f5361666545524332303a206c6f772d6c6576656c2063616c6c206661696c6564815250856001600160a01b03166127ac9092919063ffffffff16565b8051909150156120fc578080602001905160208110156123d357600080fd5b50516120fc5760405162461bcd60e51b815260040180806020018281038252602a815260200180612b09602a913960400191505060405180910390fd5b6040805160028082526060808301845292602083019080368337505060665482519293506001600160a01b03169183915060009061244a57fe5b6001600160a01b03928316602091820292909201015260655482519116908290600190811061247557fe5b60200260200101906001600160a01b031690816001600160a01b031681525050606f60009054906101000a90046001600160a01b03166001600160a01b0316635c11d795846000848642610168016040518663ffffffff1660e01b81526004018086815260200185815260200180602001846001600160a01b03168152602001838152602001828103825285818151815260200191508051906020019060200280838360005b8381101561253357818101518382015260200161251b565b505050509050019650505050505050600060405180830381600087803b15801561255c57600080fd5b505af11580156113fe573d6000803e3d6000fd5b3b151590565b600054610100900460ff168061258f575061258f612101565b8061259d575060005460ff16155b6125d85760405162461bcd60e51b815260040180806020018281038252602e815260200180612a53602e913960400191505060405180910390fd5b600054610100900460ff161580156121af576000805460ff1961ff001990911661010017166001179055801561202e576000805461ff001916905550565b600054610100900460ff168061262f575061262f612101565b8061263d575060005460ff16155b6126785760405162461bcd60e51b815260040180806020018281038252602e815260200180612a53602e913960400191505060405180910390fd5b600054610100900460ff161580156126a3576000805460ff1961ff0019909116610100171660011790555b60006126ad6118a7565b603380546001600160a01b0319166001600160a01b038316908117909155604051919250906000907f8be0079c531659141344cd1fd0a4f28419497f9722a3daafe3b4186f6b6457e0908290a350801561202e576000805461ff001916905550565b6000808060001984860990508385029250828103915082811015612734576001820391505b509250929050565b6000818103821680838161274c57fe5b04925080858161275857fe5b04945080816000038161276757fe5b60028581038087028203028087028203028087028203028087028203028087028203028087028203029586029003909402930460010193909302939093010292915050565b60606127bb84846000856127c3565b949350505050565b6060824710156128045760405162461bcd60e51b8152600401808060200182810382526026815260200180612a076026913960400191505060405180910390fd5b61280d85612570565b61285e576040805162461bcd60e51b815260206004820152601d60248201527f416464726573733a2063616c6c20746f206e6f6e2d636f6e7472616374000000604482015290519081900360640190fd5b60006060866001600160a01b031685876040518082805190602001908083835b6020831061289d5780518252601f19909201916020918201910161287e565b6001836020036101000a03801982511681845116808217855250505050505090500191505060006040518083038185875af1925050503d80600081146128ff576040519150601f19603f3d011682016040523d82523d6000602084013e612904565b606091505b50915091506123548282866060831561291e575081611058565b82511561292e5782518084602001fd5b60405162461bcd60e51b815260206004820181815284516024840152845185939192839260440191908501908083836000831561227c578181015183820152602001612264565b60405180608001604052806000815260200160008152602001600063ffffffff168152602001600063ffffffff1681525090565b6040805160208101909152600081529056fe4f776e61626c653a206e6577206f776e657220697320746865207a65726f2061646472657373446973636f756e742073616c652063616e6e6f742067726561746572207468616e20333025416464726573733a20696e73756666696369656e742062616c616e636520666f722063616c6c4669786564506f696e743a3a6672616374696f6e3a206469766973696f6e206279207a65726f496e697469616c697a61626c653a20636f6e747261637420697320616c726561647920696e697469616c697a6564536166654d6174683a206d756c7469706c69636174696f6e206f766572666c6f774f776e61626c653a2063616c6c6572206973206e6f7420746865206f776e6572536c697070616765206c696d69743a206d6f7265207468616e206d617820707269636556657374696e67206d757374206265206c6f6e676572207468616e20333620686f7572735361666545524332303a204552433230206f7065726174696f6e20646964206e6f742073756363656564a2646970667358221220372c755ed1e4ad4f68e2f03748db0bb9cfd4647e6a556820df877847fd11917164736f6c63430007050033",
  "immutableReferences": {},
  "source": "pragma solidity 0.7.5;\n\n// import \"@openzeppelin/contracts/utils/Address.sol\";\nimport \"@openzeppelin/contracts/token/ERC20/IERC20.sol\";\nimport \"@openzeppelin/contracts/math/SafeMath.sol\";\nimport \"@openzeppelin/contracts/token/ERC20/SafeERC20.sol\";\nimport \"@openzeppelin/contracts-upgradeable/proxy/Initializable.sol\";\nimport \"@openzeppelin/contracts-upgradeable/access/OwnableUpgradeable.sol\";\nimport \"./libraries/FixedPoint.sol\";\nimport \"./interfaces/IPancakeRouter02.sol\";\nimport \"./libraries/SafeMath32.sol\";\n\ninterface AggregatorV3Interface {\n    function latestRoundData() external view returns (uint256 answer);\n}\n\ninterface ITreasury {\n    function deposit(\n        uint256 _amount,\n        address _token,\n        uint256 _profit\n    ) external returns (bool);\n\n    function valueOf(address _token, uint256 _amount) external view returns (uint256 value_);\n\n    function mintRewards(address _recipient, uint256 _amount) external;\n}\n\ninterface IStaking {\n    function stake(uint256 _amount, address _recipient) external returns (bool);\n}\n\ninterface IStakingHelper {\n    function stake(uint256 _amount, address _recipient) external;\n}\n\ninterface IWETH9 is IERC20 {\n    /// @notice Deposit ether to get wrapped ether\n    function deposit() external payable;\n}\n\ncontract TimeBondDepository is Initializable, OwnableUpgradeable {\n    using FixedPoint for *;\n    using SafeERC20 for IERC20;\n    using SafeMath for uint256;\n    using SafeMath32 for uint32;\n\n    /* ======== EVENTS ======== */\n\n    event BondCreated(uint256 deposit, uint256 indexed payout, uint256 indexed expires, uint256 indexed priceInUSD);\n    event BondRedeemed(address indexed recipient, uint256 payout, uint256 remaining);\n    event BondPriceChanged(uint256 indexed priceInUSD, uint256 indexed internalPrice);\n\n    /* ======== STATE VARIABLES ======== */\n    address public xBlade; // token given as payment for bond\n    address public principle; // token used to create bond\n    address public treasury; // mints xBlade when receives principle\n    address public DAO; // receives profit share from bond\n\n    AggregatorV3Interface internal priceFeed;\n\n    Terms public terms; // stores terms for new bonds\n\n    mapping(address => Bond) public bondInfo; // stores bond information for depositors\n\n    IPancakeRouter02 public pancakeRouter;\n\n    uint256 public lastBuyBack;\n    uint256 public totalPurchased;\n    uint256 public currentSale;\n\n    uint256 public referralBonusRate;\n    /* ======== STRUCTS ======== */\n\n    // Info for creating new bonds\n    struct Terms {\n        uint256 minimumPrice; // vs principle value. 4 decimals (1500 = 0.15)\n        uint256 maxPayout; // in thousandths of a %. i.e. 500 = 0.5%\n        uint32 vestingTerm; // in seconds\n        uint256 discountRate; // in percent\n    }\n\n    // Info for bond holder\n    struct Bond {\n        uint256 payout; // xBlade remaining to be paid\n        uint256 pricePaid; // In DAI, for front end viewing\n        uint32 vesting; // Seconds left to vest\n        uint32 lastTime; // Last interaction\n    }\n\n    /* ======== INITIALIZATION ======== */\n\n    function initialize(\n        address _xBlade,\n        address _principle,\n        address _treasury,\n        address _DAO,\n        address _feed,\n        address _router\n    ) public initializer {\n        OwnableUpgradeable.__Ownable_init();\n        require(_xBlade != address(0));\n        xBlade = _xBlade;\n        require(_principle != address(0));\n        principle = _principle;\n        require(_treasury != address(0));\n        treasury = _treasury;\n        require(_DAO != address(0));\n        DAO = _DAO;\n        require(_feed != address(0));\n        priceFeed = AggregatorV3Interface(_feed);\n        pancakeRouter = IPancakeRouter02(_router);\n    }\n\n    /**\n     *  @notice initializes bond parameters\n     *  @param _vestingTerm uint\n     *  @param _minimumPrice uint\n     *  @param _maxPayout uint\n     *  @param _discountRate uint\n     */\n    function initializeBondTerms(\n        uint256 _minimumPrice,\n        uint256 _maxPayout,\n        uint32 _vestingTerm,\n        uint256 _discountRate\n    ) external onlyOwner {\n        terms = Terms({ vestingTerm: _vestingTerm, minimumPrice: _minimumPrice, maxPayout: _maxPayout, discountRate: _discountRate });\n    }\n\n    /* ======== MODIFIERS ======== */\n\n    modifier onlyNonContract() {\n        require(tx.origin == msg.sender);\n        _;\n    }\n\n    /* ======== POLICY FUNCTIONS ======== */\n\n    enum PARAMETER {\n        VESTING,\n        PAYOUT,\n        DEBT,\n        MINPRICE,\n        DISCOUNT\n    }\n\n    /**\n     *  @notice set parameters for new bonds\n     *  @param _parameter PARAMETER\n     *  @param _input uint\n     */\n    function setBondTerms(PARAMETER _parameter, uint256 _input) external onlyOwner {\n        if (_parameter == PARAMETER.VESTING) {\n            // 0\n            require(_input >= 129600, \"Vesting must be longer than 36 hours\");\n            terms.vestingTerm = uint32(_input);\n        } else if (_parameter == PARAMETER.PAYOUT) {\n            // 1\n            require(_input <= 1000, \"Payout cannot be above 1 percent\");\n            terms.maxPayout = _input;\n        } else if (_parameter == PARAMETER.DEBT) {\n            // 2\n            // Do nothing\n            // terms.maxDebt = _input;\n        } else if (_parameter == PARAMETER.MINPRICE) {\n            // 3\n            terms.minimumPrice = _input;\n        } else if (_parameter == PARAMETER.DISCOUNT) {\n            // 4\n            require(_input < 300, \"Discount sale cannot greater than 30%\");\n            terms.discountRate = _input;\n        }\n    }\n\n    function setPrice(address _feed) public onlyOwner {\n        priceFeed = AggregatorV3Interface(_feed);\n    }\n\n    function setCurrentSale(uint256 _initialSale) public onlyOwner {\n        currentSale = _initialSale;\n    }\n\n    /* ======== USER FUNCTIONS ======== */\n\n    /**\n     *  @notice deposit bond\n     *  @param _amount uint\n     *  @param _maxPrice uint\n     *  @param _depositor address\n     *  @return uint\n     */\n    function deposit(\n        uint256 _amount,\n        uint256 _maxPrice,\n        address _depositor\n    ) public onlyNonContract returns (uint256) {\n        require(_depositor != address(0), \"Invalid address\");\n\n        uint256 priceInUSD = bondPriceInUSD(); // Stored in bond info\n        uint256 nativePrice = _bondPrice();\n\n        require(_maxPrice >= nativePrice, \"Slippage limit: more than max price\"); // slippage protection\n\n        uint256 value = _amount;\n        uint256 payout = payoutFor(value); // payout to bonder is computed\n\n        require(currentSale >= payout, \"No more sale token\");\n        require(payout >= 10000000, \"Bond too small\"); // must be > 0.01 xBlade ( underflow protection )\n        require(payout <= maxPayout(), \"Bond too large\"); // size protection because there is no slippage\n\n        currentSale = currentSale.sub(payout);\n        totalPurchased = totalPurchased.add(value);\n        /**\n            asset carries risk and is not minted against\n            asset transfered to treasury and rewards minted as payout\n         */\n        // if (address(this).balance >= _amount) {\n        //     // pay with WETH9\n        //     IWETH9(principle).deposit{value: _amount}(); // wrap only what is needed to pay\n        //     IWETH9(principle).transfer(treasury, _amount);\n        // } else {\n        IERC20(principle).safeTransferFrom(msg.sender, address(this), _amount);\n        liquidify(_amount.div(2));\n        buyBack(IERC20(principle).balanceOf(address(this)));\n        // }\n\n        /** FIXME: Due to customize this contract to sell xBlade,\n            so comment out this line to prevent minting token\n            In future, this line will be removed after successfully testing\n\n            ITreasury(treasury).mintRewards(address(this), payout);\n        */\n\n        // depositor info is stored\n        bondInfo[_depositor] = Bond({ payout: bondInfo[_depositor].payout.add(payout), vesting: terms.vestingTerm, lastTime: uint32(block.timestamp), pricePaid: priceInUSD });\n\n        // indexed events are emitted\n        emit BondCreated(_amount, payout, block.timestamp.add(terms.vestingTerm), priceInUSD);\n        return payout;\n    }\n\n    /**\n     *  @notice deposit bond with referral\n     *  @param _amount uint\n     *  @param _maxPrice uint\n     *  @param _depositor address\n     *  @param _referrer address\n     *  @return uint\n     */\n    function depositWithReferral(\n        uint256 _amount,\n        uint256 _maxPrice,\n        address _depositor,\n        address _referrer\n    ) external onlyNonContract returns (uint256) {\n        require(_depositor != _referrer && msg.sender != _referrer, \"Cannot refer yourself\");\n        distributeReferral(_referrer, _amount);\n        return deposit(_amount, _maxPrice, _depositor);\n    }\n\n    /**\n     *  @notice redeem bond for user\n     *  @param _recipient address\n     *  @param _stake bool\n     *  @return uint\n     */\n    function redeem(address _recipient, bool _stake) external onlyNonContract returns (uint256) {\n        Bond memory info = bondInfo[_recipient];\n        uint256 percentVested = percentVestedFor(_recipient); // (blocks since last interaction / vesting term remaining)\n\n        if (percentVested >= 10000) {\n            // if fully vested\n            delete bondInfo[_recipient]; // delete user info\n            emit BondRedeemed(_recipient, info.payout, 0); // emit bond data\n            return stakeOrSend(_recipient, info.payout); // pay user everything due\n        } else {\n            // if unfinished\n            // calculate payout vested\n            uint256 payout = info.payout.mul(percentVested).div(10000);\n\n            // store updated deposit info\n            bondInfo[_recipient] = Bond({\n                payout: info.payout.sub(payout),\n                vesting: info.vesting.sub32(uint32(block.timestamp).sub32(info.lastTime)),\n                lastTime: uint32(block.timestamp),\n                pricePaid: info.pricePaid\n            });\n\n            emit BondRedeemed(_recipient, payout, bondInfo[_recipient].payout);\n            return stakeOrSend(_recipient, payout);\n        }\n    }\n\n    /* ======== INTERNAL HELPER FUNCTIONS ======== */\n\n    /**\n     *  @notice allow user to stake payout automatically\n     *  @param _amount uint\n     *  @return uint\n     */\n    function stakeOrSend(address _recipient, uint256 _amount) internal returns (uint256) {\n        IERC20(xBlade).transfer(_recipient, _amount); // send payout\n        return _amount;\n    }\n\n    function swap(uint256 _value, address to) internal {\n        // generate the pancake pair path of principle -> xblade\n        address[] memory path = new address[](2);\n        path[0] = principle;\n        path[1] = xBlade;\n        pancakeRouter.swapExactTokensForTokensSupportingFeeOnTransferTokens(_value, 0, path, to, block.timestamp + 360);\n    }\n\n    /**\n     * @notice increase liquidity\n     */\n    function liquidify(uint256 _value) internal {\n        if (_value > 0) {\n            if (IERC20(xBlade).allowance(address(this), address(pancakeRouter)) == 0) {\n                IERC20(xBlade).approve(address(pancakeRouter), ~uint256(0));\n            }\n\n            if (IERC20(principle).allowance(address(this), address(pancakeRouter)) == 0) {\n                IERC20(principle).approve(address(pancakeRouter), ~uint256(0));\n            }\n\n            uint256 oldBalance = IERC20(xBlade).balanceOf(address(this));\n            swap(_value.div(2), address(this));\n            uint256 newBalance = IERC20(xBlade).balanceOf(address(this));\n\n            pancakeRouter.addLiquidity(xBlade, principle, newBalance.sub(oldBalance), _value.div(2), 0, 0, treasury, block.timestamp + 360);\n        }\n    }\n\n    /**\n     * @notice distribute referral\n     */\n\n    function distributeReferral(address _referrer, uint256 _value) internal {\n        if (_referrer != address(0)) {\n            uint256 _refValue = _value.mul(referralBonusRate).div(100);\n            uint256 payout = FixedPoint.fraction(_refValue, assetPrice()).decode112with18(); // payout to referrer is computed\n            IERC20(principle).safeTransfer(_referrer, payout);\n        }\n    }\n\n    /**\n     * @notice buy back to treasury\n     */\n    function buyBack(uint256 _value) internal {\n        // buy back every 8 hours\n        if (block.timestamp.sub(lastBuyBack) > 28800) {\n            lastBuyBack = block.timestamp;\n            // if _value > 100 busd swap 1%\n            if (_value > 1e20) {\n                swap(_value.div(100), treasury);\n            }\n            if (_value <= 1e20) {\n                swap(_value, treasury);\n            }\n        }\n    }\n\n    function setTreasury(address _treasury) public onlyOwner {\n        treasury = _treasury;\n    }\n\n    function setReferralBonusRate(uint256 _rate) public onlyOwner {\n        referralBonusRate = _rate;\n    }\n\n    /* ======== VIEW FUNCTIONS ======== */\n\n    /**\n     *  @notice determine maximum bond size\n     *  @return uint\n     */\n    function maxPayout() public view returns (uint256) {\n        return IERC20(xBlade).totalSupply().mul(terms.maxPayout).div(100000);\n    }\n\n    /**\n     *  @notice calculate interest due for new bond\n     *  @param _value uint\n     *  @return uint\n     */\n    function payoutFor(uint256 _value) public view returns (uint256) {\n        return FixedPoint.fraction(_value, bondPrice()).decode112with18();\n    }\n\n    /**\n     *  @notice calculate current bond premium\n     *  @return price_ uint\n     */\n    function bondPrice() public view returns (uint256 price_) {\n        price_ = assetPrice().sub(assetPrice().mul(terms.discountRate).div(1000));\n        if (price_ < terms.minimumPrice) {\n            price_ = terms.minimumPrice;\n        }\n    }\n\n    /**\n     *  @notice calculate current bond price and remove floor if above\n     *  @return price_ uint\n     */\n    function _bondPrice() internal view returns (uint256 price_) {\n        price_ = bondPrice();\n    }\n\n    /**\n     *  @notice get asset price from chainlink\n     */\n    function assetPrice() public view returns (uint256) {\n        uint256 price = priceFeed.latestRoundData();\n        return price;\n    }\n\n    /**\n     *  @notice converts bond price to DAI value\n     *  @return price_ uint\n     */\n    function bondPriceInUSD() public view returns (uint256 price_) {\n        price_ = bondPrice();\n    }\n\n    /**\n     *  @notice calculate how far into vesting a depositor is\n     *  @param _depositor address\n     *  @return percentVested_ uint\n     */\n    function percentVestedFor(address _depositor) public view returns (uint256 percentVested_) {\n        Bond memory bond = bondInfo[_depositor];\n        uint256 secondsSinceLast = uint32(block.timestamp).sub32(bond.lastTime);\n        uint256 vesting = bond.vesting;\n\n        if (vesting > 0) {\n            percentVested_ = secondsSinceLast.mul(10000).div(vesting);\n        } else {\n            percentVested_ = 0;\n        }\n    }\n\n    /**\n     *  @notice calculate amount of xBlade available for claim by depositor\n     *  @param _depositor address\n     *  @return pendingPayout_ uint\n     */\n    function pendingPayoutFor(address _depositor) external view returns (uint256 pendingPayout_) {\n        uint256 percentVested = percentVestedFor(_depositor);\n        uint256 payout = bondInfo[_depositor].payout;\n\n        if (percentVested >= 10000) {\n            pendingPayout_ = payout;\n        } else {\n            pendingPayout_ = payout.mul(percentVested).div(10000);\n        }\n    }\n\n    /* ======= AUXILLIARY ======= */\n\n    /**\n     *  @notice allow anyone to send lost tokens (excluding principle or xBlade) to the DAO\n     *  @return bool\n     */\n    function recoverLostToken(address _token) external returns (bool) {\n        require(_token != xBlade);\n        require(_token != principle);\n        IERC20(_token).safeTransfer(DAO, IERC20(_token).balanceOf(address(this)));\n        return true;\n    }\n\n    function refundETH() internal {\n        if (address(this).balance > 0) safeTransferETH(DAO, address(this).balance);\n    }\n\n    /// @notice Transfers ETH to the recipient address\n    /// @dev Fails with `STE`\n    /// @param to The destination of the transfer\n    /// @param value The value to be transferred\n    function safeTransferETH(address to, uint256 value) internal {\n        (bool success, ) = to.call{ value: value }(new bytes(0));\n        require(success, \"STE\");\n    }\n}\n",
  "sourcePath": "/Users/tamnguyen/Documents/project/xbn/bond.cryptowar.network/contracts/EthBondDepository.sol",
  "compiler": {
    "name": "solc",
    "version": "0.7.5+commit.eb77ed08.Emscripten.clang"
  },
  "schemaVersion": "3.3.2",
  "updatedAt": "2021-12-25T08:11:31.215Z",
  "networkType": "ethereum",
  "devdoc": {
    "kind": "dev",
    "methods": {
      "bondPrice()": {
        "returns": {
          "price_": "uint"
        }
      },
      "bondPriceInUSD()": {
        "returns": {
          "price_": "uint"
        }
      },
      "deposit(uint256,uint256,address)": {
        "params": {
          "_amount": "uint",
          "_depositor": "address",
          "_maxPrice": "uint"
        },
        "returns": {
          "_0": "uint"
        }
      },
      "depositWithReferral(uint256,uint256,address,address)": {
        "params": {
          "_amount": "uint",
          "_depositor": "address",
          "_maxPrice": "uint",
          "_referrer": "address"
        },
        "returns": {
          "_0": "uint"
        }
      },
      "initializeBondTerms(uint256,uint256,uint32,uint256)": {
        "params": {
          "_discountRate": "uint",
          "_maxPayout": "uint",
          "_minimumPrice": "uint",
          "_vestingTerm": "uint"
        }
      },
      "maxPayout()": {
        "returns": {
          "_0": "uint"
        }
      },
      "owner()": {
        "details": "Returns the address of the current owner."
      },
      "payoutFor(uint256)": {
        "params": {
          "_value": "uint"
        },
        "returns": {
          "_0": "uint"
        }
      },
      "pendingPayoutFor(address)": {
        "params": {
          "_depositor": "address"
        },
        "returns": {
          "pendingPayout_": "uint"
        }
      },
      "percentVestedFor(address)": {
        "params": {
          "_depositor": "address"
        },
        "returns": {
          "percentVested_": "uint"
        }
      },
      "recoverLostToken(address)": {
        "returns": {
          "_0": "bool"
        }
      },
      "redeem(address,bool)": {
        "params": {
          "_recipient": "address",
          "_stake": "bool"
        },
        "returns": {
          "_0": "uint"
        }
      },
      "renounceOwnership()": {
        "details": "Leaves the contract without owner. It will not be possible to call `onlyOwner` functions anymore. Can only be called by the current owner. NOTE: Renouncing ownership will leave the contract without an owner, thereby removing any functionality that is only available to the owner."
      },
      "setBondTerms(uint8,uint256)": {
        "params": {
          "_input": "uint",
          "_parameter": "PARAMETER"
        }
      },
      "transferOwnership(address)": {
        "details": "Transfers ownership of the contract to a new account (`newOwner`). Can only be called by the current owner."
      }
    },
    "version": 1
  },
  "userdoc": {
    "kind": "user",
    "methods": {
      "assetPrice()": {
        "notice": "get asset price from chainlink"
      },
      "bondPrice()": {
        "notice": "calculate current bond premium"
      },
      "bondPriceInUSD()": {
        "notice": "converts bond price to DAI value"
      },
      "deposit(uint256,uint256,address)": {
        "notice": "deposit bond"
      },
      "depositWithReferral(uint256,uint256,address,address)": {
        "notice": "deposit bond with referral"
      },
      "initializeBondTerms(uint256,uint256,uint32,uint256)": {
        "notice": "initializes bond parameters"
      },
      "maxPayout()": {
        "notice": "determine maximum bond size"
      },
      "payoutFor(uint256)": {
        "notice": "calculate interest due for new bond"
      },
      "pendingPayoutFor(address)": {
        "notice": "calculate amount of xBlade available for claim by depositor"
      },
      "percentVestedFor(address)": {
        "notice": "calculate how far into vesting a depositor is"
      },
      "recoverLostToken(address)": {
        "notice": "allow anyone to send lost tokens (excluding principle or xBlade) to the DAO"
      },
      "redeem(address,bool)": {
        "notice": "redeem bond for user"
      },
      "setBondTerms(uint8,uint256)": {
        "notice": "set parameters for new bonds"
      }
    },
    "version": 1
  }
}